S014000053616D6420757362546573742E7372656381
S113000098250020E5080000E1080000E108000050
S113001000000000000000000000000000000000DC
S1130020000000000000000000000000E1080000E3
S11300300000000000000000E1080000E1080000EA
S1130040E1080000E1080000E1080000E108000008
S1130050E1080000E1080000E10800003D030000A1
S1130060E1080000E1080000E1080000E1080000E8
S1130070E1080000E1080000E1080000E1080000D8
S1130080E1080000E1080000E1080000E1080000C8
S1130090E10800000000000000000000E10800008A
S11300A0E1080000E1080000E1080000E1080000A8
S11300B00000000010B5064C2378002B07D1054B37
S11300C0002B02D0044800E000BF0123237010BDC0
S11300D02804002000000000680F000008B5084B49
S11300E0002B03D00748084900E000BF0748036815
S11300F0002B00D108BD064B002BFBD09847F9E735
S113010000000000680F00002C040020680F0000AD
S1130110000000000E4B0F4A1A6059680E4A114045
S1130120C0208005014359600C49196159690A408E
S113013002435A615A69802109060A435A61084BED
S113014010210A22FF3299540131093A9954704717
S11301504804002058050020FFFFFF8F08050020F9
S11301600050004138B51E4AD16920230B43D361A6
S11301701C4A1D4B5A8001221C4B1A70191C8B7887
S11301801A42FCD10222194B1A70191C013A8B78BD
S11301905B081A42FBD1164B1B689A03D20E1F2A26
S11301A000D11A3A5902C90E1F2900D102399B0104
S11301B05B0F072B00D1043B92010A431B0313433B
S11301C00A4C23850B4B1A7852010B4D281C002135
S11301D00A4B9847656208232383094B984738BD27
S11301E00004004006400000000C004000500041A4
S11301F024608000F40E000048040020E10B00009D
S11302001501000080231843014B98727047C046C3
S11302100050004170B53F2420404001124E361872
S1130220DD0773695B005B082B43736175690F4BD2
S11302302B4073619204930C7269920B92031A43DC
S1130240726131610A4BC3180A210822FF329954A2
S1130250084A944660440222427076310622FF32F4
S11302609954002070BDC04648040020FF3F00F0B0
S113027000500041085100418022044B1A60044A96
S1130280138901218B4313817047C04600E100E0CC
S1130290005000410D4B59680D4A0A408021490322
S11302A00A435A605A68920B92035A60094A1A60C8
S11302B0094B05210822FF32995404390A22FF32DE
S11302C099543F31053A99547047C0464804002078
S11302D0FF3F00F058050020005000410F4B5A69C1
S11302E0802109060A435A6159690D4A0A405A6134
S11302F05A69920B920302435A610A4A1A610A4BE1
S11303000A210822FF32995408390A22FF329954EB
S11303107E310622FF3299547047C04648040020BB
S1130320FF3F00F008050020005000413021062363
S1130330FF33014AD15470470050004170B5214B3E
S11303401C8CA4B29B8B1B0707D508221D4B9A83D8
S11303501D4B98471D4B984733E0E30717D5194ABF
S11303600823FF33D55CEDB21321D154EB0606D537
S1130370174818490822184B9847184B9847EB0719
S113038001D5174B9847AB0701D5164B9847164B29
S11303901878012813DD012301252A1C9A401442F0
S11303A00AD05A0111498C466244D179C9B25A0122
S11303B00F4EB4466244117001338342EDDB0D4BA2
S11303C0984770BD0050004115010000050500006C
S11303D05005002058050020650B0000650600004C
S11303E0C5070000E1070000F40E000000510041C1
S11303F008510041E9050000F0B55F4656464D46F8
S11304004446F0B489B0002107239C46184F194E86
S11304100825194B9B461F239A468B005A18D3175D
S1130420580F8318DA10644623401B1A905D8046E7
S1130430E81A814640464C46A04080465846125C25
S11304401A41131C4246134352461340FA5C01AB53
S1130450CA5401311A29E0D1181C00238376074BB2
S1130460984709B03CBC90469946A246AB46F0BDBD
S1130470040E00000DA080000CA08000A108000064
S113048010B5141C022807D0032809D001282AD14A
S11304901130174B183328E07520154B2C3324E00A
S11304A0022911D004D8002907D0012907D017E068
S11304B003290ED0EE2910D012E00D4B11E00D48A7
S11304C00D4B9847031C0CE00C480B4B9847031C3E
S11304D007E00B4B9847031C03E0054B043300E093
S11304E00023187801E000200023236010BDC046DB
S11304F0280E0000F80E0000A1080000000F000004
S1130500F90300007047C0460023012282425B4188
S1130510D8B2704710B5002813D101300A4B984760
S113052080B2041C402800D94024A4B20748012109
S1130530221C074B9847074B9847E0B2064B984755
S113054001E0064B984710BD6D0C00000805002023
S1130550650B000095020000DD0200002D03000081
S113056008B5034B98470020024B984708BDC04686
S113057095020000DD02000008B5134B1B78DB0672
S11305801ED1114B5B78302B0FD0DAB2302A02D84F
S1130590102B17D014E0DAB2BB2A0ED0EE2A0FD1FA
S11305A00A4824300A4B98470CE0074A13795079DB
S11305B000021843074B984704E0074B984701E0B3
S11305C0064B984708BDC04650050020A80E000001
S11305D02508000015050000610500002D0300003A
S11305E07047C0467047C0467047C0460023002885
S11305F004D1022902D8024B19800123181C704728
S11306004404002038B5114B1B881C1C402B00D916
S11306104024A4B20E4D0F4B1968281C221C0E4B0B
S113062098478020291C221C00230C4DA847002C2D
S113063001D10B4B9847054A13881B1B1380054BAC
S11306401A68944664441C6038BDC0464A050020BC
S1130650080500204C050020650B00001502000071
S11306609502000010B582B0474B1B7860221A42F5
S113067000D085E0444B5A780B2A7ED89300434A35
S1130680D3589F46424B00221A705A700220414BA5
S11306909847414B984775E000203E4B98473E4BA6
S11306A098476FE000203B4B98473B4B984769E0E5
S11306B0354A9378D1780902194300230193080A33
S11306C0C9B201AA354B9847002820D001990029C6
S11306D01DD02D4B9A79DB791B021343041C80B285
S11306E0984200D91C1CA2B2294B994208D100217E
S11306F02B4B19808020264901232A4CA04741E036
S1130700274B1C80284B1960284B98473AE0284B0C
S1130710984737E0274B1A781D4B1A7001201D4B60
S113072098471D4B98472DE0174B9878224B9847D4
S1130730002809D00020174B9847134B9A781D4B7B
S11307401A70154B98471DE0194B98471AE00E4B49
S11307501A795879000210439A78D978090211431A
S1130760164B9847002805D000200A4B98470A4B9F
S1130770984707E00E4B984704E00D4B984701E07B
S11307800F4B984702B010BD500500200C0F00001D
S113079008050020DD02000095020000810400002D
S11307A04A050020150200004C0500200506000043
S11307B02D0300004805002009050000ED05000098
S11307C07905000008B5044B1B7860221A4201D059
S11307D0024B984708BDC04650050020E5050000BF
S11307E008B50C4B1B7860221A4210D1094B5B7878
S11307F0052B02D0062B07D00BE0064B98787F23FD
S11308001840054B984704E0044B984701E0044B1B
S1130810984708BD500500200502000005060000A9
S1130820E105000038B5011C174B1A795B791B02EE
S11308301343042B25D1144A9379D5792D021D43F2
S113084004784278120222438B781B0413431A1C47
S1130850CB781B0613439D4200D99DB22C1C402D1E
S113086000D94024A4B2094D281C221C084B9847E7
S11308708020291C221C0023064CA047064B9847C5
S113088001E0064B984738BD5005002008050020BC
S1130890650B000015020000950200002D03000006
S11308A010B5041C0C4B984783B2181C1F2B00D99D
S11308B01F2080B2094A431C5B001370032353704A
S11308C0002806DD0023E15C5180013302328342BB
S11308D0F9DB024810BDC0466D0C0000080500207D
S11308E0FEE7C04670B52E4B2E4A9A4203D02E4BDB
S11308F02B4A9A4204D32D4B2D4A9A4210D31EE020
S11309002C4A294B03339B1A9B0801339B0000227A
S1130910234824498C58845004329A42FAD1EAE795
S1130920254A224B03339B1A9B0801339B00002268
S11309301F4800211418216004329A42FAD11F4A38
S1130940FF211F4B8B439360FD3990235B001D4AAD
S1130950D1501D48C3780324A34302221343C37018
S1130960C3780C26B34308210B43C370174B987B01
S11309703025A843051C202028439873987BB04356
S113098001439973997BA1430A439A73104A5168AE
S113099080230B4353600F4B98470F4B9847FEE758
S11309A000000020680F00002804002098050020A3
S11309B028040020040000202C04002000ED00E0A6
S11309C00000000000700041005000410048004158
S11309D0004000411D0B0000A10A0000C222D20009
S11309E0234B9A6023494B681E2293431A3A1343BC
S11309F04B60214A916908230B43936101221F4BE9
S1130A001A70191C0B781342FCD11D4A1B4B5A80D7
S1130A101C4A174B9A82191C0222CB681A42FCD03A
S1130A20164B0222FF329A60174A5A608222D20180
S1130A305A80164A0E4B9A84191C1022CB681A420B
S1130A40FCD00B4B124ADA62DA6A12490A43DA62C0
S1130A50191C1022CB681A42FCD00F4A044B9A840A
S1130A60064B802252009A600C4A5A607047C04676
S1130A70000800400040004100040040000C004019
S1130A80134000000E0600000105010022050000CD
S1130A9000000104B9050000A205000000070100E0
S1130AA030B583B0184B9847184B582441221A5537
S1130AB059201A543C215A5C0F25AA43151C0622BE
S1130AC02A435A541D5D012215431D555C5C0F25B4
S1130AD0254060242C435C54195C0A431A540C4B83
S1130AE098470C4B98470C49C12292008B581B0223
S1130AF01B0AC020000603438B5000230193019B73
S1130B0001330193FBE7C046DD09000000440041C6
S1130B10650100007902000000E100E070B50D4EAF
S1130B200D4D0024AD1BAD1005D0A300F3580134C6
S1130B309847A542F9D100F005FA084E084D002463
S1130B40AD1BAD1005D0A300F35801349847A5425E
S1130B50F9D170BD500F0000500F0000500F00007D
S1130B60580F000070B50F2A32D9041C0C430B1C1B
S1130B70A40731D1151C041C103D2D0901352D018C
S1130B8049191E6826605E6866609E68A660DE6815
S1130B901033E66010349942F3D10F234519134002
S1130BA0032B1BD91C1F0023A4080134A400CE5816
S1130BB0EE500433A342FAD1ED18C91803231A40A6
S1130BC005D00023CC5CEC5401339342FAD170BDC0
S1130BD0051C002AF5D1FAE7051CF2E71A1CF8E710
S1130BE070B583073FD0541E002A3BD0CEB2031CFD
S1130BF0032503E0621E002C34D0141C01335A1E5A
S1130C0016702B42F6D1032C24D9FF250D402A025D
S1130C1015432A0415430F2C11D9261C103E3609FE
S1130C20013636011A1C9B19156055609560D56014
S1130C3010329342F8D10F221440032C0AD9261FF4
S1130C40B6080136B6001A1C9B1920C29342FCD187
S1130C5003221440002C05D0C9B21C1919700133A9
S1130C60A342FBD170BD141C031CCCE710B5830751
S1130C7027D00378002B26D0031C032102E01A7826
S1130C80002A1CD001330B42F9D119680F4A104CC9
S1130C908A188A4322420FD1043319680B4A8A18EE
S1130CA08A43224208D104331968084A8A188A43BD
S1130CB02242F1D000E001331A78002AFBD1181A3D
S1130CC010BD031CE1E70020FAE7C046FFFEFEFE6C
S1130CD08080808008B5034B002B02D0024800F0CE
S1130CE005F808BD00000000FD0C000008B5011C5B
S1130CF000220020002300F01BF808BD38B5094B82
S1130D00094CE41AA41009D0084AA518AD00ED183E
S1130D102B68013C9847043D002CF9D100F01CF9E4
S1130D2038BDC046640F0000680F0000FFFFFF3F9E
S1130D30F8B544465F4656464D469B462F4BF0B4A5
S1130D401C68A4235B00051CE0580E1C9046002878
S1130D504BD043681F2B0DDC5C1C002D21D10233CA
S1130D609B0044601E5000203CBC90469946A2461D
S1130D70AB46F8BD224B002B3CD0C820400000E01D
S1130D8000BF002836D0A42200235200A15843609B
S1130D900160A05040328350043283500124002D5E
S1130DA0DDD09A0091468144424688214F467A50CC
S1130DB0C4225200904680444246873999401268C2
S1130DC08A460A4394464246614611608422494653
S1130DD05F4652008F50022DC1D1021C55468D3200
S1130DE0FF3211680D431560B9E7201C4D30FF3008
S1130DF0E050AEE701204042B6E7C046400F000095
S1130E00000000003031323334353637383941424E
S1130E1043444647484A4B4C4D4E50515253545606
S1130E205758595A000000000403090412034D00E6
S1130E30530046005400310030003000EE00000042
S1130E401201000200000040091251751001010254
S1130E50030100000902750003010080FA0904007F
S1130E600000FF0000000904000102FF0000000769
S1130E700581024000000705020240000009040049
S1130E800202FF000000070581024000000705027E
S1130E9002400000090401000102020000052400D0
S1130EA01001042402000524060102070583030837
S1130EB000FF09040200020A0000000705040240C2
S1130EC0000507058402400005000000280000001A
S1130ED00001040001000000000000000000574968
S1130EE04E555342000000000000000000000000C6
S1130EF0000000000500000054657373656C000079
S1130F0054657373656C2032000000008406000091
S1130F10980600007A070000980600007A0700008F
S1130F20A4060000B00600007A07000014070000C1
S1130F30280700007A0700004E0700004300000065
S1130F4000000020F8B5C046F8BC08BC9E467047B7
S1130F50D50C0000DD000000F8B5C046F8BC08BCA4
S10B0F609E467047B500000035
S1130F6800000000EC02002054030020BC03002011
S1130F780000000000000000000000000000000065
S1130F880000000000000000000000000000000055
S1130F98000000003C0F00000000000000000000FA
S1130FA80000000000000000000000000000000035
S1130FB80000000000000000000000000000000025
S1130FC80000000000000000000000000000000015
S1130FD80000000000000000000000000000000005
S1130FE800000000000000000000000000000000F5
S1130FF800000000000000000000000000000000E5
S113100800000000000000000100000000000000D3
S11310180E33CDAB34126DE6ECDE05000B00000098
S113102800000000000000000000000000000000B4
S113103800000000000000000000000000000000A4
S11310480000000000000000000000000000000094
S11310580000000000000000000000000000000084
S9030000FC
