:1000000020210020B50C0000AD0C0000AD0C00005C
:1000100000000000000000000000000000000000E0
:10002000000000000000000000000000AD0C000017
:100030000000000000000000AD0C0000AD0C00004E
:10004000AD0C0000AD0C0000AD0C00003D0900003F
:10005000AD0C0000AD0C0000AD0C0000AD0C0000BC
:10006000AD0C0000AD0C0000AD0C0000AD0C0000AC
:10007000AD0C0000AD0C0000AD0C0000AD0C00009C
:10008000AD0C0000AD0C0000AD0C0000ED0D00004B
:10009000AD0C00000000000000000000AD0C0000EE
:1000A000AD0C0000AD0C0000AD0C0000AD0C00006C
:1000B0000000000010B5064C2378002B07D1054B3B
:1000C000002B02D0044800E000BF0123237010BDC4
:1000D0000800002000000000441C000008B5084B88
:1000E000002B03D00748084900E000BF0748036819
:1000F000002B00D108BD064B002BFBD09847F9E739
:1001000000000000441C00000C000020441C000003
:100110000000000070B5051C802252020A4B5A6193
:100120000F200D21F222094B98472C1C0635084E52
:100130000F200E21B04720700134AC42F8D180224C
:100140005202014B9A6170BD00440041E10600007B
:1001500041070000F0B5474680B40F4F8024A4004B
:100160007C610F200D2100220C4B98470F200E219F
:100170000B4EB047051C0F200E21B04780460F20C4
:100180000E21B047BC612D0443461C022C43204382
:1001900004BC9046F0BDC04600440041E1060000AA
:1001A00041070000F8B55F4656464D464446F0B458
:1001B00081460024154F164B9846164E9625AD00E5
:1001C000281CB847281CB847134D80239B009B462A
:1001D0006B61221C5E3AD2B20F200D21C0470F2066
:1001E0000E21B04782460F200E21B0475B46AB611F
:1001F00053461D0228434B46185302340C2CDDD1C4
:100200003CBC90469946A246AB46F8BDB9090000F1
:10021000E10600004107000000440041F0B54746F8
:1002200080B482B0904617893F020B68DF1BFB1732
:10023000046892881C4E381C0193191C0023B04797
:100240004D06C2092A43CB094046058800212804EF
:1002500012184B41201C0021B047CC17E20A0023A2
:1002600080185941CB02440D1C434D154246D2889B
:10027000381C01990023B0478B0686091E438F095D
:1002800043465988CB0B4A0492197B41A41A9D41DD
:10029000EB17580C002124184D416B04E00B184358
:1002A00002B004BC9046F0BD3D0F000030B50D4BD0
:1002B000984212DC1B1A9B124B2B10DC0A4C9A0042
:1002C00012599D020749491B081A01339B001B590B
:1002D0009B1A58438012801802E0044800E004484A
:1002E00030BDC046CC990100641A0000208DFFFF8C
:1002F0008E040F0010B54B4B1A78072A03D89300D1
:10030000494AD3589F4600208AE04848484B9847BE
:10031000444A137801331370002081E0434B5B782B
:100320005AB2002A07DA434A13431B023F4A1278A3
:1003300013439BB204E01B023C4A1278D3189BB2D1
:100340003D4A13800222374B1A70002068E0374B79
:10035000DB785AB2002A07DA364A13431B02334AC3
:10036000927813439BB204E01B02304A9278D31870
:100370009BB2324A138003222A4B1A7000204FE0AE
:100380002A4B5B795AB2002A07DA2A4A13431B0226
:10039000264A127913439BB204E01B02234A1279C6
:1003A000D3189BB2264A138004221E4B1A700020D9
:1003B00036E0214B0020185E224B9847224A234BFF
:1003C000234CA047234B9847234B18600522154B1D
:1003D0001A70002024E0194B0020185E194B984732
:1003E000194A1A4B1A4CA0471A4B98471B4B1860D6
:1003F00006220C4B1A70002012E0114B0020185EF0
:10040000104B9847104A114B114CA047114B98477D
:10041000134B18600722034B1A70002000E00120E4
:1004200010BDC0465A000020981B00005400002058
:100430001501000000FFFFFF5C00002040000020CD
:100440005000002031150000DE718A8EE4F26F3F0B
:10045000FD0F0000A9150000480000204C000020FE
:1004600044000020F8B5071C0022204B1A70102011
:1004700001211F4EB0471F4C80256D02A5610D2044
:100480000121B0470F200121B0470E200021B047C5
:100490000E237B70063B3B7065610F200D212D22E2
:1004A000154EB0470F200D210022B047A5616561B0
:1004B0000F200D212C22B0477A780F200D21B04754
:1004C000A56165610F200D212C22B0473A780F20DD
:1004D0000D21B047A56165610F200D212D22B04788
:1004E0000F200D210822B047A561F8BD5A00002059
:1004F000E509000000440041E1060000014B1868D6
:100500007047C04648000020014B18687047C0463D
:100510004C000020014B18687047C0464400002082
:1005200038B50022114B1A7009200121104CA04748
:1005300009200121A0470D200121A0470F20012102
:10054000A0470E200021A0470A4C8025AD00656120
:100550000F200D211E22084B9847A5619620800090
:10056000064B98470648074B984738BD7000002057
:10057000E509000000440041E1060000B90900005F
:1005800034000020A501000038B5021C044C802571
:10059000AD0065610F200D21024B9847A56138BD64
:1005A00000440041E106000008B53C4B1A78082AD7
:1005B00003D893003A4AD3589F4600206DE040206C
:1005C000384B9847354A137801331370364B9847A8
:1005D000364B1860002060E0334B9847334B1B6864
:1005E000C01A162805D92D4A13780133137000203C
:1005F00053E02F4A13880133138000204DE02D4B28
:1006000098472D4B1860254A13780133137000204A
:1006100043E05020234B9847204A1378013313704E
:10062000214B9847214B1860002036E01E4B98471D
:100630001E4B1B68C01A162805D9184A13780133B7
:100640001370002029E01A4A138801331380002018
:1006500023E0184B9847194B1860104A1378013360
:100660001370002019E014481449154A154B984797
:10067000154B1860094A13780133137000200CE001
:10068000114B1868114B9847114B1860034A1378A7
:1006900001331370002000E0012008BD700000202D
:1006A000B81B0000890500005D0900006C000020F7
:1006B0006800002055010000640000206000002058
:1006C000340000201D02000078000020AD02000070
:1006D00074000020014B18687047C0467400002069
:1006E00070B5C3090024002B04D14409E401134B65
:1006F0009C4664441F2318401E3B8340181CCB09B2
:100700000026002B04D14E09F6010C4B9C46664492
:100710001F2319401E3B8B40191C0823606155B2F2
:10072000002D01DAB16100E07161A0615200D2B226
:10073000013BDBB2002BF1D170BDC046004400414B
:10074000F0B5C3090024002B04D14409E401124B85
:100750009C4664441F2528401E3D8540CB09002649
:10076000002B04D14E09F6010B4B9C4666441F2317
:1007700019401E3B8B40191C082200206561336A1A
:100780000B405F1EBB4140001843C0B2A561013A57
:10079000D2B2002AF2D1F0BD0044004110B52A4A7D
:1007A000C223DB00936029494868022303434B605E
:1007B000274B9382111C0222CB681A42FCD0254B96
:1007C0000222FF329A60244A5A608222D2015A8061
:1007D000812252009A60214A5A60214A5A80214B54
:1007E0001B689B0E3F2B00D1203B1F4A12689205CD
:1007F000920D1E498A4200D11D4A164980204000B0
:1008000088601C4848608020C00148800E49022052
:1008100088848C8C02302043888412049B061A43FF
:10082000CA62CB6AA022D2001343CB621022CB68EB
:100830001A42FCD0074B822252009A600E4A5A603C
:100840000E4A5A8010BDC0460008004000400041DA
:100850000E060000000C004001050100020401002A
:100860001B4200002460800028608000FF0300001D
:10087000FF01000000070100040623001C430000E4
:100880000A4A136A802149010B431362084BB022C4
:1008900012011A8001225A73198801320A431A8000
:1008A00080221203034B1A607047C04600040040C8
:1008B0000030004200E100E0194B812252009A60B2
:1008C000184A5A601A1C53785BB2002BFBDB164A9D
:1008D000134B5A800422154B1A801A1C937ADB0999
:1008E000FCD1124A937ADB09FCD1114A0F4B9A8250
:1008F0001A1C937ADB09FCD10C4B59880D4A0A4328
:100900005A808022DA71198802220A431A801A1C3E
:10091000937ADB09FCD10822074B1A607047C04666
:10092000000C0040020023000442000000140040BC
:10093000E60300001040000000E100E0054A1368F3
:10094000FA2189008C4663441360FF22024B1A721D
:100950007047C0462400002000140040EFF31081CF
:1009600072B60B4A108A80B20A4B1B68127AD209FF
:10097000C018002A08D0064B1B8A064A1068FA22C3
:10098000920094466044181881F310887047C0465E
:100990000014004024000020044B054A1A6029225C
:1009A0005A60243A034B1A607047C046000000208A
:1009B000ACA3000010E000E030B5084B5C68084ACA
:1009C00000258021490206E0002C04D05460956087
:1009D00013680B42FCD00138F6D230BD0000002075
:1009E00010E000E010B5C2090023002A04D1430939
:1009F000DB01114A944663441F22024001249440C3
:100A0000012905D19C60181840300023037012E0C2
:100A1000002909D15C601818403002230370027865
:100A200002331343037006E0032904D19C601818B5
:100A300040304023037010BD0044004170B5234B8B
:100A40001B78002B3BD1224B9847204B1870214B31
:100A50001B78002B2ED1204B98471E4A10701B4A42
:100A60001278002A30D000282ED01C4B98471C4CFE
:100A7000A0621C4DAB6AC01AE0621B4EB0476060BA
:100A80001A4B9847E0601A4B98472061194B9847DA
:100A90006061B047A0630023174A1370174A1370B0
:100AA0000A4A13700B4A1370281C211C4022144B55
:100AB000984709E0054B1B78002BD6D104E0054B85
:100AC0001B78002BD1D1C6E770BDC046C200002004
:100AD000A9050000C1000020F50200005D0900002A
:100AE00080000020CC000020D5060000FD0400009E
:100AF0000905000015050000700000205A000020C4
:100B0000E50E000010B500012C4B181A010C000472
:100B10002A4A00232A4CA0472A4B1A6A023A1A6230
:100B20001A6A29498C4662441A62196A02220A43E7
:100B30001A62264B4122D6215A5401315A54A53902
:100B40007A329954224A116A80230B431362214B53
:100B50000422FF329A60204A5A60204A5A80204A72
:100B6000204B1A60191C0122CB699B081A42FBD149
:100B7000C02292021B4B5A60191C0122CB699B08B0
:100B80001A42FBD180B2174B9881191C0122CB6904
:100B90009B081A42FBD1134A116802230B431360CE
:100BA000111C0122CB699B081A42FBD10E4B0D4A46
:100BB0009A600E4A5A600E4A1A6010BD00127A00FE
:100BC000FD0E00000008004000FDFFFF0044004152
:100BD00000040040000C00400306230019430000FD
:100BE00004003140001C00420C010020050C0000F4
:100BF000550C0000086070470368187E4007C00F5E
:100C00007047C046F8B54F464646C0B48046894650
:100C1000171C0026051C08350A4C281CA047002874
:100C2000FBD043469B681B8D4A4693550136381CC2
:100C3000BE42F2DB002F00DC01200CBC904699463E
:100C4000F8BDC046F90B00000368187E0123184068
:100C50007047C046F8B54F464646C0B48046894600
:100C6000171C051C0835104E2C1C281CB0470028EA
:100C7000FAD000260C4DEFF3108372B64A46925D0F
:100C800041460A8683F31088201CA8470028FBD021
:100C90000136381CBE42EEDB002F00DC01200CBC0C
:100CA00090469946F8BDC046490C0000EFF3058315
:100CB000FCE7C04670B52E4B2E4A9A4203D02E4B0D
:100CC0002B4A9A4204D32D4B2D4A9A4210D31EE050
:100CD0002C4A294B03339B1A9B0801339B000022AB
:100CE000234824498C58845004329A42FAD1EAE7C6
:100CF000254A224B03339B1A9B0801339B00002299
:100D00001F4800211418216004329A42FAD11F4A68
:100D1000FF211F4B8B439360FD3990235B001D4ADD
:100D2000D1501D48C3780324A34302221343C37048
:100D3000C3780C26B34308210B43C370174B987B31
:100D40003025A843051C202028439873987BB04386
:100D500001439973997BA1430A439A73104A5168DE
:100D600080230B4353600F4B98470F4B9847FEE788
:100D700000000020441C000008000020200100208A
:100D800008000020040000200C00002000ED00E01E
:100D90000000000000700041005000410048004188
:100DA00000400041990E0000050E000038B50720F4
:100DB00000210C4CA0470A200121A0470820012156
:100DC000A0470C200321A047074D8023DB00AB6127
:100DD00080235B00AB6109200121A04780239B0099
:100DE000AB6138BDE5090000004400410122034B1E
:100DF0001A70FE32024B9A737047C04619010020E8
:100E00000030004270B588B0174B9847174B984791
:100E1000174B9847174B984796208001164B9847D9
:100E2000164B9847164807A9164B984701A8164B2A
:100E30009847164B984700226B465A806B469C1C7D
:100E4000134D144E238801339BB223802B6801334A
:100E50002B60B04723889BB2FA2292009342F1D9CB
:100E600000232380EEE7C046990900009D0700009B
:100E7000B9080000AD0D0000050B0000810800005E
:100E80000C010020F50B00006504000021050000A6
:100E9000280000203D0A00000E4B70B500251E1CE6
:100EA0000D4CE41AA410A54204D0AB00F3589847A7
:100EB0000135F8E700F0B2FE084B00251E1C084C77
:100EC000E41AA410A54204D0AB00F35898470135AA
:100ED000F8E770BD281C0000281C0000281C00003A
:100EE0002C1C0000002310B5934203D0CC5CC454EA
:100EF0000133F9E710BD00007047C046002B11D147
:100F0000002A0FD1002900D1002802D00021C943B6
:100F1000081C07B4024802A14018029003BDC04655
:100F2000D9FFFFFF03B4684601B5029800F04CF802
:100F3000019B9E4602B00CBC7047C046F0B54F46C0
:100F4000464605042D0C2C1CC0B41704160C3F0C8F
:100F50009946030C7C4375435F4373437D19260C0C
:100F6000AD199C46AF4203D980235B029846C44426
:100F70004B465143434324042E0C240C2D04664459
:100F80002C1959188919201C0CBC90469946F0BDA3
:100F9000F0B583B0161C1F1C0090019100F0B2FB4D
:100FA000041C0D1C221C2B1C301C391CFFF7C6FF17
:100FB000009A019B121A8B410899201C0A604B6011
:100FC000291C03B0F0BDC046F0B5141C83B01D1C35
:100FD0000090019100F08EFC221C2B1C061C0F1CA3
:100FE000FFF7ACFF009A019B121A8B410899301C45
:100FF0000A604B60391C03B0F0BDC046F0B55F46D7
:1010000056464D464446F0B4051C061C080387B0FE
:1010100099464F00030BCC0F92469B467F0D0194DF
:1010200067D06C4B9F4236D080205B46400318430C
:10103000C0006B0F1843684B83469C4600239846BC
:10104000EE00674400934B4649461D03C90F5B0001
:1010500052462D0B5B0D894600D16EE05D498B42F7
:1010600064D080205C4940038C4600210543ED009C
:10107000500F0543D20063444846FF187B1C9A4634
:10108000009B604002900B430F2B00D9ACE053480B
:101090009B00C3589F465B461D4300D082E0082357
:1010A000009300239B46023300269846CBE7029B21
:1010B00001934346022B59D1012400250026019BB0
:1010C0001C40444B00212D030A0D12052D0B154326
:1010D000434A1B0515401D436D00E4076D08254379
:1010E000301C291C07B03CBC90469946A246AB4632
:1010F000F0BD2B434ED05B46002B00D185E1584616
:1011000000F0E2FA021C2823291C9B1A161C5846E0
:10111000D940083EB0400B1CB54003439B462E1CF3
:101120000023304F0093BF1A98468CE7514629435D
:101130002ED10025002202219EE75146294323D0CB
:10114000002D00D154E1281C00F0BEFA031C282118
:101150005046C91A1A1CC8405146083A9140954059
:101160000A1C05431F480021C31A85E7032B00D141
:10117000C2E1012B00D06DE14446019B00251C40DB
:10118000E4B2002300269DE700250022012173E739
:10119000032171E70423009300239B4601330026BB
:1011A000984650E70C230093093B98464BE780256F
:1011B00000242D030026074B84E74B46AB46161C44
:1011C0000193884675E7029BAB46161C019388463F
:1011D0006FE7C046FF07000001FCFFFFDC1B0000BB
:1011E000FFFF0F800DFCFFFF330C3604360C9C46CE
:1011F000331C140C1204120C534398466346534399
:101200009946634663430193331C41466343090C8B
:101210004B445B18994505D98020400281460199CD
:1012200049440191190C039141460904090C1B041E
:101230005B1804932B0C9846331C2D04290C4B434C
:10124000604600934346654658435E43009B4D43CA
:101250001B0C9946AE194E448446B54203D98023EF
:101260005B029946CC44350C2B1C0398634484469E
:101270000593009B36041B041B0CF3189C4460462A
:10128000039058460504060C280C84465043351C30
:1012900081466046654344434846000C834672439A
:1012A00014195C44A24203D98022520293465D4441
:1012B000220CAD184A461204120C24044046A4180D
:1012C00062464A4371434643604600964646704331
:1012D0008046100C84468844E044414505D980216D
:1012E00049028C4600996144009101980399844613
:1012F000614499429B415B42994605984346844626
:101300001204120C1B049B1863449C46AB46834298
:101310009B4140460A19CC44A2428941E344CC4552
:10132000B6415C46000C8046494276425B426418F6
:10133000334398448C428941AB459B4149425B42CF
:1013400019430D1C009B4544EE187602E50D2E4313
:10135000B346049B56021E43731E9E415B46D20D4C
:10136000324366021643DB010AD501233340760877
:101370001E435B46DB071E435B465B089B465746A6
:10138000634BFB18002B5ADD720709D00F22324045
:10139000042A05D0321DB242B6417642B344161C2F
:1013A0005A46D20106D55A465A4B1A4080239346D4
:1013B000DB00FB18584A934234DD0124029B0025D0
:1013C0001C400026554B7DE680205B46000303420F
:1013D00008D0054206D105432D032D0B4C46161CA3
:1013E0004E4B6FE65D4605432D032D0B4B4B69E6D7
:1013F000504600F069F9031C2033272B00DCA6E6D9
:101400005546083885400022ACE6281C00F05CF9FF
:10141000021C2032272A00DC75E6083885400026A9
:10142000AB467DE65A46F608520716435A46012453
:101430005502029A5B052D0B5B0D144042E6384DB8
:10144000ED1B382D0ADD0124029B00251C400026DF
:10145000002337E6019B5746029391E71F2D25DCB9
:10146000304B321C9C466744BE405B46BB40371C39
:10147000EA407E1EB74113433B431E1C5B46EB40D4
:101480001D1C730709D00F233340042B05D0331DD7
:10149000B342B6417642AD191E1C2B0220D5012461
:1014A000029B00251C40002601230BE65A461E4BDA
:1014B000DB1BDA40131C202D1CD01C4A94465A46D4
:1014C0006744BA40171C3E43721E96411E430723D1
:1014D0000025334007D00F2300253340042BD6D1FD
:1014E0006B076D022D0B0124F6081E43029B1C4066
:1014F0000023E7E50027E6E780255B4601242D036E
:101500001D43019B2D0323401C1C2D0B034BD9E5D0
:10151000FF030000FFFFFFFEFE070000FF070000C3
:1015200002FCFFFF1E040000E2FBFFFF3E04000080
:1015300038B5041E16D0C50F00D04442201C00F060
:10154000C3F8174B1B1A0A2821DC021C211C153278
:1015500091400A1C0B21081AC4405B052403240B8C
:101560005B0D03E000250023002400220021101C55
:1015700024030A0D1205240B14430A4A1B051440C8
:101580001C436400ED0764082C43211C38BD0B3854
:1015900084405B052403240B5B0D0022E6E7C04674
:1015A0001E040000FFFF0F8070B50B034D00440FB9
:1015B0006D0D5B0A23436C1C6405C90FC200640DEA
:1015C000012C2ADD3B4C2C19FE2C1ADC002C35DDBD
:1015D0008001451EA841DB000343520F13435A0705
:1015E00004D00F221A40042A00D004338022D204EF
:1015F0001A4027D00134FF2C03D09B015B0AE4B2D0
:1016000001E0FF2400235B02E4055B0A23435B0047
:10161000C9075B080B43181C70BD002D06D113438E
:101620000ED100245B025B0AE4B2ECE71A43E8D077
:101630008020DB0080040343FF24D0E717340CDA5A
:1016400005230024DB08FF2CECD1002B2DD08022B9
:10165000D20313435B025B0AD5E7802416482404B7
:101660002343401B1F280DDC144CA4466544AB40AB
:101670001C1C131CAB405D1EAB41C24023431343F3
:101680000024ACE71E1C0E4C641BE640341C2028D2
:101690000DD00C4884466544AB401D1C2A43531EA4
:1016A0009A41131C2343002499E70023ABE700254C
:1016B000F4E7C04680FCFFFF9E03000082FCFFFFB2
:1016C0007E030000A2FCFFFF1C2101231B049842A3
:1016D00001D3000C10391B0A984201D3000A0839C3
:1016E0001B09984201D30009043902A2105C40187A
:1016F0007047C0460403020201010101000000001E
:1017000000000000F0B544465F4656464D46F0B432
:101710001C1C85B0002900DAA9E00F1C0021061C62
:101720008846101C191C002C00DA97E0341C3D1C64
:1017300082468946B94273D870D04946504600F077
:1017400085F98346391C301C00F080F95B46181A75
:10175000031C8346203B9C4600D59CE000230022CE
:101760005146009201936346994001915146814050
:10177000019B0091BB4200D983E000D17EE0009A3A
:10178000019B341C3D1CA41A9D416346002B00DACA
:101790009AE0002600270296039701369E400396A2
:1017A000012686400296002800D171E00099019A36
:1017B000D30799464B464E081E4357080023012283
:1017C0000CE0AF4201D1A6420AD8A41BBD412419A6
:1017D0006D410138A4185D41002806D0AF42F0D910
:1017E000013824196D410028F8D12022029E039F60
:1017F0005B46524236196F4199185AD4281CC8408A
:101800002C1C5B46DC40002968DB041C8C40231C3C
:1018100059468840021CB61A9F4103E0B0428CD959
:101820000026002741464B1E994100230091019359
:10183000009A019B002554429D41331C6340181CB3
:101840003B1C6B40191C009B019CC018614105B0FA
:101850003CBC90469946A246AB46F0BD4346DB43AE
:101860000C1C9846131C00215842A1415EE700273A
:1018700046428F4101214942884652E7B14200D891
:101880007DE70026002702960397002800D08DE709
:10189000029E039FC6E720215346091ACB4000222F
:1018A000191C0023009201934B4683400B43019384
:1018B0005CE75A4620239B1A2A1C9A40201C131CC2
:1018C0005A46D04018439BE720260027331A0026AB
:1018D000029603970127DF40039761E75B462021CB
:1018E0005D46C91A031CAC40CB40191C231C0B439A
:1018F0008EE7C046F0B545464E465746E0B4041C58
:1019000082B00D1C914698468B4262D85FD041460A
:10191000484600F09BF8291C061C201C00F096F895
:101920002023311A5B428A46C81865D44B4683404F
:101930001F1C4B468B401E1CAF4258D855D0A41BD1
:10194000BD41002800DA77E00022002300920193D5
:1019500001328240019201238B40009300293CD048
:10196000FB079846404672087B0802430126002781
:101970000CE0AB4201D1A2420AD8A41A9D4124191D
:101980006D410139A4197D41002906D0AB42F0D93F
:10199000013924196D410029F8D1202200980199BC
:1019A00053465242001969419E183AD42F1CF74001
:1019B0005346DD40002E29DB3C1CB440231C54461A
:1019C000A7403A1C801A99410090019105E082429B
:1019D0009DD900230024009301940098019902B03E
:1019E0001CBC90469946A246F0BDA342A7D900224E
:1019F000002300920193B1E720224B46521AD340B4
:101A00001A1C43468B401F1C174392E75346202461
:101A10005646E41A3B1CB540E3401C1C2B1C2343D8
:101A2000CDE7524620239B1A2A1C9A40271C131CE0
:101A30005246D7401F43BBE720230022581A0023F9
:101A4000009201930132C240019284E710B500294F
:101A500003D1FFF739FE203002E0081CFFF734FE07
:101A600010BDC046208DFFFFA1ADFFFF64CEFFFF7C
:101A70006CEFFFFFB71000004A3200002554000051
:101A800049760000B798000072BB000079DE0000C4
:101A9000D0010100762501006F490100BC6D0100F5
:101AA0005E92010058B70100AADC01005802020052
:101AB00062280200CC4E020096750200C49C02000F
:101AC00057C4020052EC0200B7140300893D030022
:101AD000CA6603007D900300A4BA030044E5030036
:101AE0005E100400F63B04000E680400AC94040091
:101AF000D1C1040081EF0400C11D0500954C050013
:101B0000007C050007AC0500AEDC0500FB0D0600FF
:101B1000F23F060098720600F4A5060009DA0600F6
:101B2000E00E07007D440700E87A070028B20700AE
:101B300044EA070044230800305D080010980800BC
:101B4000EFD30800D6100900CF4E0900E58D09003B
:101B500023CE0900980F0A004F520A0057960A0038
:101B6000BFDB0A0098220B00F36A0B00E2B40B0003
:101B70007B000C00D44D0C00039D0C0023EE0C00E8
:101B800050410D00A9960D004EEE0D0065480E0067
:101B900016A50E008E040F000A0300001C030000AF
:101BA0004E03000080030000B2030000D6030000D3
:101BB000FA0300001E040000BE050000D805000066
:101BC000FE050000120600002C0600005206000070
:101BD000660600008006000098060000E81100007C
:101BE000C6110000C6110000BA110000AE100000BE
:101BF000AE100000AE110000BA110000AE100000DF
:101C0000AE110000AE100000BA110000B2100000CA
:101C1000B2100000B2100000C8130000F8B5C046B2
:101C2000F8BC08BC9E467047DD000000F8B5C04611
:0C1C3000F8BC08BC9E467047B5000000E0
:081C3C00C8FAFF7F010000005F
:081C440080BB0000300000002D
:00000001FF
