:100000006024002001050000F9040000F90400004C
:1000100000000000000000000000000000000000E0
:10002000000000000000000000000000F9040000D3
:100030000000000000000000F9040000F9040000C6
:10004000F9040000F9040000F90400009107000021
:10005000F9040000F9040000F9040000F9040000AC
:10006000F9040000F9040000F9040000F90400009C
:10007000F9040000F9040000F9040000F90400008C
:10008000F9040000F9040000F9040000F90400007C
:10009000F90400000000000000000000F904000066
:1000A000F9040000F9040000F9040000F90400005C
:1000B0000000000010B5064C2378002B07D1054B3B
:1000C000002B02D0044800E000BF0123237010BDC4
:1000D00038040020000000005C11000008B5084B47
:1000E000002B03D00748084900E000BF0748036819
:1000F000002B00D108BD064B002BFBD09847F9E739
:10010000000000005C1100003C0400205C110000B5
:100110000000000070B5051C802252020A4B5A6193
:100120000F200D21F222094B98472C1C0635084E52
:100130000F200E21B04720700134AC42F8D180224C
:100140005202014B9A6170BD0044004199030000C6
:10015000F9030000F8B55F4656464D464446F0B4F4
:1001600081460024154F164B9846164E9625AD0035
:10017000281CB847281CB847134D80239B009B467A
:100180006B61221C5E3AD2B20F200D21C0470F20B6
:100190000E21B04782460F200E21B0475B46AB616F
:1001A00053461D0228434B46185302340C2CDDD114
:1001B0003CBC90469946A246AB46F8BD750400008B
:1001C00099030000F903000000440041F8B5071C42
:1001D000102001211E4EB0471E4C80256D02A561E6
:1001E0000D200121B0470F200121B0470E20002132
:1001F000B0470E237B70063B3B7065610F200D21DD
:100200002D22154EB0470F200D210022B047A561C9
:1002100065610F200D212C22B0477A780F200D2127
:10022000B047A56165610F200D212C22B0473A78B7
:100230000F200D21B047A56165610F200D212D22F2
:10024000B0470F200D210822B047A561F8BDC04678
:10025000A10400000044004199030000F0B54F469E
:100260004646C0B483B0061C68462D4B98476B4683
:100270005B785AB2002A07DA2A4803431B026A460F
:10028000107803439BB204E01B026A461078C3183F
:100290009BB2B3806A46D47862B2002A07DA21485A
:1002A000044324026A4690780443A4B204E0240282
:1002B0006A4690780419A4B2F4806A4655796AB205
:1002C000002A07DA174805432D026A4610790543CC
:1002D000ADB204E02D026A4610794519ADB2358100
:1002E00018B2114B98469847104B9946104A114B3B
:1002F000C847114FB847F06020B2C0470C4A0D4BB9
:10030000C847B847306128B2C047094A094BC847B7
:10031000B847706103B00CBC90469946F0BDC0462A
:100320001501000000FFFFFFA50D0000710800008F
:10033000DE718A8EE4F26F3F1D0E000070B5051C61
:10034000092001210F4CA04709200121A0470D20C1
:100350000121A0470F200121A0470E200021A04726
:10036000094C8026B60066610F200D211E22074B26
:100370009847A66196208000054B9847281D054B9D
:10038000984770BDA104000000440041990300009B
:10039000750400005501000070B5C3090024002B4E
:1003A00004D14409E401134B9C4664441F231840C4
:1003B0001E3B8340181CCB090026002B04D14E099C
:1003C000F6010C4B9C4666441F2319401E3B8B4094
:1003D000191C0823606155B2002D01DAB16100E0FB
:1003E0007161A0615200D2B2013BDBB2002BF1D1AE
:1003F00070BDC04600440041F0B5C3090024002B85
:1004000004D14409E401124B9C4664441F25284052
:100410001E3D8540CB090026002B04D14E09F60174
:100420000B4B9C4666441F2319401E3B8B40191CF6
:10043000082200206561336A0B405F1EBB4140000B
:100440001843C0B2A561013AD2B2002AF2D1F0BD80
:1004500000440041044B054A1A6029225A60243A9C
:10046000034B1A607047C04600000020ACA3000098
:1004700010E000E030B5084B5C68084A0025802198
:10048000490206E0002C04D05460956013680B42CA
:10049000FCD00138F6D230BD0000002010E000E0B2
:1004A00010B5C2090023002A04D14309DB01114A17
:1004B000944663441F22024001249440012905D13F
:1004C0009C60181840300023037012E0002909D105
:1004D0005C60181840300223037002780233134323
:1004E000037006E0032904D19C60181840304023B3
:1004F000037010BD00440041EFF30583FCE7C046E4
:1005000070B52E4B2E4A9A4203D02E4B2B4A9A425C
:1005100004D32D4B2D4A9A4210D31EE02C4A294B6E
:1005200003339B1A9B0801339B0000222348244974
:100530008C58845004329A42FAD1EAE7254A224B79
:1005400003339B1A9B0801339B0000221F480021A4
:100550001418216004329A42FAD11F4AFF211F4B1E
:100560008B439360FD3990235B001D4AD1501D4899
:10057000C3780324A34302221343C370C3780C2619
:10058000B34308210B43C370174B987B3025A84316
:10059000051C202028439873987BB043014399732E
:1005A000997BA1430A439A73104A516880230B43F5
:1005B00053600F4B98470F4B9847FEE70000002011
:1005C0005C110000380400205C0400203804002086
:1005D000040000203C04002000ED00E000000000CA
:1005E00000700041005000410048004100400041BF
:1005F000790F0000B5070000014A024B1A607047EE
:1006000040420F00080000201E49C223DB008B601F
:100610001D4843681E2293431C3A134343601B4BFF
:100620008B82CB681A42FCD0194B0222FF329A60AF
:10063000184A5A608222D2015A80812252009A605E
:10064000154A5A60154A5A800E4B02229A84144A5F
:10065000DA62DA6AA021C9000A43DA62998C0422BC
:100660000A439A84191C1022CB681A42FCD0084B0A
:10067000802292009A600B4A5A608022D2015A80EE
:100680007047C04600080040004000410E060000D0
:10069000000C004001050100020401001B420000A3
:1006A00000001E1C0007010038B5072000210C4C7B
:1006B000A0470A200121A04708200121A0470C20C3
:1006C0000321A047074D8023DB00AB6180235B0043
:1006D000AB6109200121A04780239B00AB6138BD9D
:1006E000A1040000004400410A22214B9A61191C18
:1006F000063ACB681A42FCD002221D4B1A621D4BEF
:100700000132FF329A601C4A5A601A1C53785BB25D
:10071000002BFBDB194A174B5A800422184B1A8016
:100720001A1C937ADB09FCD1154A1188A023DB003F
:100730000B431380937ADB09FCD1124A104B9A8247
:100740001A1C937ADB09FCD10D4B59880E4A0A43D7
:100750005A808022DA71198802220A431A801A1CF0
:10076000937ADB09FCD10822084B1A607047C04617
:1007700000080040000C004002002300044200007A
:1007800000140040E60300001040000000E100E01B
:10079000064A1368FA2189008C4663441360044AB0
:1007A000137A802149420B4313727047540400208E
:1007B00000140040F0B5474680B492B0214B9847F2
:1007C000214B9847214B9847214B9847214B9847FD
:1007D0000CA8214B984705A8204B98470CA8204B04
:1007E0009847002304930393029308221D4B1A6039
:1007F00000230193009300251B481C4C071CFA267C
:10080000B600436801334360EFF3108C72B6238A5D
:100810009BB20268217AC9099B18002906D0228A56
:100820003B68FA21890088464344D3188CF310882A
:100830000093009B5B1BB342E3D9009D019B0133F6
:100840000193DEE7F90500005504000009060000E9
:10085000E9060000A9060000CD0100003D030000EC
:100860005D02000000E100E054040020001400409C
:10087000F0B55F4656464D464446F0B4051C061C8E
:10088000080387B099464F00030BCC0F92469B4656
:100890007F0D019467D06C4B9F4236D080205B4621
:1008A00040031843C0006B0F1843684B83469C46B7
:1008B00000239846EE00674400934B4649461D03CB
:1008C000C90F5B0052462D0B5B0D894600D16EE0CF
:1008D0005D498B4264D080205C4940038C460021F6
:1008E0000543ED00500F0543D20063444846FF180E
:1008F0007B1C9A46009B604002900B430F2B00D953
:10090000ACE053489B00C3589F465B461D4300D054
:1009100082E00823009300239B460233002698467A
:10092000CBE7029B01934346022B59D101240025BA
:100930000026019B1C40444B00212D030A0D12058B
:100940002D0B1543434A1B0515401D436D00E4075D
:100950006D082543301C291C07B03CBC90469946C5
:10096000A246AB46F0BD2B434ED05B46002B00D1D8
:1009700085E1584600F0E2FA021C2823291C9B1A44
:10098000161C5846D940083EB0400B1CB5400343E6
:100990009B462E1C0023304F0093BF1A98468CE7CD
:1009A000514629432ED10025002202219EE75146BF
:1009B000294323D0002D00D154E1281C00F0BEFAB9
:1009C000031C28215046C91A1A1CC8405146083A2F
:1009D000914095400A1C05431F480021C31A85E732
:1009E000032B00D1C2E1012B00D06DE14446019BF5
:1009F00000251C40E4B2002300269DE700250022CC
:100A0000012173E7032171E70423009300239B4630
:100A100001330026984650E70C230093093B984683
:100A20004BE7802500242D030026074B84E74B4627
:100A3000AB46161C0193884675E7029BAB46161C15
:100A4000019388466FE7C046FF07000001FCFFFFE7
:100A5000F0100000FFFF0F800DFCFFFF330C360489
:100A6000360C9C46331C140C1204120C534398464B
:100A7000634653439946634663430193331C41469F
:100A80006343090C4B445B18994505D9802040020B
:100A90008146019949440191190C03914146090489
:100AA000090C1B045B1804932B0C9846331C2D0473
:100AB000290C4B43604600934346654658435E43CA
:100AC000009B4D431B0C9946AE194E448446B542DB
:100AD00003D980235B029946CC44350C2B1C039828
:100AE000634484460593009B36041B041B0CF318D7
:100AF0009C446046039058460504060C280C844626
:100B00005043351C81466046654344434846000CCB
:100B10008346724314195C44A24203D980225202D4
:100B200093465D44220CAD184A461204120C24046C
:100B30004046A41862464A437143464360460096C5
:100B4000464670438046100C84468844E044414544
:100B500005D9802149028C46009961440091019891
:100B600003998446614499429B415B4299460598AA
:100B7000434684461204120C1B049B1863449C4693
:100B8000AB4683429B4140460A19CC44A24289416C
:100B9000E344CC45B6415C46000C8046494276426F
:100BA0005B426418334398448C428941AB459B4176
:100BB00049425B4219430D1C009B4544EE187602E6
:100BC000E50D2E43B346049B56021E43731E9E4101
:100BD0005B46D20D324366021643DB010AD5012380
:100BE000334076081E435B46DB071E435B465B08CB
:100BF0009B465746634BFB18002B5ADD720709D002
:100C00000F223240042A05D0321DB242B64176424C
:100C1000B344161C5A46D20106D55A465A4B1A40BE
:100C200080239346DB00FB18584A934234DD0124AD
:100C3000029B00251C400026554B7DE680205B462C
:100C40000003034208D0054206D105432D032D0BB6
:100C50004C46161C4E4B6FE65D4605432D032D0B8F
:100C60004B4B69E6504600F069F9031C2033272BF3
:100C700000DCA6E65546083885400022ACE6281C74
:100C800000F05CF9021C2032272A00DC75E60838E7
:100C900085400026AB467DE65A46F60852071643C5
:100CA0005A4601245502029A5B052D0B5B0D144038
:100CB00042E6384DED1B382D0ADD0124029B00254C
:100CC0001C400026002337E6019B5746029391E71C
:100CD0001F2D25DC304B321C9C466744BE405B46D2
:100CE000BB40371CEA407E1EB74113433B431E1CEA
:100CF0005B46EB401D1C730709D00F233340042BC8
:100D000005D0331DB342B6417642AD191E1C2B02ED
:100D100020D50124029B00251C40002601230BE660
:100D20005A461E4BDB1BDA40131C202D1CD01C4ADC
:100D300094465A466744BA40171C3E43721E964179
:100D40001E4307230025334007D00F2300253340DF
:100D5000042BD6D16B076D022D0B0124F6081E4320
:100D6000029B1C400023E7E50027E6E780255B4661
:100D700001242D031D43019B2D0323401C1C2D0B1F
:100D8000034BD9E5FF030000FFFFFFFEFE07000055
:100D9000FF07000002FCFFFF1E040000E2FBFFFF54
:100DA0003E04000038B5041E16D0C50F00D04442E2
:100DB000201C00F0C3F8174B1B1A0A2821DC021C68
:100DC000211C153291400A1C0B21081AC4405B05F6
:100DD0002403240B5B0D03E00025002300240022E4
:100DE0000021101C24030A0D1205240B14430A4A87
:100DF0001B0514401C436400ED0764082C43211CB0
:100E000038BD0B3884405B052403240B5B0D0022A6
:100E1000E6E7C0461E040000FFFF0F8070B50B031D
:100E20004D00440F6D0D5B0A23436C1C6405C90F14
:100E3000C200640D012C2ADD3B4C2C19FE2C1ADC5F
:100E4000002C35DD8001451EA841DB000343520F15
:100E500013435A0704D00F221A40042A00D0043347
:100E60008022D2041A4027D00134FF2C03D09B01EA
:100E70005B0AE4B201E0FF2400235B02E4055B0AA5
:100E800023435B00C9075B080B43181C70BD002D92
:100E900006D113430ED100245B025B0AE4B2ECE7F7
:100EA0001A43E8D08020DB0080040343FF24D0E70E
:100EB00017340CDA05230024DB08FF2CECD1002BBF
:100EC0002DD08022D20313435B025B0AD5E7802436
:100ED000164824042343401B1F280DDC144CA44651
:100EE0006544AB401C1C131CAB405D1EAB41C240B3
:100EF000234313430024ACE71E1C0E4C641BE64046
:100F0000341C20280DD00C4884466544AB401D1C81
:100F10002A43531E9A41131C2343002499E70023BC
:100F2000ABE70025F4E7C04680FCFFFF9E0300000E
:100F300082FCFFFF7E030000A2FCFFFF1C210123B7
:100F40001B04984201D3000C10391B0A984201D3AC
:100F5000000A08391B09984201D30009043902A28A
:100F6000105C40187047C0460403020201010101F1
:100F7000000000000000000070B50D4E0D4D002473
:100F8000AD1BAD1005D0A300F35801349847A5421E
:100F9000F9D100F0D1F8084E084D0024AD1BAD107A
:100FA00005D0A300F35801349847A542F9D170BD8C
:100FB0004411000044110000441100004C110000D5
:100FC00008B5034B002B02D0024800F005F808BD1D
:100FD00000000000E90F000008B5011C00220020FD
:100FE000002300F01BF808BD38B5094B094CE41A82
:100FF000A41009D0084AA518AD00ED182B68013CD3
:101000009847043D002CF9D100F0A0F838BDC04647
:10101000581100005C110000FFFFFF3FF8B5444687
:101020005F4656464D469B462F4BF0B41C68A423A2
:101030005B00051CE0580E1C904600284BD043680E
:101040001F2B0DDC5C1C002D21D102339B00446062
:101050001E5000203CBC90469946A246AB46F8BDC7
:10106000224B002B3CD0C820400000E000BF0028ED
:1010700036D0A42200235200A15843600160A05042
:1010800040328350043283500124002DDDD09A0079
:1010900091468144424688214F467A50C4225200EC
:1010A0009046804442468739994012688A460A43EE
:1010B0009446424661461160842249465F4652008A
:1010C0008F50022DC1D1021C55468D32FF3211685E
:1010D0000D431560B9E7201C4D30FF30E050AEE7FE
:1010E00001204042B6E7C046341100000000000075
:1010F0005C0A00003A0A00003A0A00002E0A0000CA
:101100002209000022090000220A00002E0A000025
:1011100022090000220A0000220900002E0A000015
:101120002609000026090000260900003C0C0000EA
:101130004300000010000020F8B5C046F8BC08BC11
:101140009E467047C10F0000DD000000F8B5C046A4
:0C115000F8BC08BC9E467047B5000000CB
:10115C0080BB00003000000040420F000000000087
:10116C0000000000FC02002064030020CC030020DF
:10117C000000000000000000000000000000000063
:10118C000000000000000000000000000000000053
:10119C000000000030110000000000000000000002
:1011AC000000000000000000000000000000000033
:1011BC000000000000000000000000000000000023
:1011CC000000000000000000000000000000000013
:1011DC000000000000000000000000000000000003
:1011EC0000000000000000000000000000000000F3
:1011FC0000000000000000000000000000000000E3
:10120C0000000000000000000100000000000000D1
:10121C000E33CDAB34126DE6ECDE05000B00000096
:10122C0000000000000000000000000000000000B2
:10123C0000000000000000000000000000000000A2
:10124C000000000000000000000000000000000092
:10125C000000000000000000000000000000000082
:00000001FF
