S018000053614C416C74696D657465722D312E302E73726563A9
S1130000186F00200D0D0000050D0000050D000007
S113001000000000000000000000000000000000DC
S1130020000000000000000000000000050D0000BA
S11300300000000000000000050D0000050D000098
S1130040050D0000050D0000050D0000550E000013
S1130050050D0000050D0000050D0000050D000054
S1130060050D0000050D0000050D0000050D000044
S1130070050D0000050D0000050D0000050D000034
S1130080050D0000050D0000050D0000050D000024
S1130090050D00000000000000000000050D000038
S11300A0050D0000050D0000050D0000050D000004
S11300B00000000010B5064C2378002B07D1054B37
S11300C0002B02D0044800E000BF0123237010BDC0
S11300D0B0000020000000008479000008B5084B3F
S11300E0002B03D00748084900E000BF0748036815
S11300F0002B00D108BD064B002BFBD09847F9E735
S11301000000000084790000B4000020847900001D
S11301100000000070B5051C802252020A4B5A618F
S11301200F200D21F222094B98472C1C0635084E4E
S11301300F200E21B04720700134AC42F8D1802248
S11301405202014B9A6170BD0044004175080000E1
S1130150D5080000F0B5474680B482B0144F802320
S11301609B0098467B610F200D210022114B98477C
S11301700F200E21104CA0476B46DE1DD8710F20B6
S11301800E21A0476B469D1D98710F200E21A0479C
S11301906B465A1D58714346BB6130782B781278F0
S11301A000041B021843104302B004BC9046F0BD87
S11301B00044004175080000D5080000F8B55F460A
S11301C056464D464446F0B481460024154F164B1E
S11301D09846164E9625AD00281CB847281CB847EB
S11301E0134D80239B009B466B61221C5E3AD2B266
S11301F00F200D21C0470F200E21B04782460F204B
S11302000E21B0475B46AB6153461D0228434B4663
S1130210185302340C2CDDD13CBC90469946A246BE
S1130220AB46F8BDC90A000075080000D5080000F7
S113023000440041F0B557464E464546E0B488B008
S1130240804613889A46578893889946D48850895B
S113025013891B020A68D31A0793079AD317264EE9
S11302600021B0474902C00D0843FA23DB009C4635
S113027060440690079AD317201C0021B0478B06D0
S113028084091C438D09FB0B7A0412196B410492F7
S11302900593079AD31748460021B0474C06C20974
S11302A02243CB0900215446200412184B410292E8
S11302B00393029A039B049C059D41460868002110
S11302C0B047CE17F20A002380185941CE02420DDE
S11302D032434B15121BAB41DC17600C0021121882
S11302E04B415B04D20B1A430192019808B01CBC29
S11302F090469946A246F0BD9944000038B50D4B8E
S113030098470D4C0D4A0E4BA04700220D4B0E4D45
S1130310A8470E4A0E4B0F4DA847021C0B1C002089
S11303200D490E4DA8470E4A0E4BA0470E4B984759
S113033038BDC0464D6D0000B96000007B14AE4767
S1130340E17A843F00AA8F403D5800003CDD79E209
S1130350395BC83FF10F00000000F03FED6500007D
S11303609A999999B3BE01411D450000F0B55F46C5
S113037056464D464446F0B489B0041C081C2C2152
S1130380794FB847431C0293181C784B9847784B15
S113039098472060774B9847774D01907749A84755
S11303A02071774E01987549B047081C6421A8470D
S11303B0607101986421B047A17102982C21B8475B
S11303C0031C01305B78412B02D1403B237403E0D2
S11303D0562B01D1002323742C21634B9946984753
S11303E0051C05AE411C301C0222664FB847002391
S11303F09B46B370301C644B9A4698478046E91C70
S1130400301C0222B847AB1D04AA901D0193191C8D
S11304100422B8475A46B271301CD047061C5B48C8
S1130420424650435A4F5B49B8475B4DA847029038
S1130430322070430321B847A8475849584B98477E
S1130440011C584F0298B847574E03905749B0477C
S1130450574B9847021C642002925043A847011C42
S11304600398544B98475449B047061C0298A84730
S1130470011C301CB847061CE06001982C21C847B9
S1130480031C01305B78532B04D180231B069C464C
S11304906644E6602C21344B9847051C471C43787E
S11304A02C2B4CD005AE301C391C0322354B9846FE
S11304B0984700239B46F370301C334B994698476A
S11304C08246291D301C0222C047EF1D04AB981D33
S11304D0391C0422C0475B46B371301CC8478146AF
S11304E02A48534658432A4E2A49B0472A4DA8471A
S11304F0019032204B4658430321B047A84727496F
S1130500274B9847011C274E0198B047264B9A4623
S1130510029026499847264B9847031C6420019370
S11305205843A847011C0298224B98472249D047B8
S113053002900198A847011C0298B047A060381C9B
S11305402C21094B98474378572B05D1A368802267
S1130550120694466344A36009B03CBC9046994695
S1130560A246AB46F0BDC046192300009922000004
S1130570296E0000ED440000D9400000102700005F
S1130580E541000035230000A32200008096980076
S1130590F9410000A0860100CD5000009C53C936EB
S11305A02D4B0000C5450000BD4800000000C842B6
S11305B08D500000914D000000007042F0B585B0F0
S11305C001900C1C0E1CFF36114F211C2378242B88
S11305D018D1E27803AB1A7022795A7062799A7052
S11305E018785A789B78DDB2131C4D3B5A4253411C
S11305F0021C523A504242411A4203D0432D01D1C7
S11306000198B8470134B442DFD105B0F0BDC0460B
S11306106D030000031C064A1268002A02D1054932
S1130620034A1160024A1068C31813607047C04639
S1130630CC000020186F0020F8B5071C1020012101
S11306401E4EB0471E4C80256D02A5610D20012170
S1130650B0470F200121B0470E200021B0470E23E0
S11306607B70063B3B7065610F200D212D22154EDA
S1130670B0470F200D210022B047A56165610F200E
S11306800D212C22B0477A780F200D21B047A561A7
S113069065610F200D212C22B0473A780F200D21DF
S11306A0B047A56165610F200D212D22B0470F20B1
S11306B00D210822B047A561F8BDC046050B000016
S11306C00044004175080000F0B54F464646C0B4EA
S11306D083B0061C68462D4B98476B465B785AB22C
S11306E0002A07DA2A4803431B026A4610780343A8
S11306F09BB204E01B026A461078C3189BB2B38015
S11307006A46D47862B2002A07DA214804432402F4
S11307106A4690780443A4B204E024026A469078BE
S11307200419A4B2F4806A4655796AB2002A07DA39
S1130730174805432D026A4610790543ADB204E01B
S11307402D026A4610794519ADB2358118B2114BA4
S113075098469847104B9946104A114BC847114F79
S1130760B847F06020B2C0470C4A0D4BC847B847A1
S1130770306128B2C047094A094BC847B84770617D
S113078003B00CBC90469946F0BDC046150100006C
S113079000FFFFFF4D6D0000B9600000DE718A8E1E
S11307A0E4F26F3F296E000070B5051C0920012199
S11307B00F4CA04709200121A0470D200121A0478B
S11307C00F200121A0470E200021A047094C8026BC
S11307D0B60066610F200D211E22074B9847A661C3
S11307E096208000054B9847281D054B984770BDFF
S11307F0050B00000044004175080000C90A000010
S1130800BD01000038B5021C044C8025AD006561B3
S11308100F200D21024B9847A56138BD00440041CB
S113082075080000F8B5041C40200D4FB847AF20F0
S113083080000C4EB0470C4DA84760615020B8476B
S1130840AF208000B047A8472061201C1430211C31
S11308501031221D054B9847054B9847A061F8BD00
S113086005080000C90A0000550100003502000017
S1130870FD02000070B5C3090024002B04D1440913
S1130880E401134B9C4664441F2318401E3B8340E1
S1130890181CCB090026002B04D14E09F6010C4B81
S11308A09C4666441F2319401E3B8B40191C082399
S11308B0606155B2002D01DAB16100E07161A0619F
S11308C05200D2B2013BDBB2002BF1D170BDC04665
S11308D000440041F0B5C3090024002B04D14409AD
S11308E0E401124B9C4664441F2528401E3D85406C
S11308F0CB090026002B04D14E09F6010B4B9C4674
S113090066441F2319401E3B8B40191C08220020FB
S11309106561336A0B405F1EBB4140001843C0B29F
S1130920A561013AD2B2002AF2D1F0BD00440041DF
S1130930F0B54F464646C0B483B08046C60F464421
S11309407310019300240B4F80235B0199461E1CF6
S1130950BE610198084DA8474B467B610198A847A2
S11309604444064B9C42F3DD03B00CBC90469946CC
S1130970F0BDC04600440041C90A00009F86010042
S11309801E49C223DB008B601D4843681E2293432B
S11309901C3A134343601B4B8B82CB681A42FCD036
S11309A0194B0222FF329A60184A5A608222D201FD
S11309B05A80812252009A60154A5A60154A5A8018
S11309C00E4B02229A84144ADA62DA6AA021C90020
S11309D00A43DA62998C04220A439A84191C10226D
S11309E0CB681A42FCD0084B802252009A600B4A12
S11309F05A608022D2015A807047C04600080040E5
S1130A00004000410E060000000C004001050100FA
S1130A10020401001B42000000001E1C000701002C
S1130A20194B812252009A60184A5A601A1C537852
S1130A305BB2002BFBDB164A134B5A80154A164B4C
S1130A401A801A1C937ADB09FCD1134A937ADB09C6
S1130A50FCD1124A104B9A821A1C937ADB09FCD1FE
S1130A600D4B59880E4A0A435A808022DA7119883C
S1130A7002220A431A801A1C937ADB09FCD1082249
S1130A80084B1A607047C046000C00400200230067
S1130A90044200000405000000140040E6030000C6
S1130AA01040000000E100E0044B054A1A602922CE
S1130AB05A60243A034B1A607047C0460000002075
S1130AC0ACA3000010E000E030B5084B5C68084AB5
S1130AD000258021490206E0002C04D05460956072
S1130AE013680B42FCD00138F6D230BD0000002060
S1130AF010E000E008B50368984708BD08B54368EE
S1130B00984708BD10B5C2090023002A04D143093F
S1130B10DB01114A944663441F220240012494409D
S1130B20012905D19C60181840300023037012E09D
S1130B30002909D15C601818403002230370027840
S1130B4002331343037006E0032904D19C60181890
S1130B5040304023037010BD0044004110B5000133
S1130B602C4B181A010C00042A4A00232A4CA047D3
S1130B702A4B1A6A023A1A621A6A29498C46624452
S1130B801A62196A02220A431A62264B4122D621AA
S1130B905A5401315A54A5397A329954224A116A65
S1130BA080230B431362214B0422FF329A60204AB4
S1130BB05A60204A5A80204A204B1A60191C01228C
S1130BC0CB699B081A42FBD1C02292021B4B5A608C
S1130BD0191C0122CB699B081A42FBD180B2174B26
S1130BE09881191C0122CB699B081A42FBD1134A34
S1130BF0116802230B431360111C0122CB699B086B
S1130C001A42FBD10E4B0D4A9A600E4A5A600E4AA4
S1130C101A6010BD00127A00594400000008004018
S1130C2000FDFFFF0044004100040040000C0040B0
S1130C30030623001943000004003140001C004255
S1130C40E00000205D0C0000AD0C0000086070475F
S1130C500368187E4007C00F7047C046F8B54F467A
S1130C604646C0B480468946171C0026051C083534
S1130C700A4C281CA0470028FBD043469B681B8DC8
S1130C804A4693550136381CBE42F2DB002F00DC85
S1130C9001200CBC90469946F8BDC046510C00009A
S1130CA00368187E012318407047C046F8B54F46C4
S1130CB04646C0B480468946171C051C0835104EAC
S1130CC02C1C281CB0470028FAD000260C4DEFF34A
S1130CD0108372B64A46925D41460A8683F31088B1
S1130CE0201CA8470028FBD00136381CBE42EEDB8E
S1130CF0002F00DC01200CBC90469946F8BDC0468C
S1130D00A10C0000EFF30583FCE7C04670B52E4B41
S1130D102E4A9A4203D02E4B2B4A9A4204D32D4B8F
S1130D202D4A9A4210D31EE02C4A294B03339B1AB6
S1130D309B0801339B000022234824498C5884508B
S1130D4004329A42FAD1EAE7254A224B03339B1A2A
S1130D509B0801339B0000221F48002114182160C6
S1130D6004329A42FAD11F4AFF211F4B8B439360EE
S1130D70FD3990235B001D4AD1501D48C3780324DC
S1130D80A34302221343C370C3780C26B343082140
S1130D900B43C370174B987B3025A843051C2020B8
S1130DA028439873987BB04301439973997BA1437B
S1130DB00A439A73104A516880230B4353600F4BC4
S1130DC098470F4B9847FEE7000000208479000005
S1130DD0B0000020144F0020B000002004000020C8
S1130DE0B400002000ED00E00000000000700041AD
S1130DF0005000410048004100400041BD22000075
S1130E00750E0000014A024B1A60704740420F0001
S1130E100800002038B5072000210C4CA0470A2008
S1130E200121A04708200121A0470C200321A0474D
S1130E30074D8023DB00AB6180235B00AB6109209D
S1130E400121A04780239B00AB6138BD050B000046
S1130E5000440041054A1368FA2189008C46634422
S1130E601360FF22024B1A727047C046D000002064
S1130E7000140040F0B54F464646C0B4D9B0404BCC
S1130E809847404B9847404B9847404B9847404BB6
S1130E909847962080013F4B98473F4857A93F4BBE
S1130EA098470CA83E4B984705A83E4B98470CA87A
S1130EB03D4B984708223D4B1A600023049303934B
S1130EC002AAD37002AA9370579839493222394B37
S1130ED0984700240026384DA946384B98466B683D
S1130EE001336B600134EFF3108072B634490B8A1E
S1130EF09BB22A68097AC9099B18002908D0304B8B
S1130F001A8A4B461B68FA2189008C466344D3181D
S1130F1080F310880393039B9B1B2A4A93420ED9A8
S1130F20039E579812A9E122C047274B187052A874
S1130F3012A9264B9847C8204000254B984705A87E
S1130F40244B9847A7000B98234B9847234BF85002
S1130F500CA8154B98470F9B0193214B019AFA500B
S1130F60109B01931F4B019AFA50119A1E4BFA5091
S1130F701E4BE3185A1E93415B421C40AFE7C04628
S1130F80050E0000A90A000081090000210A0000E2
S1130F90150E00005D0B0000E00000204D0C000069
S1130FA039060000A9070000C906000000E100E0BE
S1130FB0CC740000F50A0000D0000020FD0A0000F7
S1130FC00014004010270000EC000020BD050000C4
S1130FD031090000250800005D510000703F002029
S1130FE0D02F0020F00000209010002018FCFFFFFC
S1130FF0F0B546465746C0B48FB01F1C029003910B
S1131000161C00F0A3F9041C0D1CC84B0094019598
S113101098461B785BB2013305D0301C391C00F0B4
S1131020DFFF002806D1009801990FB00CBC904650
S11310309A46F0BD0298039900F0D2FF8246002838
S113104031D1301C391C0022002303F0D7F90028C9
S1131050E9D001230493B64B04AD6B6053460022E0
S11310602B62029B039CAB60EC60B24B2E616F6100
S1131070AA61EB6143461B785BB25A1C0ED0022B6B
S11310800CD0281C00F0DAFF002800D180E02B6A85
S1131090002B03D001F00CF92B6A0360AB69EC69F7
S11310A000930194BFE7029803990022002303F000
S11310B0A5F9002822D0301C391C0022002303F09B
S11310C09DF9041E2CD001230493994B04AD6B604D
S11310D000232B62029B039CAB60EC600023002482
S11310E0AB61EC6143461B782E616F615BB2002BF0
S11310F0C7D000228F4BAA61EB61CFE7201C291CCB
S113110000F064FF8246002847D0201C291C0022DE
S1131110002303F073F9002866D10094019582E757
S1131120301C391C00F052FF002800D17BE7301C32
S1131130391C0022002303F067F9002800D172E76C
S1131140012304937A4B04AD6B602C62029B039CD5
S1131150AB60EC6043461B782E616F61002B75D148
S113116000230024AB61EC61281C00F067FF002819
S113117072D02B6A002B91D08CE700200021021C36
S11311800B1C04F05BFBA861E961022C00D078E73A
S113119001F08EF82123036079E70298039900F0A7
S11311A015FF0028B1D0301C391C00F00FFF0028B7
S11311B0ABD0291C201C00F013FF04AD002850D133
S11311C0012304935A4B28626B60029B039CAB601F
S11311D0EC6043461C782E616F61002CCDD1002356
S11311E00024AB61EC614CE70298039900F0EEFE39
S11311F000940195002800D115E7301C391C00F03B
S1131200E5FE00940195002800D10CE70423049323
S1131210474B04AD6B6000232B62029B039CAB60C5
S1131220EC6000230024AB61EC6143461B782E6123
S11312306F615BB2022B04D0281C00F0FFFE002873
S113124097D101F035F82223036092E700203A4950
S1131250A861E961022B87D101F02AF821230360F8
S113126087E703230493324B2E616F616B6053460F
S11312702B62029B039CAB60EC6043461B785BB221
S1131280002B1CD102980399E0222C4B1206AA6170
S1131290EB610022002303F0B7F8002830D1434665
S11312A01B785BB2022B05D0281C00F0C7FE002877
S11312B000D0ECE600F0FCFF22230360E7E6002206
S11312C0029803991E4BAA61EB610022002303F0EC
S11312D09BF80028E3D000221A4B301C391C04F080
S11312E0EBFE061C0F1C00F0B1FE321C3B1C03F08D
S11312F085F80028D3D100220F4BAA61EB61CEE719
S11313000022104B301C391C04F0D6FE061C0F1CA6
S113131000F09CFE321C3B1C03F070F80028BED188
S1131320E022094B1206AA61EB61B8E70C00002029
S1131330007500000000F03F0000F0FFFFFFEF47E2
S11313400000F07F0000E03FFFFFEFC7F0B5564616
S11313504D4644465F46F0B41C1C131C67008DB018
S11313607F0800930194061C0D1C80468946A24602
S11313703B4331D0614B6C0064089C4228DC25D08F
S11313809F4225DC5D4B9F4200D176E000239B46C3
S11313904B46002B00DA74E0002A2CD1574B9F42B5
S11313A000D18AE0564B9F425FD08023DB059A45EB
S11313B001D100F0D1FB534B9A451CD14B46002B75
S11313C019DB301C291C00F007FD07E000280CD0B5
S11313D04D4BE01830430AD1002049490DB03CBCC4
S11313E090469946A246AB46F0BDA742CADD47489F
S11313F000F026FEF2E7301C291C00F0E3FD0B1C74
S11314004146021C00291ED0E90F0139884659467D
S11314104046014366D03E498F4200DC88E03D49A6
S11314208F4201DC00F0E0FB3B4B9C4200DC82E39A
S11314305346002B00DC82E338483949021C0B1C5C
S113144004F03AFECAE7002C04D02D48A90089080C
S11314508142D9D15146002900DABBE3494600292B
S113146000DA6FE3101C191CB8E75346002B01DAAD
S113147000F020FC301C291CB0E7002A00D185E7CD
S1131480A6E7284B9F422ADC234B9F4200DC83E7DC
S113149025493815884201DC00F027FC234B0099CC
S11314A01B1AD940081C9840904200D074E70123CD
S11314B0194001335B1A9B466EE7134BE018064351
S11314C000D189E7144B9C4200DC75E35346002BA2
S11314D000DA34E3009B019C181C211C7EE70223E4
S11314E09B4659E7301C291C321C2B1C05F07EF846
S11314F0021C0B1C04F0A2F970E7C0460000F07F48
S11315000000F03F0000E03F000010C0387500000C
S11315100000E0410000F043FFFFEF3F9C750088AE
S11315203CE4377EFFFF3F43130400003304000014
S1131530E94900208C4209DC101C191C0022E74BED
S113154004F0BAFD021C35200C1C4042E44D211568
S1131550AC4661448A462403E24DE349240B8244A9
S113156025438C4200DC3CE3E0498C4201DC00F082
S113157021FC01218C46DE49E2448C4600240021F2
S11315806544CB009946161C2F1CDA4B301C4B4487
S11315901A685B68291C069607970892099305F058
S11315A025F8089A099B061C0F1C0698079903F056
S11315B01DFE021C0B1C0020CA4904F03FF9021C4A
S11315C00B1C301C391C0A920B9304F075FD0A1C89
S11315D0011C131C049105920022029203938023A0
S11315E06D109B051D43802300201B03EB18191964
S11315F00D1C041C02980399221C2B1C04F05CFD96
S1131600021C0B1C301C391C04F0F0FF089A099BC7
S1131610061C0F1C201C291C04F0E8FF021C0B1CD8
S11316200698079904F0E2FF021C0B1C0298039928
S113163004F042FD021C0B1C301C391C04F0D6FFC4
S11316400A9A0B9B04F038FD049A059B06900791B7
S1131650101C191C04F030FD041C0D1C221C2B1C36
S113166004F02AFDA44A061C0F1C201C291CA34BB1
S113167004F022FDA24AA34B03F0B8FD221C2B1C4C
S113168004F01AFDA04AA14B03F0B0FD221C2B1C50
S113169004F012FD9E4A9F4B03F0A8FD221C2B1C54
S11316A004F00AFD9C4A9D4B03F0A0FD221C2B1C58
S11316B004F002FD9A4A9B4B03F098FD021C0B1C9C
S11316C0301C391C04F0F8FC049A059B041C0D1C06
S11316D00298039903F08AFD069A079B04F0ECFC38
S11316E0221C2B1C03F082FD029B039C061C0F1C76
S11316F01A1C181C211C231C04F0DEFC0A1C011CEF
S1131700894B08910992111C002203F06FFD321CD1
S11317103B1C03F06BFD00240D1C02980399221C52
S11317202B1C04F0C9FC221C2B1C0290039106986C
S1131730079904F0C1FC0022069007917A4B201C03
S1131740291C04F053FF089A099B04F04FFF021C64
S11317500B1C301C391C04F049FF049A059B04F04F
S1131760ABFC021C0B1C0698079903F03FFD061CFA
S11317700F1C02980399321C3B1C03F037FD002414
S1131780E022201C1206694B0D1C04F095FC684AEB
S113179006900791674B201C291C04F08DFC029ACB
S11317A0039B04900591201C291C04F01FFF021CBC
S11317B00B1C301C391C04F019FF5F4A5B4B04F00E
S11317C07BFC021C0B1C0498059903F00FFD5B4B7A
S11317D04B441A685B6803F009FD061C50460F1C55
S11317E005F0B4FA041C0D1C06980799544B4B449D
S11317F01A685B6804920593321C3B1C03F0F6FCE8
S1131800049A059B03F0F2FC221C2B1C03F0EEFC53
S11318100020221C2B1C0290039104F0E7FE049A82
S1131820059B04F0E3FE069A079B04F0DFFE021C0E
S11318300B1C301C391C04F0D9FE049005915B4646
S11318404246013B134300D0B1E100233D4C0693D3
S11318500794009B019C0026181C211C231C321C8D
S113186004F0C4FE029A039B04F026FC049A059B30
S11318700D1C271C041C0098019904F01DFC021C7B
S11318800B1C201C291C03F0B1FC029A039B009042
S11318900191301C391C04F00FFC041C0D1C009831
S11318A001992B1C221C03F0A1FC274B824689467C
S11318B0994200DC58E1254B4B44034300D001E23C
S11318C000980199224A234B03F090FC221C061C29
S11318D00F1C2B1C40E0C046FFFF0F0000004043DC
S11318E001FCFFFF0000F03F8E98030079B60B0067
S11318F00000F0FF28750000EF4E454A287ECA3FDD
S113190065DBC9934A86CD3F01411DA96074D13F6F
S11319104D268F515555D53FFFAB6FDBB66DDB3F81
S1131920033333333333E33F0000084009C7EE3F4A
S1131930F5015B14E02F3EBEFD033ADC1875000090
S1131940087500000000F0BFFFFF8F40000070BF6B
S1131950FE822B654715973C5046494604F046FEE7
S1131960021C0B1C301C391C02F062FD4E46002880
S113197000D0A7E1E74B3615F11880235B039846A6
S11319800B41191CE448494484464F007F0DBC4474
S11319906646E248002230410E1C86434046090355
S11319A0090B08434946331CCE0FDD49C91B0841C6
S11319B0011C704241408946201C291C04F016FE7B
S11319C0041C0D1C009801992B1CB144221C03F02B
S11319D00DFC4B461B05984600200022D14B061CEB
S11319E00F1C04F069FB221C029003912B1C301C79
S11319F0391C04F0FBFD021C0B1C0098019904F037
S1131A00F5FDC94AC94B04F057FBC94A041C0D1C17
S1131A10301C391CC74B04F04FFB021C0B1C201C50
S1131A20291C03F0E3FB041C0D1C02980399221CDF
S1131A302B1C03F0DBFB029A039B061C0F1C04F017
S1131A40D5FD021C0B1C201C291C04F0CFFD321CEC
S1131A50009001913B1C301C391C04F02DFB041C2C
S1131A600D1CB54AB54B04F027FBB54AB54B04F041
S1131A70BDFD221C2B1C04F01FFBB34AB34B03F027
S1131A80B5FB221C2B1C04F017FBB14AB14B04F02C
S1131A90ADFD221C2B1C04F00FFBAF4AAF4B03F02F
S1131AA0A5FB221C2B1C04F007FB021C0B1C301C86
S1131AB0391C04F09BFD041C0D1C221C2B1C301C27
S1131AC0391C04F0F9FA8023029003910022201CAF
S1131AD0291CDB0504F08AFD021C0B1C02980399E7
S1131AE003F0ACFE009A019B041C0D1C301C391C35
S1131AF004F0E2FA009A019B03F078FB021C0B1C31
S1131B00201C291C04F072FD321C3B1C04F06EFDE9
S1131B100B1C021C9249002004F068FD43465C182B
S1131B202315002B00DC4FE1021C231C06980799A7
S1131B3004F0C2FA52E45346002B00DA7CE400209D
S1131B4000214BE487498C46594664440C4300D039
S1131B50C4E0101C191CC9E4301C291C321C2B1CA9
S1131B6004F0AAFAFFF73AFC7F4B4E0076089E4237
S1131B7000DC17E17D4B4B4403430CD1221C2B1C8E
S1131B8004F034FD021C0B1C0098019902F046FC81
S1131B90002800D1EEE606980799754A754B04F0C3
S1131BA08BFA734A734B04F087FAFFF717FC002390
S1131BB06B4C069307944CE65346002BBFDA009B0C
S1131BC0019C80221206181C9446231C6344191C91
S1131BD0FFF704FC0020624903F030FE021C0B1CDA
S1131BE03CE400240021CCE463498C42A3DD5C493D
S1131BF08C4201DDFFF71CFC101C191C0022584B01
S1131C0004F0F4FCC0225D4BD205041C0D1C04F04E
S1131C1053FA5B4A061C0F1C201C291C594B04F068
S1131C204BFA221C029003912B1C201C291C04F04B
S1131C3043FA002204900591534B201C291C04F004
S1131C403BFA021C0B1C5148514904F0CFFC221CE6
S1131C502B1C04F031FA021C0B1C00204D4904F02B
S1131C60C5FC021C0B1C0498059904F025FA4A4A89
S1131C70424B04F021FA021C0B1C0298039904F055
S1131C80B5FC041C0D1C221C2B1C301C391C03F03D
S1131C90ADFA0022101C3B1C321C0290039104F08C
S1131CA0A5FC021C0B1C201C291C04F09FFC0490A6
S1131CB00591C4E5321C2B1C0020294903F0BEFD0C
S1131CC0FFF78CFB06980799344A354B04F0F4F976
S1131CD0324A334B04F0F0F9FFF780FB5946101CED
S1131CE001296CD0191CFFF779FB002A01D0FFF7FA
S1131CF082FB3A1C091A0A41131C8B40BB4201D0D7
S1131D00FFF750FB012313400222D31A9B46FFF72F
S1131D1049FBC04602FCFFFF01FCFFFFFFFF0F0071
S1131D2013040000432EE63FEF39FAFE422EE63F4D
S1131D30396CA80C615C20BED0A4BE726937663EC3
S1131D40F16BD2C541BDBB3E2CDE25AF6A56113FB7
S1131D5093BDBE166CC1663F3E5555555555C53F9E
S1131D600000F03F000010C0FFCB904000346F3FF4
S1131D7059F3F8C21F6EA501FEFFEF3F4715F73F69
S1131D8044DF5DF80BAE543E0000D03F5555555529
S1131D905555D53F0000E03FFE822B659C750088B9
S1131DA03CE4377E0B4B9E4200DDE3E5002398467E
S1131DB0994611E680240121E402FFF7E2FB802129
S1131DC009065918FFF70AFB4A4600F0E1F9021C1C
S1131DD00B1CABE60000E03FF0B556464D464446CA
S1131DE05F46754BF0B40A1C0E1C191C83B0051C0D
S1131DF0041C3140994200D1B7E0002E00DC93E08E
S1131E00311500D1A0E06D4B1203CE188023120BC4
S1131E105B031A43F30700D577E07310520098462A
S1131E20E30FD318802216210027002564009203B3
S1131E30A818984202DC85181B1ABF18E00F5B0033
S1131E4001391B18640052080029F1D100220192C3
S1131E509446802212062020924609E0AB4247D0E5
S1131E60E10F5B0001385B186400520800281ED0A3
S1131E70614689189D42F1DA8E18B446CE0FF607F2
S1131E80A94656452ED05B1B8C42AD416D425B1B6F
S1131E90641A01995B008B469344594601380191B9
S1131EA0E10F4D465B18640052080028E0D123433B
S1131EB030D1019B5B0842497A108C466244F90791
S1131EC002D5802109060B4341460E05B1181D1C9D
S1131ED00E1C281C311C03B03CBC90469946A246FB
S1131EE0AB46F0BD6646002ECDDB6E1CB146CAE79C
S1131EF0A14208D88E18B446CE0FF607564541D0F5
S1131F0099460023C4E71D1CAAE7E30F5200D21828
S1131F10640082E7019B01333AD0019A012394467D
S1131F20134063445B08C6E773005B080343D0D0E7
S1131F300021002E33D1E20A15396405002AFAD0B3
S1131F4080235B031A4226D18020002340035200E1
S1131F5001330242FBD001252020ED1AC01A491991
S1131F60251CC5409C402A434DE72A1C331C281CD1
S1131F70311C04F0A1F82A1C331C03F037F9051CAA
S1131F800E1CA6E76646002EAFDA0023A9467FE7BB
S1131F90013700238FE7202001250023DFE72A1CD7
S1131FA0331C281C311C04F021FB021C0B1C03F005
S1131FB045FC051C0E1C8CE70000F07F01FCFFFFB4
S1131FC00000E03F49004B08191C7047034B4800D0
S1131FD09C4640086044C00F7047C0460000108013
S1131FE00A1C031C024330B50220002A00D130BD74
S1131FF080221206914216D00C4A04208C180C4AF6
S11320009442F4D90B4C0C199442F0D90A4A490071
S1132010490803209142EAD9064A00209142E6D1B8
S113202058425841E3E7002BE1D0EFE70000F0FF0E
S1132030FFFFDF7F0000F07FFFFF0F0000207047ED
S1132040002001497047C0460000F87FF0B54746BC
S113205080B44B004A4A5B0D9D1882B0071C0C1CCF
S1132060CE0F132D39DC002D59DB464F021C2F41B6
S11320703B1C0B4003439C46B84667460B1C002F91
S113208025D043465B081A1C0A4010430027002849
S113209008D0132D00D16FE099438023DB022B413C
S11320A019430C1C3849F6008E19231C34687568D2
S11320B03A1C201C291C03F099F800900191009807
S11320C00199221C2B1C04F091FA021C0B1C101CFD
S11320D0191C02B004BC9046F0BD332D0BDD0B1C63
S11320E08021021CC9008D42F1D1211C03F07EF82D
S11320F0021C0B1CEBE7254A9D1801235B42EB40B5
S11321009C460B1C6146021C0142E0D04B08034272
S1132110C8D08027FF052F4198430743C2E74C00EE
S113212064080443021C0B1C002CD0D00903090BC7
S113213001434A4211438022090B12035B0C1140F4
S11321405B04021C194310480B1CF10041180C6875
S11321504D68201C291C03F049F800900191009857
S11321600199221C2B1C04F041FA4B005B08F60772
S11321701E43021C331CAAE780273F068CE7C04697
S113218001FCFFFFFFFF0F0040750000EDFBFFFFA8
S1132190F8B5314F161C3B1C0B40041C0D1C0A1CCB
S11321A01B1520D14B005B0803431BD000222B4B93
S11321B003F082FF2A4B041C0D1C0A1C9E4222DBE6
S11321C00F403F153B1C2749363B9B198B4211DDC1
S11321D0221C2B1C2448254900F056F8224A234B84
S11321E003F06AFFF8BD22498B4222D01D499B1996
S11321F08B42EDDC002B0BDD1E491B050A4013430B
S1132200201C191CEEE71C4A1C4B03F055FFE9E7A0
S1132210191C353113DA1A4B9E42D9DC221C2B1CB3
S11322201548164900F030F8134A144B03F044FFE4
S1132230D8E7291C221C2B1C02F0D8FFD2E70D4939
S113224036330A401B051343201C191C00220D4B76
S113225003F032FFC6E7C0460000F07F00005043A1
S1132260B03CFFFFFE0700009C7500883CE4377E0D
S1132270FF070000FFFF0F8059F3F8C21F6EA5018E
S113228050C300000000903C30B54A00DB0F5208F8
S1132290DB071343191C30BD08B5002100F0A2FE72
S11322A008BD08B500210A2200F038FF08BD00006F
S11322B0014B18687047C046700000200E4B70B583
S11322C000251E1C0D4CE41AA410A54204D0AB003A
S11322D0F35898470135F8E705F040FB084B002513
S11322E01E1C084CE41AA410A54204D0AB00F358F9
S11322F098470135F8E770BD6879000068790000F7
S1132300687900006C790000031C8218934202D0A3
S113231019700133FAE77047021CC9B21378002B15
S113232003D08B4204D00132F8E7181C002900D1F5
S1132330101C7047031C30B5002A07D00C780133F9
S11323405D1E013A2C700131002CF5D19A1893428C
S113235003D0002119700133F9E730BD30B50368AB
S11323600C780133002C0AD01A78151C413D192D24
S113237000D820320131A242F2D0002001E00360F3
S1132380012030BD70B5161C0D1C01F0D1FC002ECF
S11323900BD06B226B005B0DD31A002B05DD034DB4
S11323A01C050022631903F087FE70BD0000F03F96
S11323B00023F0B5A3B01E93002600270B1C039046
S11323C0069119921D931D9B1A780D2A05D8092A86
S11323D014D2002A00D1C3E112E02B2A06D02D2A00
S11323E002D0202A0CD109E0012200E000220D9243
S11323F05A1C1D925B78002B04D1B1E10133E1E753
S113240000230D9300221D9D0A922B78302B5DD161
S11324106B78582B01D0782B4CD11EAB00930D9BBD
S1132420039801931DA9C24A1FAB00F0CEFE0724F6
S11324300490044001D100F0A7FD062C05D100232F
S113244001351D950D9300F09FFD1E9A002A07D0BB
S113245020A8352101F060FD03981E9901F0C9F907
S11324601F9B062C1CD8201C01F02CFE040A071408
S1132470170A040000273E1C12E0209E219F0FE053
S1132480AC4A21999B18AC4A1B050A401343209E71
S11324901F1C05E0A94F002602E00126A84F764242
S11324A0049B1B0701D400F06FFD80231B061F4310
S11324B000F06AFD1D9B5A1C1D925B78302BF9D0ED
S11324C0002B01D100F060FD01230A931D9B0C93A6
S11324D000230593079304931D9C23781A1C303A18
S11324E00893D3B2092B12D804990A23082904DCCF
S11324F007994B43D318079303E005994B43D3182B
S11325000593049B0134013304931D94E4E7039879
S113251001F02AF90568039801F026F9006801F032
S1132520ABFD291C021C201C01F0ADFD051E05D0CD
S11325300020089B049C011C08905AE0039801F0B9
S113254013F9006801F098FD1D9B049A18181D905A
S11325500378101E41D1302B05D11D9B01305A1C2C
S11325601D925B78F7E71A1C313A082A3DD8011C02
S11325700020041C1D9A0C92303B421C002B26D0D8
S11325808918221C001982420FD00132541E082CD3
S113259004DC0A24079D65430795F4E7102AF2DC5E
S11325A00A24059D65430595EDE7541C082A06DCBD
S11325B00A2207984243D3180793002207E0002217
S11325C0102C04DC0A20059D6843C31805931D9B49
S11325D0581C1D905B78101C02E0281C291C049CCC
S11325E01A1C303A092AC7D901E00024211C01220F
S11325F0089220221D1C95430022452D57D1231CEF
S11326000A9D03432B43934200D1A9E01D9B0693EB
S113261001331D93069B5B782B2B06D02D2B01D009
S1132620099208E00123099300E00992069B023312
S11326301D93069B9B781A1C303A092A34D8302BF8
S113264004D11D9B5A1C1D925B78F8E731256D421D
S1132650AC469C4465460022082D28D8303B0B9399
S11326601D9B0E9330256D42AC461D9B5A1C1D923A
S11326705B789C446546092D06D80A220B9D6A4363
S1132680D318303B0B93EDE70E9D521B151E2D4ABC
S11326909446082D03DC0B9A624500DD6246099DD1
S11326A0002D04D0524202E0069A1D920022002C12
S11326B061D10A9A104301D000F066FC089A002AFE
S11326C04ED14E2B1CD002DC492B05D048E0692B9F
S11326D002D06E2B14D043E01DA81B49FFF73EFE29
S11326E000283DD01D9B1DA8013B18491D93FFF7F1
S11326F035FE002802D11D9B01331D930F4F2CE0A2
S11327001DA81349FFF72AFE002829D01D9B1B781A
S1132710282B21D11DA80F4920AA00F08CFF0528E1
S11327201AD1219B054A209E1A43171C00F02CFC49
S1132730A075000033040000FFFFEFFF0000F07FEE
S1132740FFFFFF7F1F4E000052750000557500000B
S11327505B75000060750000924F002600F014FCC9
S1132760069B1D9300230D93199B002B01D000F0B1
S11327700EFC00F017FC531A0993049B002B00D1A4
S11327800494251E102D00DD1025079804F01AFB73
S1132790061C0F1C092D15DD2B1C834A093BDB008D
S11327A0D3181A685B6803F087FC061C05980F1C95
S11327B004F008FB021C0B1C301C391C02F016FD33
S11327C0061C0F1C0F2C37DC099B002B00D1DBE30C
S11327D024DD162B07DC7449DA008A181068516866
S11327E03B1C321C15E02523099A1B1B9A4223DC4F
S11327F00F226D4D141BE300EB1818685968321C46
S11328003B1C03F059FC099B1C1BE4002D192A688E
S11328106B6803F051FC061C0F1CB5E3099B1633CF
S11328200ADB099B301CDA005F4B391C9A1A536887
S1132830126803F003F8EEE7099B651B5D19002D90
S113284059DD0F232B400AD0574ADB00D3181868F0
S11328505968321C3B1C03F02FFC061C0F1C0F2371
S11328609D4300D1B0E02633FF339D420EDD0023AB
S1132870049305930B93089322230026039A4B4F4A
S113288013600B9BB34200D06AE37DE30023301C4A
S1132890391C2D110593012D0EDDEB0707D5059B82
S11328A0DA00434BD3181A685B6803F005FC059BF8
S11328B06D1001330593EEE7061C3E4BCF18059BC4
S11328C0DA003B4B9B1818685968321C3B1C03F018
S11328D0F3FB364B0F1C0B403749061C8B42C6D802
S11328E036498B4203D90126354F76426CE0D42316
S11328F09B04FF1868E0002D66D00F236D422B4027
S11329000AD0294ADB00D318301C1A685B68391CCA
S113291002F094FF061C0F1C2D1155D01F2D05DD50
S11329200023049305930B93089318E10023069363
S1132930EB0601D56A230693391C301C214E002D69
S113294008DDEB0703D53268736803F0B5FB6D103F
S11329500836F4E7069B061C0F1C002B19D06B22CB
S11329604B005B0D081CD31A002B12DD1F2B0CDD52
S11329700026342B02DDDC27BF040AE00122203BC1
S113298052429A401040071C03E0012252429A40EE
S11329901640301C391C0022002301F02FFD0028B2
S11329A0BED113E00000F8FF207700000000F07FA4
S11329B0E87700000000B0FC0000A07C0000907CE0
S11329C0FFFFEF7F7875000000230693079B0398B1
S11329D000930C99049A231C00F060FF0B900028CC
S11329E000D144E7099B099A5B42D2171340139321
S11329F00023049305930B9B0398596800F0C1FED0
S1132A000890002800D137E70B9B0B991B690C3108
S1132A109A1C92000C30079300F0AAFE1FAB00939F
S1132A2020AB01930398321C3B1C0E960F9701F0C8
S1132A30F5F91E90002800D11EE70398012100F04B
S1132A40B7FF0590002800D116E70023099A0A93DE
S1132A50934200DA0A921F9B002B00DA89E0139A52
S1132A600A9CD518069A20999B1A36225B18521A8A
S1132A70C84901208B4200DB85E0C91A521A1F297C
S1132A807BDC8840002318901293AB180793069BB5
S1132A90A418E418079BAB4200DD2B1CA34200DD05
S1132AA0231C002B04DD079AE41AD21A0792ED1AAC
S1132AB0139B002B6BD1079B002B00DD80E00A9B4E
S1132AC0002B00D086E0002C00DD8DE0002D00DD21
S1132AD094E003981E99089A01F0BFF80490002826
S1132AE000D1C9E60022C3680599C2600C9301F0C5
S1132AF099F8002800DB91E00C9B002B00D01AE22F
S1132B00002E00D017E23B0300D014E2D622A24BE1
S1132B10D2043B40934200D80DE2049B5B690793C7
S1132B20002B75D004990398012201F029F8059926
S1132B30049001F077F8002800DCFCE1069A964B3B
S1132B40002A00D19AE01A1CD6213A40C9048A42CC
S1132B5000DD93E0DC239B049A4200DDEEE12223B6
S1132B60039A002613600B9B0027002B00D0F7E18B
S1132B700AE20A9A139DD41A74E78849CB1A011CF5
S1132B809940129101E00023129318907DE71A1CDA
S1132B900398059900F0A2FF0590031E00D16BE68F
S1132BA00398191C1E9A00F00CFF0C90002800D109
S1132BB062E603981E9900F01CFE0C9B1E937AE7B4
S1132BC003981E99079A00F0DBFF1E90002800D09E
S1132BD075E751E6039808990A9A00F07FFF089078
S1132BE0002800D06FE747E603980899221C00F0FC
S1132BF0C7FF0890002800D068E73DE603980599D0
S1132C002A1C00F0BDFF0590002800D061E733E6E0
S1132C10049B1B690793012B84DC8CE1002864D19D
S1132C200C9A3B03002A24D05D4A391C1B0B9342A7
S1132C302DD1069A0138341C031C002A0AD0D4254D
S1132C40554AED043A40AA4204D86C33120D9A1A3C
S1132C50031C93409C421AD1524B994202D1631CEB
S1132C6000D109E64C4B0026194080235B03CF18A2
S1132C7061E1002B0BD1002E09D15FE701264A4AFE
S1132C803B409B18464A76421A43171C53E1129B59
S1132C90002B03D03B4200D14DE103E0189B3342AB
S1132CA000D148E10C9B301C391C069A002B0AD039
S1132CB0FFF768FB021C0B1C0E980F9902F096FAA2
S1132CC0061C0F1C37E1FFF75DFB021C0B1C0E9862
S1132CD00F9903F08BFC00220023061C0F1C01F04B
S1132CE08DFB002800D03AE725E10498059901F00E
S1132CF0E9F880230022DB05041C0D1C01F08EFB87
S1132D00002836D00C9B002B02D00024274D0BE06A
S1132D10002E02D13B0305D10BE0012E02D1002F7E
S1132D2000D11CE70024224D002307931F4B0A9374
S1132D3048E0201C291C00221C4B01F065FB0028E4
S1132D4008D1201C291C00221A4B03F0B5F9079066
S1132D500A9103E00C9B0793164B0A9380221206F8
S1132D609446079B1A930A9B63441B931A9C1B9DCE
S1132D7028E0104B201C291C002203F09DF90C9B19
S1132D8007900A91002B17D180231B06CB181490AF
S1132D90159315E003FCFFFF0000F07FE3FBFFFF4A
S1132DA0FFFF0F00FFFFEF7F0000F0FF0000F03F88
S1132DB00000F0BF0000E03F079A0A9B14921593AD
S1132DC0149C159D7A4B3B401293129A794B9A426C
S1132DD02BD10E9A0F9B10921193774B301CFF1836
S1132DE0391C00F0A5FF021C0B1C201C291C03F03D
S1132DF063F9021C0B1C301C391C02F0F7F96C4BF4
S1132E006E4A061C0B4093420BD96D4B119A9A42A1
S1132E1003D1109B013300D12EE50126684F764281
S1132E2078E0D4239B04CF1840E0069B002B2BD0E2
S1132E30D423129ADB049A4226D807980A99614A45
S1132E40614B01F0EBFA002819D007980A9901F0B8
S1132E5065FB002800D1013003F0B4FF0C9B079000
S1132E600A91002B05D180231B06CB1816901793CB
S1132E7003E0079A0A9B16921793169C179DD62374
S1132E80129ADB04EB189D1A0E980F9900F050FF6C
S1132E90021C0B1C201C291C03F00EF9021C0B1C29
S1132EA00E980F9902F0A2F9061C0F1C069B0E97B0
S1132EB0002B2FD13E4B129A3B409A422AD10A99B9
S1132EC0079803F00DFF03F041FF0B1C021C0A9945
S1132ED0079803F08BFB0C9B041C0D1C002B04D1E6
S1132EE0002E02D10E9B1B030ED0201C291C374A36
S1132EF0374B01F089FA002832D1201C291C354AAD
S1132F00354B01F095FA03E0304A344B01F07CFA7A
S1132F10002825D103981E9900F06BFC03980899AA
S1132F2000F067FC0398059900F063FC039804998A
S1132F3000F05FFC5FE5069B002B11D0284B301C92
S1132F40119300231093391C109A119B03F0B4F8C9
S1132F50061C0F1E04D1002802D12223039A1360F9
S1132F6003981E9900F045FC0398089900F041FC71
S1132F700398059900F03DFC03980B9900F039FC87
S1132F800398049900F035FC199B002B02D0199B7F
S1132F901D9A1A600D9B002B04D080231B06321C43
S1132FA0FB1801E0321C3B1C101C191C23B0F0BDA3
S1132FB00000F07F0000E07F0000B0FCFFFF9F7C7A
S1132FC0FFFFEF7F0000C0FFFFFFDF419535A094B6
S1132FD0FFFFDF3F35E5AF350000E03FFFFFCF3FA8
S1132FE00000503908B5031C0A1C03490868191C61
S1132FF0FFF7DEF908BDC04670000020F0B51E1CC6
S1133000444B87B01B68059002930B1C03910192FB
S11330101C78029A5D1C121950780822104001D0C5
S11330202B1CF5E72D2C04D19D1C5C780123009307
S113303004E000902B2C01D15C789D1C002E02D062
S1133040102E0AD160E0302C5CD120222B789343DF
S1133050582B52D110266C780235009F311C7B1EF0
S11330609F412D4BFF18381C01F0BCF8381C04910B
S1133070311C01F031F80022071C131C02990919B4
S11330804978480701D5303C07E00320084017D0B1
S11330903721012800D02031641AB44210DA511CBF
S11330A00BD0BB4207D802D1049A944203DC734389
S11330B00122E31801E0012252422C780135DDE7B8
S11330C0181C511C0BD10098059A431E9841124BB1
S11330D0C01822231360019B002B0AD117E000992A
S11330E0002900D05842019B002B10D0039B002ADA
S11330F000D06B1E019A136009E03024002EACD17D
S11331000826AAE70A26A8E7302CA6D19DE707B02F
S1133110F0BDC04674000020FFFFFF7F38B5051CDA
S11331200C1C131C034A291C1068221CFFF766FFA1
S113313038BDC04670000020F0B5061C0569143681
S11331404A11341CAA4225DA1F23AD00920019400B
S11331507519B218331C002916D0131C04CB202770
S1133160CA40B4467F1A6446AB4208D21C68BC40CD
S11331702243644604C404CBA446CA40F3E7226055
S1133180002A07D0043405E01C1CAA4202D202CA59
S113319002C3F9E7A31B9B10036100D14361F0BD97
S11331A0031C303B092B01D820380BE0031C613B86
S11331B0052B01D8473805E0021C413A0023052AB3
S11331C001D82738C3B2181C7047F0B58DB00991E7
S11331D002920A93059000F0C7FA0368181C07933B
S11331E000F04AFF079B04901B18013B1B780B93CC
S11331F0099B19688A1C01920198531A0078023BB2
S113320001323028F7D00893FFF7CAFF061E20D1F9
S113321001980799049A00F036FF00283CD1019BDD
S1133220049A9C182078FFF7BBFF002837D001943C
S1133230019B1878302803D1019B01330193F7E7F0
S1133240FFF7AEFF4342434103930123261C089337
S113325002E000231E1C0393019C2078FFF7A0FFCB
S1133260002801D00134F8E7201C0799049A00F0E3
S11332700AFF00280BD1002E0BD1049BE618341C46
S11332802078FFF78DFF002801D00134F8E7371EBE
S113329008D0361BB70005E0019C371C00E0071C72
S11332A0012303932378502B01D0702B28D163780A
S11332B02B2B07D02D2B03D00023651C069304E091
S11332C0012300E000230693A51C2878FFF768FF7C
S11332D0431EDBB2182B13D810380135061C28788E
S11332E0FFF75EFF431EDBB2182B03D80A235E43AD
S11332F03018F1E7069B002B00D07642BF1900E09E
S1133300251C099B1D60039B002B06D00020089BF5
S1133310834200D07BE1063079E1019B0399E31AF3
S1133320013B072B02DD01315B10FAE7059800F041
S113333028FA031C0026051C1433039308930696ED
S1133340019B9C422AD9631E09930B9A1B789342D2
S113335009D0069B202B14D1089B1E600026043341
S1133360089306960DE0099B049A9C1A019B01346C
S11333709C42EED3201C079900F085FE0028DFD084
S1133380E7E7099B1878FFF70BFF0F231840069B0C
S1133390099C9840043306430693D1E7089C039B99
S11333A040C4E41AA4102C61301C00F0B7FA029B4C
S11333B064011B68261A01939E4225DDF61A281C17
S11333C0311C00F0BFFD0024A04217D01F2301349C
S11333D0201C721E13409840031C5111039889004D
S11333E0095819420AD0A24201DC022406E0B11EA7
S11333F0281C00F0A7FD0028F7D00324281C311C4A
S1133400FFF79AFEBF190EE0019B00249E420ADAE0
S11334109E1B291C0598321C00F0B2FB031C051CE2
S11334201433BF1B0393029B9B6804939F4208DDE4
S11334300598291C00F0DDF90023129AA3201360DB
S1133440E5E0029B5E68B7425ADA019BF61B9E4296
S113345032DB029BDB68022B1ED0032B20D0012B16
S113346021D1019B9E421ED1012B0DDC029B6220C7
S11334705B680193019A0A9B1A600123039A2B61EA
S11334801360129B1D60C2E00199281C013900F0F1
S113349059FD0028EAD106E0139B002BE6D002E098
S11334A0139B002BE2D10598291C00F0A2F90023FC
S11334B0129A50201360AAE0771E002C07D1002F27
S11334C006DD281C391C00F03DFD041C00E001242D
S11334D01F237A111F401E3BBB401F1C039B9200FD
S11334E0D3583B4201D002231C43019B311C9B1B3C
S11334F0281C0193FFF720FE029B02265F6800E070
S11335000126002C7ED0029BDB68022B0BD0032B00
S11335100DD0012B74D1A20772D5039A12681443FB
S11335201C4207D16CE00123139A9B1A1393139B3B
S1133530002B65D02C69A30003932B1C039A14332E
S113354099181A68501C02D001321A6021E0002236
S113355004C39942F5D8AB689C4212DB6B680598AA
S1133560591C00F00EF9291C2B6904909A1C0C318B
S113357092000C3000F0FCF8291C059800F039F991
S1133580049D2B695A1C2A61012204339B00EB1809
S11335905A602B1C1433022E11D1029A019912681D
S11335A0013A91422AD14A111F2101989200014007
S11335B00120041C8C40D35823421FD00CE02A69FC
S11335C0A2420BDD281C0121FFF7B6FD029B013747
S11335D09B689F4200DD2BE701260FE01F24019A20
S11335E001262240141E09D0039A9B18043B186834
S11335F000F094F920210C1BA042E3DB202300E01F
S113360010231E43301C129B1D600A9B1F600DB0CB
S1133610F0BD082370B520259A1A9200AD1A4368AC
S113362006681C1CAC40D34034430460436004303F
S11336308842F4D370BDF0B589B000920A6800994D
S113364053119B00CB1802931F231A400790059235
S113365002D0029B04330293029B00251E1F371CD9
S1133660341C079B35601B68069503930195039BE7
S1133670013303931B780493002B3BD00498FFF78A
S11336808FFD002822D1049B202B17D8069B019A7A
S11336909342ECDABC4206D2072D04DC201C391C10
S11336A02A1CFFF7B6FF009B08259C42DFD90025A2
S11336B0019B271F3D6006933C1CD8E7049B292BE4
S11336C04CD1039B079A0133136013E0019B01352E
S11336D001330193082D06DD009B9C42C7D90023CA
S11336E00125043C236023681A010F23184010436A
S11336F02060BCE7019B002B30D0BC4206D2072DD2
S113370004DC201C391C2A1CFFF783FF009B9C420D
S11337100AD9043302CC1A1F1160A642F9D200223E
S113372004C39E42FBD20EE0059B002B0BD020224B
S11337300599029B521A01214942D1400A1C043BBB
S113374019680A401A603368002B09D1009B9E4215
S113375002D10123336003E0043EF4E7042000E0D7
S1133760052009B0F0BD0000004870477800002033
S1133770002310B5934203D0CC5CC4540133F9E761
S113378010BD70B5466A041C0D1C002E07D1102014
S113379000F08EFC6062466086600660C660666A01
S11337A0F368002B09D0626AAB00D268D31818689A
S11337B000280ED002681A6017E0201C0421212280
S11337C000F0E1FB636AF060DB68002BEBD10020C2
S11337D00EE001210E1CAE40721D9200201C00F070
S11337E0D2FB0028F3D04560866000230361C360E8
S11337F070BD70B5456A061C0C1C002D07D1102045
S113380000F056FC7062456085600560C560002C60
S113381007D0726A6368D2689B00D3181A68226062
S11338201C6070BDF7B51E1C14239C46071C0C1CA1
S113383000200D698C44634619881B6851431B0C96
S1133840534389190E0CF31889B21E0C1B045B1820
S11338506146013008C18C46A842ECDB002E1BD027
S1133860A3689D4212DB6368381C591CFFF789FF6B
S1133870211C236901909A1C0C3192000C30FFF733
S113388077FF211C381CFFF7B4FF019C2B1D9B0004
S1133890E31801355E602561201CFEBDF7B5061CEA
S11338A0181C0C1C083009210193151C00F0A4FC01
S11338B001230021984202DD5B000131FAE7301C4C
S11338C0FFF75FFF089B011C436101230361092D7E
S11338D012DD231C09331F1C009364193B78301C30
S11338E0303B0A22FFF79EFF0137011CA742F5D1A6
S11338F0009B5C19083C01E009250A342F1C019B3C
S11339009F4209DA631BDB5D301C303B0A22FFF760
S113391089FF0137011CF2E7081CFEBD0022031CCD
S1133920010C914201D103041032190E01D1083265
S11339301B02190F01D104321B01990F01D102326C
S11339409B00101C002B03DB20205B0000D5501CC7
S113395070470722036810B5011C1A400CD00124DB
S11339600020234223D10222134203D0E340201C2F
S11339700B601CE09B0818E098B2002801D11022CB
S11339801B0CD8B2002801D108321B0A180701D138
S113399004321B09980701D102329B08D80704D4CA
S11339A05B082020002B02D00132101C0B6010BDDC
S11339B010B50C1C0121FFF7E4FE012344610361EF
S11339C010BDF0B50B69141C126989B00D1C93422B
S11339D001DA251C0C1C2F692669AA68BB196968C1
S11339E00093934200DD0131FFF7CBFE011C009BE5
S11339F01431844698000B1C0818834202D200221A
S1133A0004C3FAE71435BF00EB191434B600049369
S1133A10A31902950693069B9C4256D223880393CE
S1133A20002B22D00E1C0027029B0193019B039DB7
S1133A3004CB059601933388079393B26B43079D98
S1133A40120CEB183568DB192F0C039D6A43BA1866
S1133A501F0CD219170C9BB21204134308C6019A07
S1133A60049B9A42E2D3059B5F6023681B0C01937D
S1133A7021D000220D1C0B68029F03923E88019AFC
S1133A809BB256432A680595120CB218039E9219EC
S1133A90160433432B6008CF019E1B0C7343AE887E
S1133AA0120C9B199B181A0C0392049A0435BA42FF
S1133AB0E4D8059A536004340431ACE7043803684D
S1133AC0002B05D1009B013B0093009B002BF5DCF0
S1133AD063466046009A1A6109B0F0BD0323F7B546
S1133AE01340051C0E1C141C002B07D0224A013B5A
S1133AF09B009A580023FFF795FE061CA310019320
S1133B0037D06C6A002C07D1102000F0D1FA68621B
S1133B10446084600460C4606F6ABC68002C10D187
S1133B20281C1649FFF744FF0023B860041C0360F7
S1133B3007E0019B5B1001931BD0206800280FD085
S1133B40041C019BDB07F4D5311C221C281CFFF745
S1133B5038FF071C311C281CFFF74BFE3E1CE8E70E
S1133B60281C211C221CFFF72CFF0023206003606B
S1133B70E6E7301CFEBDC04610780000710200006C
S1133B80F0B50C1C171C2369551185B0EB18019373
S1133B90013300934968A3680290009A9A4202DDB7
S1133BA001315B00F9E70298FFF7EBFD021C061CEC
S1133BB000231432AB4204DA002099005050013340
S1133BC0F8E7EB43DB171D40231CAD0055192269B0
S1133BD0143392009A1894461F22174014D00132CD
S1133BE0D21B039200221968281CB9400A4304C559
S1133BF004CB0399CA409C45F5D84260002A07D0FB
S1133C00019B0233009303E004CB04C59C45FBD81D
S1133C10009B0298013B3361211CFFF7EAFD301C35
S1133C2005B0F0BD03690A6910B59B1A041C181E7F
S1133C3012D1930014341431E218C918043A043927
S1133C4013680868834204D083429B4101201843CF
S1133C5002E0A242F2D8002010BDF0B5071C85B0E6
S1133C60081C0C1C111C151CFFF7DCFF061E07D1D9
S1133C70381C311CFFF785FD01234661036155E0C3
S1133C8000230193984204DA231C2C1C1D1C0123DD
S1133C900193381C6168FFF774FD019B26692F1C92
S1133CA0C3601434B300E318021C02932B6900258B
S1133CB014379B00FB180393143208CC69469C46C6
S1133CC008CF0432009363468B808B885D19009B78
S1133CD09BB2EB1A65460193009B2D0C190C019BBA
S1133CE0691A1D14131F9C466B4649199B880D14B1
S1133CF009040B4361460B60039B9F42DDD3029989
S1133D00131C8C420BD208CC99B249190D141B0C0C
S1133D10EB181D1489B21B040B4308C2EFE7043BE4
S1133D201A68002A01D1013EF9E7066105B0F0BD29
S1133D300F4B10B519400F4BC918002902DD0022A2
S1133D400B1C11E04942091500220023132904DC4D
S1133D50802000030841031C06E00120322902DC14
S1133D603324611A8840021C101C191C10BDC04663
S1133D700000F07F0000C0FCF7B5061C0369143690
S1133D809B00F3181D1F2C680F1C201C0193FFF7C8
S1133D90C5FD20231B1A3B601F490A2813DC0B2393
S1133DA0271C1B1ADF4039439C460B1C0021B542DB
S1133DB002D901990839096865461530E9408440FB
S1133DC021430A1C24E00027B54202D9019D083D85
S1133DD02F680B235B429C4684446346002B14D01B
S1133DE02B23181A63469C4021433C1CC4402143A6
S1133DF00B1C0024B54201D9043D2C68C440614623
S1133E00201C8F403843021C02E021430B1C3A1C47
S1133E10101C191C03B0F0BD0000F03FF7B51D1CC9
S1133E200121089F141CFFF7ACFC2B036D00061C3A
S1133E301B0B6D0D02D08022520313430193002CFF
S1133E4018D068460094FFF784FD009C002809D030
S1133E502023019A191A131C8B40C2402343736117
S1133E60019200E07461019CB461631E9C410134C1
S1133E70346107E001A8FFF76CFD0124019B346164
S1133E8073612030002D06D00B4BED1835232D180F
S1133E903D60181A0BE0094BC018094B3860E31851
S1133EA09B00F3185869FFF739FD6401201A099B38
S1133EB01860301CFEBDC046CDFBFFFFCEFBFFFFEC
S1133EC0FFFFFF3FF0B587B00E1C04A9071CFFF7E6
S1133ED053FF041C0D1C301C05A900940195FFF729
S1133EE04BFF049B059A3F699A1A33690290039128
S1133EF0FB1A5B01D318002B03DD1B055B1901932F
S1133F0002E01B05CB1A039300980199029A039BC4
S1133F1001F094FC07B0F0BD131C013910B5491130
S1133F201269013189001433920041189A1893429E
S1133F3002D210CB10C0FAE7884202D2002308C094
S1133F40FAE710BD30B5041C026914344B119342D6
S1133F500CDC0CDA1F22114009D09A0015590120FB
S1133F602A1CCA408A40AA420CD100E0131C9B00C0
S1133F70E318A34205D9043B1A68002AF9D00120AA
S1133F8000E0002030BD4A4338B5111C141C00F079
S1133F9009F8051E03D00021221CFEF7B5F9281CE0
S1133FA038BD0000032370B5CC1C9C430834051CA9
S1133FB00C2C01D20C2405E0002C03DA0C23002085
S1133FC02B6042E08C42F9D3204A1368101C191C60
S1133FD0002913D00A68121B0DD40B2A02D90A60D7
S1133FE08B181FE08B4202D15A6802601BE04A68BA
S1133FF05A600B1C17E00B1C4968E9E7144E336840
S1134000002B03D1281C00F025F83060281C211C4B
S113401000F020F8031C421CD0D00322C61C964397
S113402086420AD11C60181C07210B301A1D8843D4
S1134030821A0AD05142995007E0311A281C00F024
S113404009F8431CBAD0331CECE770BDDC00002037
S1134050D800002038B50023064C051C081C23603A
S1134060FCF7D8FA431C03D12368002B00D02B6043
S113407038BDC046104F00200023C25C0133002A23
S1134080FBD1581E7047002330B59A420DD0013A37
S1134090C45CCD5CAC4202D1934202D1251C631BAB
S11340A003E00133002CF3D1F8E7181C30BD000005
S11340B008B5034B011C1868FFF774FF08BDC04620
S11340C07000002002B4714649084900095C4900A7
S11340D08E4402BC7047C046002243088B4274D30E
S11340E003098B425FD3030A8B4244D3030B8B42F5
S11340F028D3030C8B420DD3FF22090212BA030CFE
S11341008B4202D31212090265D0030B8B4219D3DE
S113411000E0090AC30B8B4201D3CB03C01A5241FE
S1134120830B8B4201D38B03C01A5241430B8B4246
S113413001D34B03C01A5241030B8B4201D30B032F
S1134140C01A5241C30A8B4201D3CB02C01A524156
S1134150830A8B4201D38B02C01A5241430A8B4219
S113416001D34B02C01A5241030A8B4201D30B0202
S1134170C01A5241CDD2C3098B4201D3CB01C01A1C
S1134180524183098B4201D38B01C01A5241430926
S11341908B4201D34B01C01A524103098B4201D314
S11341A00B01C01A5241C3088B4201D3CB00C01A81
S11341B0524183088B4201D38B00C01A52414308F9
S11341C08B4201D34B00C01A5241411A00D201461E
S11341D0524110467047FFE701B5002000F0FCF89B
S11341E002BDC0460029F7D003B5FFF775FF0EBC2A
S11341F04243891A1847C04603460B437FD4002222
S113420043088B4274D303098B425FD3030A8B4266
S113421044D3030B8B4228D3030C8B420DD3FF22D0
S1134220090212BA030C8B4202D31212090265D09E
S1134230030B8B4219D300E0090AC30B8B4201D351
S1134240CB03C01A5241830B8B4201D38B03C01A98
S11342505241430B8B4201D34B03C01A5241030B0F
S11342608B4201D30B03C01A5241C30A8B4201D3C0
S1134270CB02C01A5241830A8B4201D38B02C01A6B
S11342805241430A8B4201D34B02C01A5241030AE2
S11342908B4201D30B02C01A5241CDD2C3098B42C7
S11342A001D3CB01C01A524183098B4201D38B0144
S11342B0C01A524143098B4201D34B01C01A5241E7
S11342C003098B4201D30B01C01A5241C3088B422C
S11342D001D3CB00C01A524183088B4201D38B0017
S11342E0C01A524143088B4201D34B00C01A5241B9
S11342F0411A00D201465241104670475DE0CA0F90
S113430000D04942031000D34042534000229C464F
S113431003098B422DD3030A8B4212D3FC22890159
S113432012BA030A8B420CD3890192118B4208D32F
S1134330890192118B4204D389013AD0921100E091
S11343408909C3098B4201D3CB01C01A52418309A5
S11343508B4201D38B01C01A524143098B4201D3D2
S11343604B01C01A524103098B4201D30B01C01AFD
S11343705241C3088B4201D3CB00C01A5241830877
S11343808B4201D38B00C01A5241D9D243088B42CD
S113439001D34B00C01A5241411A00D20146634670
S11343A052415B10104601D34042002B00D54942D4
S11343B0704763465B1000D3404201B5002000F013
S11343C00BF802BD0029F8D003B5FFF715FF0EBCAA
S11343D04243891A1847C0467047C0468446101C99
S11343E062468C46191C634600E0C0461FB501F0C6
S11343F0FDFD002801D40021C8421FBD10B501F005
S113440041FD4042013010BD10B501F0EFFD002820
S113441001DB002010BD012010BDC04610B501F025
S1134420E5FD002801DD002010BD012010BDC046BF
S113443010B501F06BFD002801DC002010BD012047
S113444010BDC04610B501F061FD002801DA00205E
S113445010BD012010BDC046002B11D1002A0FD180
S1134460002900D1002802D00021C943081C07B448
S1134470024802A14018029003BDC0465DFFFFFF41
S113448003B4684601B5029800F082F8019B9E4689
S113449002B00CBC7047C046F0B54F464646050412
S11344A02D0C2C1CC0B41704160C3F0C9946030C9D
S11344B07C4375435F4373437D19260CAD199C46B9
S11344C0AF4203D980235B029846C4444B46514310
S11344D0434324042E0C240C2D0466442C1959182F
S11344E08919201C0CBC90469946F0BD9E2110B53C
S11344F0C905041C02F058FD002803D1201C00F05B
S1134500C5FD10BD9E21201CC90500F041FC00F032
S1134510BDFD80231B069C466044F2E738B50022AB
S11345200C4B041C0D1CFFF78DFF002804D1201C2C
S1134530291C02F0D5FB38BD064B0022201C291C87
S113454002F054F802F0CCFB80231B069C46604426
S1134550F1E7C0460000E041F0B583B0161C1F1C13
S11345600090019102F048FD041C0D1C221C2B1C20
S1134570301C391CFFF790FF009A019B121A8B41E3
S11345800899201C0A604B60291C03B0F0BDC0468A
S1134590F0B5141C83B01D1C0090019102F024FEA0
S11345A0221C2B1C061C0F1CFFF776FF009A019B94
S11345B0121A8B410899301C0A604B60391C03B0F5
S11345C0F0BDC046F8B54A00430244004E02C50F90
S11345D0240E281C9B09120EC90FB7098D4240D026
S11345E0A01A002800DC84E0002A1CD1002F5CD132
S11345F05A0704D00F221A40042A00D00433802220
S1134600D2041A40281C002A24D00134FF2C00D1E3
S11346107BE09B015B0AE4B25B02E4055B0A234393
S1134620C0071843F8BDFF2CE2D08022D204174300
S113463001261B2808DC391C20223E1CC140101A0C
S11346408640771EBE410E439B1B5A0133D4281C5F
S11346505A07CFD1DB08FF2C1ED05B025B0AE4B201
S1134660DAE7A11A002957DD002A3AD0FF2CBFD07F
S11346708022D204174301261B2972DD9B195A019B
S1134680E5D50134FF2C00D187E001218A4A194085
S113469013405B080B43ABE7002B36D08022D203D8
S11346A013435B025B0AFF24B6E7013800283FD1BD
S11346B0DB1B5A01CBD59B019E09301C02F07EFC0A
S11346C005388640844223DC001B1F24321C431C13
S11346D0201ADA408640131C741EA641002433437A
S11346E086E7002F00D183E70139002950D1DB1977
S11346F0C5E7002820D1621CD2B2012A5EDDDE1B90
S1134700720128D5FE1A0D1CD7E7FF24002383E786
S1134710694B241A33406BE7002958D1621CD1B28B
S113472001293CDDFF2A37D0FB185B08141C5FE726
S1134730FF2C00D07CE75BE7002C1ED0FF2A23D09F
S11347408024E404404223431B285BDD0123FB1A3D
S1134750141C0D1CADE7002EAFD100230020002453
S113476078E73A1CCA40944620223E1C511A8E40D7
S11347706246771EBE41164380E7002B3ED0C043FD
S11347800028E4D0FF2ADFD13B1CFF240D1C2FE7B7
S1134790FF2C00D06FE72BE7FF2400235AE7002CFF
S11347A05AD1002B7FD0002F00D121E7DB195A0109
S11347B000D44CE7404A0134134019E7002C15D1CA
S11347C0002B2FD1002F5DD03B1C0D1C10E7002CBB
S11347D021D1002B53D0C943002904D0FF2A4BD048
S11347E01B2957DD0123DB19141C48E7002B22D1B8
S11347F0002F4AD03B1C0D1CFF24F9E63B1C141C63
S11348000D1CF5E61D1C2024C540201A8340581EAB
S113481083412B439BE7FF2A2ED08024E4044942A2
S11348202343DDE7002F00D1E2E6DA1B50013CD53B
S1134830FB1A0D1CDCE6FF24002F00D1D8E68022F1
S1134840DB08D203134204D0FE08164201D1331C04
S11348500D1CDB00FF24CBE6002B0DD0FF24002F22
S113486000D1C5E68022DB08D2031342F1D0FE0852
S11348701642EED1331CECE73B1CFF24B8E63B1C8C
S1134880141CB5E6231C0020E4E6802300209B04CE
S1134890FF24DFE61E1C2024CE40611A8B40591EE3
S11348A08B4133439FE73B1CA2E6131E00D0CEE6A8
S11348B000230020CEE6C046FFFFFFFBF0B55646BE
S11348C04D465F464446F0B443024500C70F83B0EB
S11348D08A465C0A2E0EB94641D0FF2E26D080238C
S11348E01B042343DC00002398469B467F3E53462B
S11348F05B025D0A53465A00DB0F120E9A4639D00A
S1134900FF2A33D080231B042B43DD0000237F3A8E
S11349105146B21A46467940081C01921E430F2E96
S113492000D976E07E4AB6009659B746002C30D1BD
S113493008239846063B9B46D9E780230021DB03E6
S1134940FF245B02E4055B0AC90723430B43181CDD
S113495003B03CBC90469946A246AB46F0BD002C41
S113496028D104239846033B9B46C0E7002D1FD162
S1134970022302E0002D11D10123B21A504646460B
S1134980784001921E430F2E27D86649B6008959F4
S11349908F460C239846093B9B46A8E7281C02F047
S11349A00DFB7622431F52429D40121A0023AFE7AB
S11349B00323ADE7201C02F001FB431F9C40762338
S11349C05B421E1A002398469B4690E70025D14679
S11349D09B465B464846022B6FD10121FF240140D0
S11349E00023AEE77E23019A5B429B1A1B2B6DDDED
S11349F001214B46194000240023A2E78023DB0356
S1134A001C4249D18023DB0323435B025B0A391C2C
S1134A1096E763016D01AB4237D389461A20012121
S1134A205B1B01241E1C49005B00002E01DBAB4212
S1134A3001D35B1B214301380028F3D1581E834165
S1134A400B431D1C019C7F34002CCBDD6B0704D071
S1134A500F232B40042B00D004352B0104D5019ADD
S1134A60314B8032141C1D40FE2C07DD4B460121C6
S1134A70FF241940002364E7251CAAE701214A46C4
S1134A80AB015B0AE4B211405BE7019A8946013A43
S1134A9001921B200021C4E71D4207D023435B027F
S1134AA05B0A391C4CE700256302ABD58023DB038A
S1134AB02B435B025B0A514642E7032B25D0012BB3
S1134AC0C0D101210024014000233AE7291CD94028
S1134AD02B1C019A9E3293405D1EAB410B435A0737
S1134AE004D00F221A40042A00D004335A0105D5F9
S1134AF04B46012101241940002322E701214A46A3
S1134B009B015B0A114000241BE7802301214A46D4
S1134B10DB032B435B020A405B0A111C10E7C0460F
S1134B201C7800005C780000FFFFFFF7F0B55F46DB
S1134B3056464D464446F0B445024600C40F83B081
S1134B400F1C6D0A360EA34645D0FF2E25D08023B8
S1134B501B041D4300239A46ED007F3E01937B0214
S1134B605B0A98467800FB0F000E994640D0FF2858
S1134B7038D0802342461B041343DB0098460023AD
S1134B807F384A46019F30186240411C1F430F2F53
S1134B9069D87D4EBF00F659B746002D45D108238C
S1134BA00193063B9A46DAE793465346022B2FD1EC
S1134BB05B46012400251C40FF236D02DB056D0AC2
S1134BC0E4071D432543281C03B03CBC904699468A
S1134BD0A246AB46F0BD002D2CD104230193033B28
S1134BE09A46BCE743465A4253410322D31AC8E7C4
S1134BF042460123002AC4D0404602F0DFF942466F
S1134C00431F9A4076235B42181A90460023B8E764
S1134C10032B00D1ADE0012B00D08CE05B46544661
S1134C201C40E4B200230025C7E70C230193093B91
S1134C309A4694E7281C02F0C1F97626431F9D404A
S1134C4000237642361A01939A4688E78025002489
S1134C50ED03FF23B1E74546CB469A46A5E7454613
S1134C6093469A46A1E743462C041B0C9C46230C0E
S1134C70444626041C1C360C2F0C7443351C664613
S1134C807D4373437743EB18260C9E19B54203D931
S1134C9080235B029C46674424043304240C1B19C0
S1134CA09D016C1EA5419B0E360C2B43BD19AD0115
S1134CB01D432B0104D5012368081D400543081C2E
S1134CC0031C7F33002B2CDD690704D00F212940FE
S1134CD0042900D00435290103D52C4B1D40031CA5
S1134CE08033FE2B17DD0124FF231440002564E7E5
S1134CF08020C003054209D04346034206D14546FD
S1134D0005436D026D0A4C46FF2356E705436D02C9
S1134D106D0AFF2351E70124AD016D0ADBB2144093
S1134D204BE77E235B421B1A1B2B07DD0124002368
S1134D301440002541E7081C5A46C1E79E30291C4F
S1134D408540D940681E85410D436B0704D00F236D
S1134D502B40042B00D004356B0104D5012401231E
S1134D601440002529E70124AD016D0A14400023F5
S1134D7023E78023DB031D4301245B466D022340AC
S1134D801C1C6D0AFF2318E79C780000FFFFFFF747
S1134D90F8B54A00430244004D02C00F240E061C1D
S1134DA09B09120EC90FAD09FF2A00D175E0012736
S1134DB07940884250D0A01A002800DC8FE0002AF5
S1134DC01ED1002D00D075E05A0704D00F221A40DE
S1134DD0042A00D0043380220120D2041A40304037
S1134DE0002A32D00134FF2C00D184E09B015B0AFD
S1134DF0E4B25B02E4055B0A2343C0071843F8BD31
S1134E00FF2CE1D08022D20415431B287ADD012532
S1134E105B1B5A015DD59B019F09381C02F0CEF83B
S1134E2005388740844269DC001B1F243A1C431C5C
S1134E30201ADA408740131C7C1EA74100243B4300
S1134E40C2E7131E45D100230020DB08FF2C28D025
S1134E505B025B0AE4B2CCE7A11A00295BDD002AFD
S1134E602ED0FF2CB0D08022D20415431B2974DC31
S1134E702F1C2022CF40511A8D40691E8D413D4385
S1134E805B195A0125D50134FF2C74D001217E4AC7
S1134E90194013405B080B4396E7002D00D088E7C8
S1134EA085E7002B27D08022D20313435B025B0AE1
S1134EB0FF249EE701380028AAD0FF2CA5D183E760
S1134EC0002D00D180E701390029D9D0FF2CCDD1A4
S1134ED07AE75A0700D079E701203040B5E7002887
S1134EE025D1621CD2B2012A55DD5F1B7A012DD572
S1134EF0EF1A0E1C91E7FF2400237AE7624B241A71
S1134F003B4061E7291C2022C140101A8540681EDD
S1134F1085410D437CE7002946D1621CD1B20129A9
S1134F202BDDFF2A26D0EB185B08141C4CE7002C61
S1134F3015D0FF2A1AD08024E404404223431B28BE
S1134F404DDD0123EB1A141C0E1C62E7002F00D068
S1134F5063E700230020002477E7012590E7002B76
S1134F6039D0C0430028EDD0FF2AE8D12B1CFF2400
S1134F700E1C29E7FF24002367E7002C5AD1002BDD
S1134F807FD0002D00D11FE75B195A01A1D53E4AFD
S1134F900134134018E7002C15D1002B2FD1002D1C
S1134FA05ED02B1C0E1C0FE7002C21D1002B54D0FB
S1134FB0C943002904D0FF2A4CD01B2958DD012302
S1134FC05B19141C5DE7002B23D1002D4BD02B1C47
S1134FD00E1CFF24F8E62B1C141C0E1CF4E61E1CED
S1134FE02024C640201A8340581E83413343A9E736
S1134FF0FF2A2FD08024E40449422343DDE7002D17
S113500000D1E1E65A1B500100D41AE7EB1A0E1C3A
S1135010DAE6FF24002D00D1D6E68022DB08D20395
S1135020134204D0ED08154201D12B1C0E1CDB00E9
S1135030FF24C9E6002B0DD0FF24002D00D1C3E6C8
S11350408022DB08D2031342F1D0ED081542EED1E1
S11350502B1CECE72B1CFF24B6E62B1C141CB3E61C
S1135060231C0020F1E6802300209B04FF24ECE6AF
S11350701F1C2024CF40611A8B40591E8B413B4397
S11350809EE72B1CA0E6C046FFFFFFFB4202510A2D
S11350904200C30F120E00207E2A0DDD9D2A0CDC77
S11350A0802000040143952A0ADC9620821AD1400C
S11350B00A1C58424240D0187047034A9818FBE72C
S11350C0963A91400A1CF4E7FFFFFF7F70B5041E77
S11350D039D0C50F00D04442201C01F06FFF9E233D
S11350E0261C1B1A962B07DC082801DD083884408F
S11350F06402640AD8B21EE0992B0ADD0522211C41
S1135100121AD1400A1C011C1B318E40711E8E41A3
S11351101643052801DD421F96400F4C34407207A8
S113512004D00F221640042E00D0043462010ED4A1
S1135130A401640AD8B26402C005640AED070443FA
S11351402C43201C70BD002500200024F3E7024BF3
S11351501C409F231B1AEBE7FFFFFFFB10B5041E47
S113516035D001F02BFF9E21091A962909DC082865
S113517030DD021C231C083A93405B025B0AC8B270
S113518020E099290CDD0522231C121AD3401A1C95
S1135190031C1B339C40231C5C1EA34113431C1C97
S11351A0052801DD431F9C400F4B2340620704D0B8
S11351B00F221440042C00D004335A010ED49B0156
S11351C05B0AC8B25B025B0AC005184310BD00202D
S11351D00023F7E763025B0AC8B2F3E79F21024AA0
S11351E0091A1340EBE7C046FFFFFFFBF0B5454645
S11351F057464E4694464C000A03C90FE0B488460D
S11352000E1C1903470FC500480A6146490F0143A4
S11352106046520A1743C0005A00640D520DDB0F5A
S11352208446984500D1A7E0A01A002800DC01E1DB
S1135230002A3DD163460B4300D0D4E06B0700D174
S113524088E00F232B40042B00D183E02A1DAA42BF
S1135250AD4180236D427F191B043B404646151C1B
S1135260002B00D17CE0CC4B01349C4200D1FDE00A
S11352703A1CCA4BED081A40500764055202054314
S1135280120B640D002112030B0D1B056405120B98
S11352901A436308C24CF60714401C4364006408B4
S11352A03443281C211C1CBC90469946A246F0BDE0
S11352B0B94B9C42C2D080231B041943382800DD1B
S11352C0ECE01F2800DD21E120220E1C6346121AA7
S11352D09640C340334366469640321C561EB24144
S11352E013430A1CC240EB1A9D42B6411D1CBA1A54
S11352F07642971B3B0200D497E07A02560A002EAE
S113530000D1B6E0301C01F059FE031C083B1F2BF2
S113531000DDB7E09E40371C28262A1C361AF240CE
S1135320161C9D403E439C4200DDB2E01C1B621CE7
S11353301F2A00DDD8E01F23291C1C1B331CA54099
S1135340A340D1406C1EA541D64019430D43371CE0
S1135350002473E780231B043B40464600D082E7C9
S11353608D4BED0878070543FA089C4232D01203AE
S11353706405120B640D85E7A31A002B00DC94E08E
S1135380002A3CD0844A944200D157E78022120478
S11353901143382B00DC05E163461943481E814163
S11353A00022C8B24019A8429B41051CD2195B4295
S11353B0D7183B0239D5784B01349C4200D14CE1DB
S11353C00120764A6B083A4028401843D507054324
S11353D0570833E72B1C134348D080231B031A437D
S11353E01203120B4EE70138002878D16346EE1AF7
S11353F0B5429B417A1A5B42D71A351C7AE7021CE4
S11354000A4300D11AE7013B002B00D0F2E0401917
S1135410A8429B41CA195B42D718051CC9E7131C53
S1135420334300D118E1171C351C46466B0700D0E6
S113543007E795E700287AD1621C5205520D012A2C
S113544000DCFBE06246AA1A9542B6419146781AFE
S11354507242861A320200D493E06246551BAC4570
S11354608041CF1B40423E1A984648E7002200255F
S113547008E7281C01F0A2FD2030031C083B1F2B69
S113548000DC47E7283885402E1C00259C4200DCC0
S11354904CE7424AE41A1640371CCFE663461943E8
S11354A04B1E99410022CBB21DE7002B00D0F2E045
S11354B0601C43055B0D012B00DCA4E0364B9842D5
S11354C000D121E163465C19AC429B41CF195B4298
S11354D0FA186408D50725435708041CAEE62E4B7A
S11354E09C4200D0EAE6A9E6211C331C1F39CB40BC
S11354F0191C202A00D182E03F231C1BA6403543FF
S11355006E1EB54100270D4300248EE7031C0E1CBC
S1135510203BDE40202874D040231B1A99400B1CEA
S113552062461343591E8B4100223343DBE6002CB1
S113553050D0194CA24200D1A8E080242404404257
S11355402743382800DDD9E01F2800DD39E1202475
S11355503E1C241AA640B0462E1CA146C640444612
S113556026434C46A5406C1EA541C74035436046C2
S1135570451BCF1BAC45894149427F1A141C9846F0
S1135580B8E64B464D46334300D0B8E60026002724
S113559000240025E4E6C046FF070000FFFF7FFF6C
S11355A0FFFF0F801F2B5BDC2022081CD21A9040C7
S11355B0814660469246D8404A4610438146524648
S11355C060469040021C501E8241484610430A1C0B
S11355D0DA40E7E63C1C2C4358D0C043002851D1A4
S11355E06046451BAC458041CF1B40423F1A141C0A
S11355F098467FE68F4A944200D0CAE61EE600260B
S11356007DE700238CE73B1C2B43002C00D0BDE03E
S1135610002B00D1F5E063460B4300D10EE6634650
S11356205B19AB428041CA19404217183A0200D4B0
S1135630FCE0814A1D1C17400134FFE53A1C2A4353
S1135640002C51D1002A00D085E062460A4303D0E1
S11356500F1C65469846F1E50026002700257FE6E5
S1135660181C0A1C2038C240202B00D1A7E040207F
S1135670C01A8140081C63461843411E88411043E8
S113568000228FE66B4CA24200D05AE70F1C6546FD
S1135690141C9846D2E5002C3AD1381C284371D00A
S11356A0DB43002B18D0634882426BD0382B00DDDB
S11356B09DE01F2B00DDA7E020203C1CC01A844085
S11356C0A1462C1C8246DC40484604435046854093
S11356D0681E8541DF402543654465459B417F182D
S11356E05B42FF18141C64E6002A19D162460A437F
S11356F077D00F1C654698464E4C9FE53D436F1E80
S1135700BD410027EDB232E7041C0027002527E63F
S11357104848824236D0802000045B420743C5E7F4
S113572062460A4349D08024ED087807FA08240326
S11357302843224209D0CE08264206D162464F07AA
S1135740381CD20810439846321CD200470F174326
S1135750C500384C72E562460A4300D16EE56246E4
S1135760AE1AB5429241781A5242821A100200D4FB
S113577055E66246551BAC458041CA1B4042171A88
S113578098465BE50F1C6546141C57E5002B34D086
S113579063460B4311D08024ED087807FA082403EC
S11357A028432242D1D0CB082342CED162464F07B0
S11357B0381CD20810431A1CC7E71E4C3EE50020D3
S11357C059E7041C3E1C203CE640341C20282BD006
S11357D04026301A87403D436F1EBD4100272543B4
S11357E0C5E680270026FF03124C0025B8E53D439B
S11357F06F1EBD410027EDB26EE70F1C65460D4CD0
S11358001CE50F1C654619E51C1C381C203CE040B7
S1135810041C202B0CD04020C31A9F403D436F1E14
S1135820BD410027254357E70027D4E71D1CFCE5AD
S11358300027F3E7FF070000FFFF7FFFF0B55F4697
S113584056464D464446F0B40F0387B098464D0083
S11358503B0BCC0F061C924681469B466D0D019472
S11358606BD0664B9D4235D080275B467F031F4338
S1135870F3009946624BFF00400F9C460743002308
S1135880BB46002665440093424617035000D20FDE
S113589053463F0B400D904600D172E0574A904268
S11358A067D080235B031F435346554A5B0FFF00B9
S11358B01F43944653460021DB0060444246624045
S11358C092462D1A0E430F2E00D9A1E04D48B60082
S11358D0805987465B461E4300D076E000239B46F2
S11358E09946023308260093CEE799464346BB46C1
S11358F001930091009B022B6BD1019B9A460021DE
S113590053460122002789461A403C4B00213F039D
S11359100C0D24053F0B27433B4C1B0527401F431D
S11359207F00D2077F0817434846391C07B03CBCA8
S113593090469946A246AB46F0BD03433ED05B4633
S1135940002B00D19CE1584601F038FB2823311C80
S11359501B1A021C5F46D940083A97400B1C96401C
S11359603B439B46B1460023284D00262D1A009345
S11359708AE7524603213A43A0D10027002302219B
S11359809CE752463A4315D0002F00D185E1381CDC
S113599001F014FB021C28215046891A131CC8402C
S11359A05146083B99409F400B1C07431748002170
S11359B0801A83E70027002301217FE700239B4609
S11359C099460133042600935EE703230C260093D3
S11359D05AE7032B00D13CE2012B00D0BFE11A1C93
S11359E0019B1A4000210023002789468EE70023EB
S11359F08027994600223F03004B87E7FF070000FA
S1135A0001FCFFFFDC780000FFFF0F800DFCFFFFAF
S1135A10BB4500D951E100D14CE14A460392002232
S1135A205C469046013D180E3F0238431B02019329
S1135A30030C994603041B0C4946061C201C1F1C1E
S1135A400093FEF749FB021C7A4302904946201C4E
S1135A50171CFEF7C7FB039B09041B0C19438F4259
S1135A600CD9029B8919013B8E4200D952E18F4225
S1135A7000D84FE1029B8919023B0293CC1B201CE6
S1135A804946FEF729FB009F834647434946201CAD
S1135A90FEF7A8FB039A0B041404240C23439F422F
S1135AA00DD95A469B19013A9E4200D930E19F42D2
S1135AB000D82DE10222524294469B19E344029AF3
S1135AC0DB1B17045A463A439346019C170C220CDD
S1135AD0101C04925A4611042204120C141C090CC2
S1135AE07C4305924A43414347436118100C09180B
S1135AF08C4203D980204002844667440C0C120473
S1135B000804120C3C198118A34200D2E5E000D12C
S1135B10DFE01F1B43465C1AA04592415242BF1A64
S1135B20B74200D10EE1381C4946FEF7D5FA009B76
S1135B30029043434946381C9846FEF753FB230C16
S1135B400F041F43B8450CD9029BBF19013BBE4249
S1135B5000D9FBE0B84500D8F8E0029BBF19023B2E
S1135B6002934346FF1A4946381CFEF7B5FA009BD8
S1135B70039043434946381C9846FEF733FB2404FC
S1135B800904240C214388450CD9039B8919013B42
S1135B908E4200D9DCE0884500D8D9E0039B8919FE
S1135BA0023B03934346C91A029B039A1B04059CB8
S1135BB01A43100C13049146221C049F1B0C5A43D5
S1135BC044437B437843E318170CDB199C4203D905
S1135BD080246402A44660441C0C12041B04120CAE
S1135BE000199B18814200D296E000D1FCE04A469D
S1135BF001231A4391469B4BEB18002B00DC99E0E0
S1135C004A4652070AD00F2249460A40042A05D0C0
S1135C100431494592418946524293445A46D2013D
S1135C2006D55A46904B1A4080239346DB00EB1866
S1135C308E4A934200DD62E64A465946D208490735
S1135C4011435A4689465702514601225B053F0BD0
S1135C505B0D0A405AE680205A460003024208D0EF
S1135C60074206D107433F0399463F0B4246804B08
S1135C704CE65F4607433F033F0B221C7C4B45E643
S1135C8001F09CF9031C2030272800DC5EE6083B69
S1135C909E400023B346994665E6504601F08EF9CE
S1135CA0021C2032272A00DC75E657460838874054
S1135CB000237BE6994500D2AFE65A46594654087C
S1135CC04A46C8075208024303924A46D2079046FE
S1135CD0A9E60027884500D31CE7019F5A46BC4625
S1135CE0E044B845BF417F42BF19FF18013ABE42A4
