:100000007024002005070000FD060000FD0600002A
:1000100000000000000000000000000000000000E0
:10002000000000000000000000000000FD060000CD
:100030000000000000000000FD060000FD060000BA
:10004000FD060000FD060000FD060000FD060000A4
:10005000FD060000FD060000FD060000FD06000094
:10006000FD060000FD060000FD060000FD06000084
:10007000FD060000FD060000FD060000FD06000074
:10008000FD060000FD060000FD060000FD06000064
:10009000FD0600000000000000000000FD0600005A
:1000A000FD060000FD060000FD060000FD06000044
:1000B0000000000010B5064C2378002B07D1054B3B
:1000C000002B02D0044800E000BF0123237010BDC4
:1000D0003804002000000000E013000008B5084BC1
:1000E000002B03D00748084900E000BF0748036819
:1000F000002B00D108BD064B002BFBD09847F9E739
:1001000000000000E01300003C040020E0130000A9
:100110000000000070B5041C0D1CC378D909002232
:10012000002904D15A09D2010F498C4662441F218B
:100130000B401E3999405161201C31210B4EB047B4
:10014000201C291CB047E378D9090022002904D1DA
:100150005A09D20104498C4662441F210B401E39C2
:100160009940916170BDC04600440041C504000043
:1001700070B5041CC378D9090022002904D15A099A
:10018000D20112498C4662441F210B401E3999400E
:100190005161201CB2210E4B9847201C0D4EB047D8
:1001A000051C201CB047E378D9090022002904D19E
:1001B0005A09D20105498C4662441F210B401E3961
:1001C000994091612D02281800B270BD0044004191
:1001D000C50400005905000070B5041CC378D90996
:1001E0000022002904D15A09D20112498C466244E6
:1001F0001F210B401E3999405161201CB4210E4B28
:100200009847201C0D4EB047051C201CB047E378D2
:10021000D9090022002904D15A09D20105498C4686
:1002200062441F210B401E39994091612D0228180C
:1002300000B270BD00440041C50400005905000033
:1002400070B5041CC378D9090022002904D15A09C9
:10025000D20112498C4662441F210B401E3999403D
:100260005161201CB6210E4B9847201C0D4EB04703
:10027000051C201CB047E378D9090022002904D1CD
:100280005A09D20105498C4662441F210B401E3990
:10029000994091612D02281800B270BD00440041C0
:1002A000C50400005905000030B583B0041CC378B4
:1002B000D9090022002904D15A09D2012D498C46BE
:1002C00062441F210B401E3999405161201CF221CC
:1002D000294B9847201C294DA8476B46D871201CF4
:1002E000A8476B469871201CA8476B465871201C84
:1002F000A84701AB1870201CA8476B46D870201C7B
:10030000A8476B469870E378D9090022002904D1E8
:100310005A09D20117498C4662441F210B401E39ED
:10032000994091616B4607331B78154A13801388F7
:100330006946063109781B02CB189BB213806B46C5
:1003400005331B780F4A1380138801A909781B0213
:10035000CB189BB213806B4603331B780A4A138079
:1003600013886946023109781B02CB189BB21380AF
:1003700003B030BD00440041C50400005905000031
:100380005C040020580400205A04002010B5064BDD
:10039000188880B2054B9847054A064B064CA04783
:1003A000064B984700B210BD5C04002049110000C4
:1003B000FCA9F1D24D62703FA90B0000DD100000D6
:1003C00010B5064B188880B2054B9847054A064B76
:1003D000064CA047064B984700B210BD58040020B9
:1003E00049110000FCA9F1D24D62703FA90B000039
:1003F000DD10000010B5064B188880B2054B9847F9
:10040000054A064B064CA047064B984700B210BD64
:100410005A04002049110000FCA9F1D24D62703F3E
:10042000A90B0000DD100000F8B54F464646C0B4E9
:10043000041C00251E4B98461E4F1F4E2B1C5E3B76
:10044000DBB2994696204000C047E378D9090022E4
:10045000002904D15A09D20118498C4662441F214F
:100460000B401E3999405161201C4946B847201C59
:10047000B0478146201CB047E378D9090022002903
:1004800004D15A09D2010D498C4662441F210B4008
:100490001E39994091614B461B021818084B58535E
:1004A00002350C2DCAD10CBC90469946F8BDC04609
:1004B0004D060000C504000059050000004400413D
:1004C00060040020F0B508241F2601258378DA098E
:1004D0000027002A04D15F09FF011E4A94466744A1
:1004E00033402A1C9A407A614BB2002B0EDA4378D3
:1004F000DA090027002A04D15F09FF01154A944652
:10050000674433402A1C9A40BA610DE04378DA0907
:100510000027002A04D15F09FF010E4A9446674470
:1005200033402A1C9A407A618378DA090027002A2E
:1005300004D15F09FF01074A9446674433402A1CEF
:100540009A40BA614900C9B2013CE4B2002CBDD165
:10055000F0BDC04600440041F0B5071C082400234C
:100560001F260125BA78D1090020002904D150099D
:10057000C00119498C4660443240291C91404161B8
:100580005B00D8B23B78D9090022002904D15A096E
:10059000D20111498C466244116A33401A1C2B1C4B
:1005A00093401A1C0B1C13405A1E93410343BA7804
:1005B000D1090020002904D15009C00106498C4608
:1005C00060443240291C91408161013CE4B2002C1E
:1005D000C8D1181CF0BDC04600440041F0B54F46DC
:1005E0004646C0B483B08046C60F4644731001939C
:1005F00000240B4F80235B0199461E1CBE610198AD
:10060000084DA8474B467B610198A8474444064BD8
:100610009C42F3DD03B00CBC90469946F0BDC04649
:10062000004400414D0600009F860100044B054A2E
:100630001A6029225A60243A034B1A607047C04658
:1006400000000020ACA3000010E000E030B5084B33
:100650005C68084A00258021490206E0002C04D08D
:100660005460956013680B42FCD00138F6D230BD5F
:100670000000002010E000E030B5084B1C68084A7C
:1006800000258021490206E0002C04D054609560CA
:1006900013680B42FCD00138F6D230BD00000020B8
:1006A00010E000E010B5C2090023002A04D143097C
:1006B000DB01114A944663441F2202400124944006
:1006C000012905D19C60181840300023037012E006
:1006D000002909D15C6018184030022303700278A9
:1006E00002331343037006E0032904D19C601818F9
:1006F00040304023037010BD00440041EFF30583F8
:10070000FCE7C04670B52E4B2E4A9A4203D02E4BC2
:100710002B4A9A4204D32D4B2D4A9A4210D31EE005
:100720002C4A294B03339B1A9B0801339B00002260
:10073000234824498C58845004329A42FAD1EAE77B
:10074000254A224B03339B1A9B0801339B0000224E
:100750001F4800211418216004329A42FAD11F4A1E
:10076000FF211F4B8B439360FD3990235B001D4A93
:10077000D1501D48C3780324A34302221343C370FE
:10078000C3780C26B34308210B43C370174B987BE7
:100790003025A843051C202028439873987BB0433C
:1007A00001439973997BA1430A439A73104A516894
:1007B00080230B4353600F4B98470F4B9847FEE73E
:1007C00000000020E0130000380400206C0400202A
:1007D00038040020040000203C04002000ED00E06C
:1007E000000000000070004100500041004800413E
:1007F00000400041FD110000B90A0000014A024B0F
:100800001A60704740420F00080000201A49C223B6
:10081000DB008B60194843681E2293431C3A134344
:100820004360174B8B82CB681A42FCD0154B0222D7
:10083000FF329A60144A5A608222D2015A800E4BCB
:1008400002229A84114ADA62DA6AA021C9000A43B4
:10085000DA62998C04220A439A84191C1022CB680C
:100860001A42FCD0074B802292009A60084A5A60D4
:100870008022D2015A8070470008004000400041A9
:100880000E060000000C00400105010000001E1CC7
:100890000007010010B507200021094CA0470A20DD
:1008A0000121A04708200121A0470C200321A047D7
:1008B000044B8022D2009A61802252009A6110BDBE
:1008C000A50600000044004138B5041C0D2001219C
:1008D0000D4DA8470F200121A84709200121A84755
:1008E0000E200021A84780229200084B9A610E2317
:1008F0002370013B63700233A370063BE370002357
:1009000023716371201C38BDA5060000004400411E
:1009100038B5041C0D2001210D4DA8470F200121E1
:10092000A84710200121A8470E200021A8478022B7
:100930005202084B9A610E232370013B637002330D
:10094000A3700133E370002323716371201C38BD51
:10095000A50600000044004138B5041CC378D9093D
:100960000022002904D15A09D20136498C4662443A
:100970001F210B401E3999405161201C2D21324D01
:10098000A847201C0021A847E378D90900220029A4
:1009900004D15A09D2012B498C4662441F210B40D5
:1009A0001E3999409161201C0021284B9847E3781B
:1009B000D9090022002904D15A09D20121498C46C3
:1009C00062441F210B401E3999405161201C2C218B
:1009D0001D4DA847201C0E21A847E378D909002205
:1009E000002904D15A09D20116498C4662441F21BC
:1009F0000B401E3999409161E378D9090022002902
:100A000004D15A09D2010F498C4662441F210B4080
:100A10001E3999405161201C2D210B4DA847201CE7
:100A20000821A847E378D9090022002904D15A09EE
:100A3000D20104498C4662441F210B401E39994063
:100A4000916138BD00440041C5040000150100005B
:100A500010B5041CC378D9090022002904D15A0911
:100A6000D20111498C4662441F210B401E39994026
:100A70005161201C1E210D4B9847E378D9090022B3
:100A8000002904D15A09D20107498C4662441F212A
:100A90000B401E39994091611E20054B9847201C40
:100AA000044B984710BDC04600440041C5040000F7
:100AB0004D0600002904000070B586B0274B98470A
:100AC000274B9847274B9847274B984704A8274B15
:100AD000984702A8264B984702A8264B984704A897
:100AE000254B984702A8254B98476B46D88002A80B
:100AF000234B984701AB188002A8224B98476B46BE
:100B000058806420204CA047C820A0479620400071
:100B1000A047C8204000A047FA204000A047C820B6
:100B20008000A047E1208000A0471848184B984754
:100B3000AA20A047174C184E184D23680133236094
:100B400002A8B047A8476B46D880154B984701AB21
:100B50001880144B98476B465880EEE7FD0700005D
:100B60000D0800002D06000095080000C9080000CF
:100B70001109000059090000510A0000710100002C
:100B8000D901000041020000DD050000102700002F
:100B90007906000054040020A90200008D03000023
:100BA000C1030000F5030000F0B55F4656464D4610
:100BB0004446F0B4051C061C080387B099464F0054
:100BC000030BCC0F92469B467F0D019467D06C4B74
:100BD0009F4236D080205B4640031843C0006B0F15
:100BE0001843684B83469C4600239846EE006744B2
:100BF00000934B4649461D03C90F5B0052462D0B1F
:100C00005B0D894600D16EE05D498B4264D0802047
:100C10005C4940038C4600210543ED00500F05431D
:100C2000D20063444846FF187B1C9A46009B6040F4
:100C300002900B430F2B00D9ACE053489B00C358E4
:100C40009F465B461D4300D082E0082300930023AB
:100C50009B46023300269846CBE7029B019343460E
:100C6000022B59D1012400250026019B1C40444B36
:100C700000212D030A0D12052D0B1543434A1B05B8
:100C800015401D436D00E4076D082543301C291CE9
:100C900007B03CBC90469946A246AB46F0BD2B43FC
:100CA0004ED05B46002B00D185E1584600F088FA13
:100CB000021C2823291C9B1A161C5846D940083EA2
:100CC000B0400B1CB54003439B462E1C0023304F05
:100CD0000093BF1A98468CE7514629432ED1002530
:100CE000002202219EE75146294323D0002D00D146
:100CF00054E1281C00F064FA031C28215046C91A4C
:100D00001A1CC8405146083A914095400A1C0543B8
:100D10001F480021C31A85E7032B00D1C2E1012B34
:100D200000D06DE14446019B00251C40E4B2002345
:100D300000269DE700250022012173E7032171E7CA
:100D40000423009300239B4601330026984650E776
:100D50000C230093093B98464BE7802500242D0384
:100D60000026074B84E74B46AB46161C019388468A
:100D700075E7029BAB46161C019388466FE7C04699
:100D8000FF07000001FCFFFF74130000FFFF0F804E
:100D90000DFCFFFF330C3604360C9C46331C140C40
:100DA0001204120C534398466346534399466346D4
:100DB00063430193331C41466343090C4B445B1866
:100DC000994505D980204002814601994944019105
:100DD000190C039141460904090C1B045B18049388
:100DE0002B0C9846331C2D04290C4B436046009372
:100DF0004346654658435E43009B4D431B0C994652
:100E0000AE194E448446B54203D980235B0299460D
:100E1000CC44350C2B1C0398634484460593009BFB
:100E200036041B041B0CF3189C4460460390584680
:100E30000504060C280C84465043351C8146604648
:100E4000654344434846000C8346724314195C448E
:100E5000A24203D98022520293465D44220CAD186F
:100E60004A461204120C24044046A41862464A431F
:100E70007143464360460096464670438046100CD8
:100E800084468844E044414505D9802149028C4686
:100E90000099614400910198039984466144994204
:100EA0009B415B4299460598434684461204120CC6
:100EB0001B049B1863449C46AB4683429B414046BF
:100EC0000A19CC44A2428941E344CC45B6415C4670
:100ED000000C8046494276425B4264183343984492
:100EE0008C428941AB459B4149425B4219430D1CF1
:100EF000009B4544EE187602E50D2E43B346049B55
:100F000056021E43731E9E415B46D20D324366025B
:100F10001643DB010AD50123334076081E435B46A6
:100F2000DB071E435B465B089B465746634BFB183B
:100F3000002B5ADD720709D00F223240042A05D057
:100F4000321DB242B6417642B344161C5A46D20113
:100F500006D55A465A4B1A4080239346DB00FB18AD
:100F6000584A934234DD0124029B00251C40002690
:100F7000554B7DE680205B460003034208D00542C6
:100F800006D105432D032D0B4C46161C4E4B6FE628
:100F90005D4605432D032D0B4B4B69E6504600F093
:100FA0000FF9031C2033272B00DCA6E65546083832
:100FB00085400022ACE6281C00F002F9021C203219
:100FC000272A00DC75E6083885400026AB467DE61A
:100FD0005A46F608520716435A4601245502029A09
:100FE0005B052D0B5B0D144042E6384DED1B382D93
:100FF0000ADD0124029B00251C400026002337E661
:10100000019B5746029391E71F2D25DC304B321C84
:101010009C466744BE405B46BB40371CEA407E1E90
:10102000B74113433B431E1C5B46EB401D1C73073B
:1010300009D00F233340042B05D0331DB342B641F2
:101040007642AD191E1C2B0220D50124029B0025DF
:101050001C40002601230BE65A461E4BDB1BDA40E0
:10106000131C202D1CD01C4A94465A466744BA4093
:10107000171C3E43721E96411E4307230025334032
:1010800007D00F2300253340042BD6D16B076D0208
:101090002D0B0124F6081E43029B1C400023E7E5AC
:1010A0000027E6E780255B4601242D031D43019BB5
:1010B0002D0323401C1C2D0B034BD9E5FF0300001F
:1010C000FFFFFFFEFE070000FF07000002FCFFFF1E
:1010D0001E040000E2FBFFFF3E0400000B0330B5DE
:1010E000134C1A0B4B00051C5B0DC90F0020A342CB
:1010F00010DD104883420EDC80200F4C4003024379
:10110000E41A1F2C0ADD0D48C31ADA40131C4842AA
:101110004340581830BD0A4BC818FBE7281CE04074
:10112000084CA44663449A40131C0343EFE7C046AF
:10113000FE0300001D04000033040000130400003F
:10114000FFFFFF7FEDFBFFFF38B5041E16D0C50F74
:1011500000D04442201C00F033F8174B1B1A0A2819
:1011600021DC021C211C153291400A1C0B21081A9B
:10117000C4405B052403240B5B0D03E00025002322
:10118000002400220021101C24030A0D1205240B48
:1011900014430A4A1B0514401C436400ED0764080D
:1011A0002C43211C38BD0B3884405B052403240BE1
:1011B0005B0D0022E6E7C0461E040000FFFF0F8023
:1011C0001C2101231B04984201D3000C10391B0A77
:1011D000984201D3000A08391B09984201D300093B
:1011E000043902A2105C40187047C0460403020292
:1011F00001010101000000000000000070B50D4E6B
:101200000D4D0024AD1BAD1005D0A300F3580134E3
:101210009847A542F9D100F0D1F8084E084D0024B6
:10122000AD1BAD1005D0A300F35801349847A5427B
:10123000F9D170BDC8130000C8130000C813000026
:10124000D013000008B5034B002B02D0024800F079
:1012500005F808BD000000006D12000008B5011C73
:1012600000220020002300F01BF808BD38B5094B10
:10127000094CE41AA41009D0084AA518AD00ED18CD
:101280002B68013C9847043D002CF9D100F0A0F8F0
:1012900038BDC046DC130000E0130000FFFFFF3F35
:1012A000F8B544465F4656464D469B462F4BF0B434
:1012B0001C68A4235B00051CE0580E1C9046002807
:1012C0004BD043681F2B0DDC5C1C002D21D1023359
:1012D0009B0044601E5000203CBC90469946A246AC
:1012E000AB46F8BD224B002B3CD0C820400000E0AC
:1012F00000BF002836D0A42200235200A15843602A
:101300000160A05040328350043283500124002DEC
:10131000DDD09A0091468144424688214F467A505A
:10132000C422520090468044424687399940126850
:101330008A460A43944642466146116084224946E1
:101340005F4652008F50022DC1D1021C55468D328E
:10135000FF3211680D431560B9E7201C4D30FF3096
:10136000E050AEE701204042B6E7C046B8130000A7
:1013700000000000940D0000720D0000720D0000CE
:10138000660D00005A0C00005A0C00005A0D0000B7
:10139000660D00005A0C00005A0D00005A0C0000A7
:1013A000660D00005E0C00005E0C00005E0C00008C
:1013B000740F00004300000010000020F8B5C04684
:1013C000F8BC08BC9E46704745120000DD000000D6
:1013D000F8B5C046F8BC08BC9E467047B500000092
:1013E00080BB00003000000040420F000000000001
:1013F00000000000FC02002064030020CC03002059
:1014000000000000000000000000000000000000DC
:1014100000000000000000000000000000000000CC
:1014200000000000B41300000000000000000000F5
:1014300000000000000000000000000000000000AC
:10144000000000000000000000000000000000009C
:10145000000000000000000000000000000000008C
:10146000000000000000000000000000000000007C
:10147000000000000000000000000000000000006C
:10148000000000000000000000000000000000005C
:10149000000000000000000001000000000000004B
:1014A0000E33CDAB34126DE6ECDE05000B00000010
:1014B000000000000000000000000000000000002C
:1014C000000000000000000000000000000000001C
:1014D000000000000000000000000000000000000C
:1014E00000000000000000000000000000000000FC
:00000001FF
