S018000053614C416C74696D657465722D312E302E73726563A9
S113000050530020CD040000C5040000C5040000C6
S113001000000000000000000000000000000000DC
S1130020000000000000000000000000C504000003
S11300300000000000000000C5040000C50400002A
S1130040C5040000C5040000C5040000C504000088
S1130050C5040000C5040000C5040000C504000078
S1130060C5040000C5040000C5040000C504000068
S1130070C5040000C5040000C5040000C504000058
S1130080C5040000C5040000C5040000C504000048
S1130090C50400000000000000000000C5040000CA
S11300A0C5040000C5040000C5040000C504000028
S11300B00000000010B5064C2378002B07D1054B37
S11300C0002B02D0044800E000BF0123237010BDC0
S11300D03804002000000000AC12000008B5084BF2
S11300E0002B03D00748084900E000BF0748036815
S11300F0002B00D108BD064B002BFBD09847F9E735
S113010000000000AC1200003C040020AC1200000F
S11301100000000070B5051C802252020A4B5A618F
S11301200F200D21F222094B98472C1C0635084E4E
S11301300F200E21B04720700134AC42F8D1802248
S11301405202014B9A6170BD004400411503000046
S113015075030000F0B557464E464546E0B400240A
S1130160134B9846134B9946134E96204000C047B4
S1130170124D8027BF006F61221C5E3AD2B20F205D
S11301800D21C8470F200E21B04782460F200E21B3
S1130190B047AF6153461D022818094B1853023467
S11301A00C2CE2D11CBC90469946A246F0BDC04638
S11301B041040000150300007503000000440041E1
S11301C060040020F8B5071C0E234370063B03703F
S11301D0164C80256D0265610F200D212D22144ED1
S11301E0B0470F200D210022B047A56165610F20A3
S11301F00D212C22B0477A780F200D21B047A5613C
S113020065610F200D212C22B0473A780F200D2173
S1130210B047A56165610F200D212D22B0470F2045
S11302200D210822B047A561F8BDC0460044004135
S113023015030000F0B54F464646C0B483B0061C13
S113024068462D4B98476B465B785AB2002A07DA0A
S11302502A4803431B026A46107803439BB204E016
S11302601B026A461078C3189BB2B3806A46D478DE
S113027062B2002A07DA2148044324026A469078CD
S11302800443A4B204E024026A4690780419A4B298
S1130290F4806A4655796AB2002A07DA174805439A
S11302A02D026A4610790543ADB204E02D026A4678
S11302B010794519ADB2358118B2114B984698475B
S11302C0104B9946104A114BC847114FB847F0607C
S11302D020B2C0470C4A0D4BC847B847306128B21A
S11302E0C047094A094BC847B847706103B00CBC02
S11302F090469946F0BDC0461501000000FFFFFF7F
S1130300D10D000089070000DE718A8EE4F26F3F90
S1130310490E000070B5C3090024002B04D1440920
S1130320E401134B9C4664441F2318401E3B834046
S1130330181CCB090026002B04D14E09F6010C4BE6
S11303409C4666441F2319401E3B8B40191C0823FE
S1130350606155B2002D01DAB16100E07161A06104
S11303605200D2B2013BDBB2002BF1D170BDC046CA
S113037000440041F0B5C3090024002B04D1440912
S1130380E401124B9C4664441F2528401E3D8540D1
S1130390CB090026002B04D14E09F6010B4B9C46D9
S11303A066441F2319401E3B8B40191C0822002061
S11303B06561336A0B405F1EBB4140001843C0B205
S11303C0A561013AD2B2002AF2D1F0BD0044004145
S11303D0F0B54F464646C0B483B08046C60F464487
S11303E07310019300240B4F80235B0199461E1C5C
S11303F0BE610198084DA8474B467B610198A84708
S11304004444064B9C42F3DD03B00CBC9046994631
S1130410F0BDC04600440041410400009F86010035
S1130420044B054A1A6029225A60243A034B1A6085
S11304307047C04600000020ACA3000010E000E0BC
S113044030B5084B5C68084A00258021490206E063
S1130450002C04D05460956013680B42FCD0013822
S1130460F6D230BD0000002010E000E010B5C20953
S11304700023002A04D14309DB01114A9446634452
S11304801F22024001249440012905D19C601818C0
S113049040300023037012E0002909D15C60181871
S11304A0403002230370027802331343037006E0E2
S11304B0032904D19C60181840304023037010BDF8
S11304C000440041EFF30583FCE7C04670B52E4BB2
S11304D02E4A9A4203D02E4B2B4A9A4204D32D4BD8
S11304E02D4A9A4210D31EE02C4A294B03339B1AFF
S11304F09B0801339B000022234824498C588450D4
S113050004329A42FAD1EAE7254A224B03339B1A72
S11305109B0801339B0000221F480021141821600E
S113052004329A42FAD11F4AFF211F4B8B43936036
S1130530FD3990235B001D4AD1501D48C378032424
S1130540A34302221343C370C3780C26B343082188
S11305500B43C370174B987B3025A843051C202000
S113056028439873987BB04301439973997BA143C3
S11305700A439A73104A516880230B4353600F4B0C
S113058098470F4B9847FEE700000020AC1200008C
S1130590380400204C3300203804002004000020DC
S11305A03C04002000ED00E0000000000070004169
S11305B0005000410048004100400041C9100000C3
S11305C0C5060000014A024B1A60704740420F0002
S11305D0080000201A49C223DB008B6019484368D5
S11305E01E2293431C3A13434360174B8B82CB6800
S11305F01A42FCD0154B0222FF329A60144A5A6008
S11306008222D2015A800E4B02229A84114ADA6263
S1130610DA6AA021C9000A43DA62998C04220A43E7
S11306209A84191C1022CB681A42FCD0074B8022F2
S113063092009A60084A5A608022D2015A80704718
S113064000080040004000410E060000000C00407D
S11306500105010000001E1C0007010010B5072061
S11306600021094CA0470A200121A04708200121AC
S1130670A0470C200321A047044B8022D2009A619A
S1130680802252009A6110BD6D04000000440041B4
S113069038B5084C8025AD0065610F200D211E2260
S11306A0054B9847A5611E20044B9847044B984777
S11306B038BDC04600440041150300004104000059
S11306C055010000F0B58DB0224B9847224B984756
S11306D0224B9847224B984706A8224B9847224B17
S11306E0984706A8214B9847002305930493039346
S11306F0E12080001E4CA047C8208000A047AF2006
S11307008000A04796208000A047FA204000A04720
S11307100024184D154F184E2B6801332B6006A882
S1130720B847099B05930A9B019304930B9B03937E
S1130730059AA3009A510499104A99500399104AB2
S1130740995001340F4BE3185A1E93415B421C40ED
S1130750E2E7C046C5050000D505000021040000FD
S11307605D060000C501000091060000350200008E
S1130770D103000054040020AC2300206C040020AA
S11307800C14002018FCFFFFF0B55F4656464D469A
S11307904446F0B40F0387B098464D003B0BCC0F92
S11307A0061C924681469B466D0D01946BD0664BA8
S11307B09D4235D080275B467F031F43F300994653
S11307C0624BFF00400F9C4607430023BB460026B4
S11307D065440093424617035000D20F53463F0B23
S11307E0400D904600D172E0574A904267D0802372
S11307F05B031F435346554A5B0FFF001F43944658
S113080053460021DB0060444246624092462D1A62
S11308100E430F2E00D9A1E04D48B60080598746FB
S11308205B461E4300D076E000239B469946023384
S113083008260093CEE799464346BB4601930091B0
S1130840009B022B6BD1019B9A4600215346012247
S1130850002789461A403C4B00213F030C0D240518
S11308603F0B27433B4C1B0527401F437F00D20708
S11308707F0817434846391C07B03CBC904699464C
S1130880A246AB46F0BD03433ED05B46002B00D1ED
S11308909CE1584600F0FAFB2823311C1B1A021C69
S11308A05F46D940083A97400B1C96403B439B4611
S11308B0B1460023284D00262D1A00938AE752469C
S11308C003213A43A0D10027002302219CE752468A
S11308D03A4315D0002F00D185E1381C00F0D6FB37
S11308E0021C28215046891A131CC8405146083B53
S11308F099409F400B1C074317480021801A83E747
S11309000027002301217FE700239B4699460133FA
S1130910042600935EE703230C2600935AE7032B77
S113092000D13CE2012B00D0BFE11A1C019B1A400C
S113093000210023002789468EE70023802799465B
S113094000223F03004B87E7FF07000001FCFFFF85
S113095040120000FFFF0F800DFCFFFFBB4500D9D4
S113096051E100D14CE14A46039200225C46904694
S1130970013D180E3F0238431B020193030C9946B4
S113098003041B0C4946061C201C1F1C009300F08A
S1130990EBFA021C7A4302904946201C171C00F013
S11309A069FB039B09041B0C19438F420CD9029B5E
S11309B08919013B8E4200D952E18F4200D84FE1A0
S11309C0029B8919023B0293CC1B201C494600F070
S11309D0CBFA009F834647434946201C00F04AFB5C
S11309E0039A0B041404240C23439F420DD95A4642
S11309F09B19013A9E4200D930E19F4200D82DE173
S1130A000222524294469B19E344029ADB1B1704C8
S1130A105A463A439346019C170C220C101C04922C
S1130A205A4611042204120C141C090C7C4305922E
S1130A304A43414347436118100C09188C4203D9B7
S1130A4080204002844667440C0C12040804120CF3
S1130A503C198118A34200D2E5E000D1DFE01F1B5E
S1130A6043465C1AA04592415242BF1AB74200D194
S1130A700EE1381C494600F077FA009B029043438C
S1130A804946381C984600F0F5FA230C0F041F431E
S1130A90B8450CD9029BBF19013BBE4200D9FBE00B
S1130AA0B84500D8F8E0029BBF19023B02934346C5
S1130AB0FF1A4946381C00F057FA009B0390434341
S1130AC04946381C984600F0D5FA24040904240C3D
S1130AD0214388450CD9039B8919013B8E4200D9D7
S1130AE0DCE0884500D8D9E0039B8919023B0393D5
S1130AF04346C91A029B039A1B04059C1A43100C13
S1130B0013049146221C049F1B0C5A4344437B4309
S1130B107843E318170CDB199C4203D98024640240
S1130B20A44660441C0C12041B04120C00199B18EC
S1130B30814200D296E000D1FCE04A4601231A43E8
S1130B4091469B4BEB18002B00DC99E04A46520778
S1130B500AD00F2249460A40042A05D004314945E7
S1130B6092418946524293445A46D20106D55A4686
S1130B70904B1A4080239346DB00EB188E4A934235
S1130B8000DD62E64A465946D208490711435A46EF
S1130B9089465702514601225B053F0B5B0D0A4013
S1130BA05AE680205A460003024208D0074206D182
S1130BB007433F0399463F0B4246804B4CE65F4652
S1130BC007433F033F0B221C7C4B45E600F05EFAD3
S1130BD0031C2030272800DC5EE6083B9E400023EF
S1130BE0B346994665E6504600F050FA021C20329E
S1130BF0272A00DC75E657460838874000237BE641
S1130C00994500D2AFE65A46594654084A46C807A1
S1130C105208024303924A46D2079046A9E60027A7
S1130C20884500D31CE7019F5A46BC46E044B845BA
S1130C30BF417F42BF19FF18013ABE4206D2BC42EF
S1130C405FD800D19FE03F1B934609E7B742FAD132
S1130C50019B4345F3D9371B934601E79346D4E6FA
S1130C600293B1E64A468919013A8E4218D991464F
S1130C70814200D061E7019A9A4200D05DE760E7C3
S1130C804F4F7F1B382F13DD012253461A404FE686
S1130C9001235B42994654E7029308E7039327E74D
S1130CA088423CD874D0914647E7019B9A4648E76E
S1130CB01F2F44DC434B4A469C465B466544FA403E
S1130CC0AB4013434A46AA40151C6A1E95415A4636
S1130CD0FA402B43171C5A0709D00F221A40042A42
S1130CE005D01A1D9A429B415B42FF18131C3A021D
S1130CF03ED55346012200211A400027012389468C
S1130D00AAE502235B429C46019AE3449446E044EC
S1130D1090459B415B429B19DF193F1BA0E6019F55
S1130D204A467C00BC42BF417F42BF19023AC919FE
S1130D3001949CE7002B95D1002201929BE75A462F
S1130D40214B5B1BDA40202F27D0204B9C465B466F
S1130D506544AB4049460B43591E8B41134307225C
S1130D6000271A4007D00F2200271A40042AB8D1BE
S1130D707A077F023F0BDB0813439946012253464F
S1130D801A40002368E54145BBD89346002767E62F
S1130D90019C9C42C3D391466DE70023DAE7802788
S1130DA05B463F031F433F033F0B019A034B53E54D
S1130DB0FF030000FFFFFFFEFE070000FF07000027
S1130DC002FCFFFF1E040000E2FBFFFF3E040000E4
S1130DD038B5041E16D0C50F00D04442201C00F0C4
S1130DE055F9174B1B1A0A2821DC021C211C153249
S1130DF091400A1C0B21081AC4405B052403240BF0
S1130E005B0D03E000250023002400220021101CB8
S1130E1024030A0D1205240B14430A4A1B0514402B
S1130E201C436400ED0764082C43211C38BD0B38B7
S1130E3084405B052403240B5B0D0022E6E7C046D7
S1130E401E040000FFFF0F8070B50B034D00440F1C
S1130E506D0D5B0A23436C1C6405C90FC200640D4D
S1130E60012C2ADD3B4C2C19FE2C1ADC002C35DD20
S1130E708001451EA841DB000343520F13435A0768
S1130E8004D00F221A40042A00D004338022D20452
S1130E901A4027D00134FF2C03D09B015B0AE4B233
S1130EA001E0FF2400235B02E4055B0A23435B00AB
S1130EB0C9075B080B43181C70BD002D06D11343F2
S1130EC00ED100245B025B0AE4B2ECE71A43E8D0DB
S1130ED08020DB0080040343FF24D0E717340CDABE
S1130EE005230024DB08FF2CECD1002B2DD080221D
S1130EF0D20313435B025B0AD5E78024164824041B
S1130F002343401B1F280DDC144CA4466544AB400E
S1130F101C1C131CAB405D1EAB41C2402343134356
S1130F200024ACE71E1C0E4C641BE640341C202835
S1130F300DD00C4884466544AB401D1C2A43531E07
S1130F409A41131C2343002499E70023ABE70025AF
S1130F50F4E7C04680FCFFFF9E03000082FCFFFF15
S1130F607E030000A2FCFFFF002243088B4274D3DF
S1130F7003098B425FD3030A8B4244D3030B8B4296
S1130F8028D3030C8B420DD3FF22090212BA030C9F
S1130F908B4202D31212090265D0030B8B4219D380
S1130FA000E0090AC30B8B4201D3CB03C01A5241A0
S1130FB0830B8B4201D38B03C01A5241430B8B42E8
S1130FC001D34B03C01A5241030B8B4201D30B03D1
S1130FD0C01A5241C30A8B4201D3CB02C01A5241F8
S1130FE0830A8B4201D38B02C01A5241430A8B42BB
S1130FF001D34B02C01A5241030A8B4201D30B02A4
S1131000C01A5241CDD2C3098B4201D3CB01C01ABD
S1131010524183098B4201D38B01C01A52414309C7
S11310208B4201D34B01C01A524103098B4201D3B5
S11310300B01C01A5241C3088B4201D3CB00C01A22
S1131040524183088B4201D38B00C01A524143089A
S11310508B4201D34B00C01A5241411A00D20146BF
S1131060524110467047FFE701B5002000F00CF82C
S113107002BDC0460029F7D003B5FFF775FF0EBCCB
S11310804243891A1847C0467047C0461C210123B1
S11310901B04984201D3000C10391B0A984201D357
S11310A0000A08391B09984201D30009043902A235
S11310B0105C40187047C04604030202010101019C
S11310C0000000000000000070B50D4E0D4D00241E
S11310D0AD1BAD1005D0A300F35801349847A542C9
S11310E0F9D100F0D1F8084E084D0024AD1BAD1025
S11310F005D0A300F35801349847A542F9D170BD37
S11311009412000094120000941200009C1200003B
S113111008B5034B002B02D0024800F005F808BDC7
S1131120000000003911000008B5011C0022002055
S1131130002300F01BF808BD38B5094B094CE41A2C
S1131140A41009D0084AA518AD00ED182B68013C7D
S11311509847043D002CF9D100F0A0F838BDC046F2
S1131160A8120000AC120000FFFFFF3FF8B5444690
S11311705F4656464D469B462F4BF0B41C68A4234D
S11311805B00051CE0580E1C904600284BD04368B9
S11311901F2B0DDC5C1C002D21D102339B0044600D
S11311A01E5000203CBC90469946A246AB46F8BD72
S11311B0224B002B3CD0C820400000E000BF002898
S11311C036D0A42200235200A15843600160A050ED
S11311D040328350043283500124002DDDD09A0024
S11311E091468144424688214F467A50C422520097
S11311F09046804442468739994012688A460A4399
S11312009446424661461160842249465F46520034
S11312108F50022DC1D1021C55468D32FF32116808
S11312200D431560B9E7201C4D30FF30E050AEE7A8
S113123001204042B6E7C0468412000000000000CE
S11312405C0900004A08000030090000360800006C
S1131250300900003A090000300900003608000097
S11312604A0800004A0800003A0900003608000055
S1131270400800004008000040080000A20B0000E5
S11312804300000010000020F8B5C046F8BC08BCBC
S11312909E46704711110000DD000000F8B5C046FD
S10F12A0F8BC08BC9E467047B500000076
S11312AC80BB00003000000040420F000000000032
S11312BC00000000FC02002064030020CC0300208A
S11312CC000000000000000000000000000000000E
S11312DC00000000000000000000000000000000FE
S11312EC000000008012000000000000000000005C
S11312FC00000000000000000000000000000000DE
S113130C00000000000000000000000000000000CD
S113131C00000000000000000000000000000000BD
S113132C00000000000000000000000000000000AD
S113133C000000000000000000000000000000009D
S113134C000000000000000000000000000000008D
S113135C000000000000000001000000000000007C
S113136C0E33CDAB34126DE6ECDE05000B00000041
S113137C000000000000000000000000000000005D
S113138C000000000000000000000000000000004D
S113139C000000000000000000000000000000003D
S11313AC000000000000000000000000000000002D
S9030000FC
