:10000000A0250020D5070000D1070000D10700007F
:1000100000000000000000000000000000000000E0
:10002000000000000000000000000000D1070000F8
:100030000000000000000000D1070000D107000010
:10004000D1070000D1070000D1070000D107000050
:10005000D1070000D1070000D1070000F102000025
:10006000D1070000D1070000D1070000D107000030
:10007000D1070000D1070000D1070000D107000020
:10008000D1070000D1070000D1070000D107000010
:10009000D10700000000000000000000D1070000B0
:1000A000D1070000D1070000D1070000D1070000F0
:1000B0000000000010B5064C2378002B07D1054B3B
:1000C000002B02D0044800E000BF0123237010BDC4
:1000D0003004002000000000DC0D000008B5084BD3
:1000E000002B03D00748084900E000BF0748036819
:1000F000002B00D108BD064B002BFBD09847F9E739
:1001000000000000DC0D000034040020DC0D0000C5
:1001100000000000C0200D4B0D4A80051A60596890
:100120000C4A1140014359600B49196159690A4051
:10013000802102435A615A6909060A435A61102212
:10014000064B9A7201325A707047C0465004002024
:1001500060050020FFFFFF8F10050020FF500041C9
:10016000202138B51B4A1C4CD3690B43D3611B4B70
:100170001B4A5A8001232370A378DB07FCD4022298
:10018000154B1A70A3789B07FCD41F21154B1B68D5
:100190005A0B0A408A4200D10522980C01401F29BF
:1001A00000D102399B015B0F072B00D1043B920168
:1001B0000A431B03134323850B4B0C4D1A78281C51
:1001C000520100210A4B9847082365622383094B9B
:1001D000984738BD0004004000500041000C00402A
:1001E00006400000246080009C0D000050040020A8
:1001F000890A00001501000080231843014B987202
:100200007047C0460050004170B50C4D40012C189D
:100210009204666813090A4A32401A4362606368AE
:100220009B0B9B036360074B4151C018052303726E
:10023000043B83723F334371002070BD50040020A3
:10024000FF3F00F0FF50004170B53F240F4D2040AC
:1002500040012D18DE076B6992045B005B08334395
:100260006B616E690A4B33406B61930C6A69920B48
:1002700092031A43074B6A61C0180A23296103726B
:10028000083B83727E338371002070BD50040020D0
:10029000FF3F00F0FF50004180220121034B1A6014
:1002A000034A13898B4313817047C04600E100E085
:1002B0000050004108B5002002494022024B9847F7
:1002C00008BDC046600500200902000010B5021CF0
:1002D00002490123024C8020A04710BD10050020D8
:1002E000490200003022014B9A717047FF500041D3
:1002F000082238B51C4B1D8C998BADB2114204D02D
:100300009A831A4B98471A4B2BE0EB0714D513210D
:10031000184B1C7A1972E4B2E30605D5164B174840
:1003200017499847174B9847E30701D5164B98474D
:10033000A30701D5154B9847154B18780123834225
:100340000EDA01229A40154208D012495A01521879
:10035000D179084C5A01C9B2121951720133EEE732
:100360000D4B984738BDC0460050004115010000B4
:100370006D040000FF5000410D0A000058050020E8
:1003800060050020B5050000C1060000DD06000084
:100390009C0D00000051004141050000002370B594
:1003A00088B0052207245A43D61014400C4A01A8ED
:1003B000B15C0822121B91400A4A0D1CB15C0A1C58
:1003C00022411F212A430A4007498A5C1A540133FB
:1003D0001A2BE6D100238376044B984708B070BDF2
:1003E0000DA080000CA08000AC0C00009507000060
:1003F00010B5141C022807D003280AD0012822D1E6
:10040000154B1222183302E07522134B2C33181CA3
:100410001FE002290CD005D8002910D00F4801296F
:1004200007D013E0032907D00B48EE2909D00DE0CF
:100430000B480C4B984704E00B4B984701E00648EB
:100440001430027805E00022101C02E000231B7823
:10045000FFDE2060101C10BDD00C00009D0D0000C0
:10046000A40D0000950700009D03000070470122C5
:10047000002382425B41D8B27047000010B50028CB
:1004800013D101300A4B984780B2041C402800D990
:100490004024A4B20121221C064B07489847074B71
:1004A0009847E0B2064B984701E0064B984710BDCD
:1004B000150B00000D0A000010050020B502000019
:1004C000CD020000E502000008B5034B984700206C
:1004D000024B984708BDC046B5020000CD0200009F
:1004E00008B5104A1378DB0619D15378302B0CD09D
:1004F00002D8102B15D012E0BB2B0DD0EE2B0ED155
:1005000009480A4B243098470BE0507913790002D0
:100510001843074B984704E0064B984701E0064B09
:10052000984708BD58050020500D00001D07000029
:100530007D040000C9040000E50200007047704718
:10054000704700000023984204D1022902D8024BD0
:1005500019800123181C70474C040020F8B50F4E79
:1005600033881C1C402B00D940240D4F0D4DA4B2E4
:10057000381C2968221C0C4B9847391C8020221CEF
:1005800000230A4FB847002C01D1094B9847338804
:100590001B1B33802B681C192C60F8BD52050020F2
:1005A00010050020540500200D0A0000490200003B
:1005B000B5020000602313B5334C22781A425FD194
:1005C00060780B285AD800F0F3F90654595459545E
:1005D0000C59363C594800222C4B02201A705A7094
:1005E00048E0E178A378090219430023080A01933F
:1005F000C9B201AA264B984700283FD0019900298B
:100600003CD0E379A2791B021343041C984200D921
:100610001C1C1E48A2B21F4B814206D100201E4C5A
:10062000188001238030A0472CE01C801B4B1960F0
:100630001B4B984726E01B4B01201A78134B1A706E
:1006400018E0A078184B9847002817D0174B0020C7
:100650009847A278134B1A700EE060792379000254
:10066000E1781843A37809021943114B98470028F1
:1006700004D000200D4B98470E4B02E00E4B00E0DB
:100680000E4B984713BDC0465805002010050020AA
:10069000F10300005205002049020000540500202B
:1006A0005D050000500500206F040000CD02000031
:1006B00045050000B5020000E5020000E10400006D
:1006C00008B5044B1A7860231A4201D0024B9847B0
:1006D00008BDC046580500203F050000602208B54F
:1006E0000A4B197811420DD15A78052A04D0062AEE
:1006F0000AD1074B984707E098787F231840054BAD
:10070000984701E0044B984708BDC04658050020B3
:100710005D050000F90100003D05000038B5174BEC
:10072000011C5A79187912020243042A23D1DD7977
:100730009A792D0215434A780C788B78120222435D
:100740001B0413431A1CCB781B0613439D4200D98C
:100750009DB22C1C402D00D94024094DA4B2221C6E
:10076000084B281C9847221C00238020291C064C7B
:10077000A047064B00E0064B984738BD58050020BF
:10078000100500200D0A000049020000B50200001B
:10079000E502000038B50C4B041C984780B2031CDE
:1007A0001F2800D91F239BB208485A1C5200027010
:1007B0000322427000229A4205DA5100A55C4118DA
:1007C0004D800132F7E738BD150B00001005002001
:1007D000FEE700002148224970B50023884201D17C
:1007E000204B07E0204CCA18A242F9D2C458043367
:1007F0001460F7E71D4A934202D2002204C3F9E7CE
:10080000FF21022403251A4B1A4A8B430C269360BE
:100810000822194B19495C62CB78AB432343CB7058
:10082000CB78B3431343CB703021154B987B88436F
:10083000103908439873997BB14311439973802110
:100840009A7BAA4322439A730E4A53680B43536020
:100850000D4B98470D4B9847FEE7C046DC0D000056
:10086000000000203004002030040020A0050020FB
:100870000000000000ED00E0FC700041005000416D
:100880000048004100400041C50900001509000072
:10089000014A024B1A60704740420F0000000020DE
:1008A0000221144A53680B435360134A134B93823B
:1008B000D36811499B07FBD50220114BFF3098608C
:1008C000104858608220C001588080204000986005
:1008D0000D4858608020C001588026238B840B4B24
:1008E0000B48CB62CB6A0343CB62D368DB06FCD5F3
:1008F0007047C04600400041000800400E0600005E
:10090000000C004001050100000701000000010487
:10091000B905000037B51D4B98471D4B98478021FE
:100920001C4B49041A6806250A4380211A601A687C
:1009300089040A431A6041231748184C1849237048
:1009400003700A78323B9A432A430A702278053DA5
:100950002A4322700A781340602213430B700378F5
:100960002B4303700F4B98470F4B9847C122C02071
:100970000E4992008B5800061B021B0A03438B5042
:1009800000230193019B0133FBE7C046910800005F
:10099000A10800000044004159440041584400416E
:1009A0003C440041610100009902000000E100E0C8
:1009B00002B4714649084900095C49008E4402BCF2
:1009C0007047C04670B50D4E0D4D0024AD1BAD10E7
:1009D00005D0A300F35801349847A542F9D100F09F
:1009E000EBF9084E084D0024AD1BAD1005D0A30057
:1009F000F35801349847A542F9D170BDC40D0000E9
:100A0000C40D0000C40D0000CC0D000070B50F2A0D
:100A100032D9041C0C430B1CA40731D1151C041C37
:100A2000103D2D0901352D0149191E6826605E68AB
:100A300066609E68A660DE681033E66010349942F6
:100A4000F3D10F2345191340032B1BD91C1F00237F
:100A5000A4080134A400CE58EE500433A342FAD1C6
:100A6000ED18C91803231A4005D00023CC5CEC54C0
:100A700001339342FAD170BD051C002AF5D1FAE783
:100A8000051CF2E71A1CF8E770B583073FD0541E27
:100A9000002A3BD0CEB2031C032503E0621E002CCB
:100AA00034D0141C01335A1E16702B42F6D1032C7D
:100AB00024D9FF250D402A0215432A0415430F2C83
:100AC00011D9261C103E3609013636011A1C9B1915
:100AD000156055609560D56010329342F8D10F22B1
:100AE0001440032C0AD9261FB6080136B6001A1C7A
:100AF0009B1920C29342FCD103221440002C05D044
:100B0000C9B21C1919700133A342FBD170BD141C6A
:100B1000031CCCE710B5830727D00378002B26D021
:100B2000031C032102E01A78002A1CD001330B4277
:100B3000F9D119680F4A104C8A188A4322420FD102
:100B4000043319680B4A8A188A43224208D10433B5
:100B50001968084A8A188A432242F1D000E001331A
:100B60001A78002AFBD1181A10BD031CE1E70020F7
:100B7000FAE7C046FFFEFEFE8080808008B5034B8A
:100B8000002B02D0024800F005F808BD000000006C
:100B9000A50B000008B5011C00220020002300F076
:100BA0001BF808BD38B5094B094CE41AA41009D04C
:100BB000084AA518AD00ED182B68013C9847043D84
:100BC000002CF9D100F002F938BDC046D80D000064
:100BD000DC0D0000FFFFFF3FF8B544465F46564678
:100BE0004D469B462F4BF0B41C68A4235B00051CAC
:100BF000E0580E1C904600284BD043681F2B0DDC9C
:100C00005C1C002D21D102339B0044601E5000204B
:100C10003CBC90469946A246AB46F8BD224B002B01
:100C20003CD0C820400000E000BF002836D0A422FD
:100C300000235200A15843600160A050403283500D
:100C4000043283500124002DDDD09A009146814466
:100C5000424688214F467A50C42252009046804432
:100C600042468739994012688A460A43944642466A
:100C700061461160842249465F4652008F50022D22
:100C8000C1D1021C55468D32FF3211680D431560EB
:100C9000B9E7201C4D30FF30E050AEE70120404264
:100CA000B6E7C046B40D000000000000303132331A
:100CB000343536373839414243444647484A4B4C2D
:100CC0004D4E5051525354565758595A0000000037
:100CD00012034D0053004600540031003000300034
:100CE000EE000000040309041201000200000040AD
:100CF000091251751001010203010000090275007B
:100D000003010080FA0904000000FF00000009044C
:100D1000000102FF000000070581024000000705F6
:100D200002024000000904000202FF000000070563
:100D30008102400000070502024000000904010092
:100D40000102020000052400100104240200052411
:100D5000060102070583030800FF09040200020AD6
:100D6000000000070504024000050705840240005A
:100D70000500000028000000000104000100000040
:100D800000000000000057494E555342000000008B
:100D90000000000000000000000000000554657322
:100DA00073656C0054657373656C2032000000003D
:100DB0004300000008000020F8B5C046F8BC08BC9D
:100DC0009E4670477D0B0000DD000000F8B5C04670
:0C0DD000F8BC08BC9E467047B50000004F
:100DDC0040420F000000000000000000F402002060
:100DEC005C030020C4030020000000000000000091
:100DFC0000000000000000000000000000000000E7
:100E0C00000000000000000000000000B00D000019
:100E1C0000000000000000000000000000000000C6
:100E2C0000000000000000000000000000000000B6
:100E3C0000000000000000000000000000000000A6
:100E4C000000000000000000000000000000000096
:100E5C000000000000000000000000000000000086
:100E6C000000000000000000000000000000000076
:100E7C000000000000000000000000000000000066
:100E8C0001000000000000000E33CDAB34126DE603
:100E9C00ECDE05000B00000000000000000000006C
:100EAC000000000000000000000000000000000036
:100EBC000000000000000000000000000000000026
:100ECC000000000000000000000000000000000016
:100EDC000000000000000000000000000000000006
:00000001FF
