:1000000020770020610D0000590D0000590D0000FF
:1000100000000000000000000000000000000000E0
:10002000000000000000000000000000590D00006A
:100030000000000000000000590D0000590D0000F4
:10004000590D0000590D0000590D0000250A00004F
:10005000590D0000590D0000590D0000590D000008
:10006000590D0000590D0000590D0000590D0000F8
:10007000590D0000590D0000590D0000590D0000E8
:10008000590D0000590D00006D0E0000590D0000C3
:10009000590D00000000000000000000590D000094
:1000A000590D0000590D0000590D0000590D0000B8
:1000B0000000000010B5064C2378002B07D1054B3B
:1000C000002B02D0044800E000BF0123237010BDC4
:1000D0008808002000000000A479000008B5084B43
:1000E000002B03D00748084900E000BF0748036819
:1000F000002B00D108BD064B002BFBD09847F9E739
:1001000000000000A47900008C080020A479000001
:1001100000000000802370B50A4D5B02041C6B6177
:100120000F200D21F222084B9847A61D0F200E210B
:10013000064B984720700134B442F7D180235B020C
:10014000AB6170BD00440041ED07000025080000D0
:10015000F7B58027114EBF0000227761104B0F20AA
:100160000D2198470F4C0E210F20A0476B460E2102
:1001700058710F205D1DA0476B460E2198710F200E
:10018000A0476B46D871B7612878DA1D9B790004C7
:1001900012781B0218431043FEBDC04600440041C4
:1001A000ED07000025080000F7B500240090962018
:1001B000114D8000A84796208000A8478026221C69
:1001C0000E4DB6005E3A0E4BD2B20F200D216E617D
:1001D00098470E210B4F0F20B8470E2101900F209A
:1001E000B847AE61019B1B021843009B18530234B1
:1001F0000C2CDCD1F7BDC046AD0A00000044004124
:10020000ED07000025080000F0B5002613888DB02A
:1002100002935388D48800939388019003931389A1
:1002200050890A681B02D31A0593059A254FD317E4
:10023000311CB847FA234902C00D0843DB00C0183F
:100240000690059A201CD317311CB8478B068D09E0
:10025000009984091C434A04CB0B12196B41089284
:100260000993059A0398D317311CB8474B06C40964
:100270001C43331CCD0902990A0412196B410199E0
:100280000A920B930A9A0B9B089C099D0868311CE3
:10029000B847331CCF17FF02FA0A80185941CF0222
:1002A000420D3A434B15121BAB41311CDC17640461
:1002B000600C12184B415B04D20B1A43079207984B
:1002C0000DB0F0BD111400000C4A30B5904211DCA5
:1002D000131A9B124B2B0FDC094C99009D02013322
:1002E0009B0009591B59521B101A5B1A5843801264
:1002F000081802E0034800E0034830BDCC99010033
:10030000AC720000208DFFFF8E040F00F0B5071CBB
:1003100089B0794D081C2C21A847441C774B201C20
:100320009847774B9847774B386098477649774B93
:10033000061C9847764B38717349301C9847734BAD
:10034000081C64219847724B78716421301C9847CF
:10035000201CB9712C21A847031C5B780130019542
:10036000412B01D1403B02E0562B01D100233B74CD
:10037000019B2C21984705AC061C411C654D0222AF
:10038000201CA8470023201CA370634B9847F11C36
:1003900002900222201CA847B31D009304AB042244
:1003A0000099981DA8470023201CA3715A4B984719
:1003B0005A4B039002985A4D5A495843A8475A4BF2
:1003C0009847061C3220039B03215843A847564BED
:1003D00098475649564B9847564B011C301C984736
:1003E0005549564B061C9847554B9847051C6420A9
:1003F0004D4B68439847534B011C301C984752495A
:100400004E4B9847484B061C281C9847494B011CEB
:10041000301C9847019BF860051C2C2100989847D8
:10042000031C3E4A5B7801300392532B03D1802397
:100430001B06ED18FD60304B2C219847431C0093A0
:100440004378051C2C2B49D0324E00990322201CE6
:10045000B0470023201CE3702F4B9847291D0190C3
:100460000222201CB047EB1D009304AB042200992C
:10047000981DB0470023201CA371274B9847019B70
:1004800002900398264D58432649A847264CA0477A
:10049000061C3220029B03215843A847A04723494A
:1004A000234B9847234B011C301C98472249234E6D
:1004B0000190B047224B9847051C64206843A04731
:1004C000204B011C019898471F49B047061C281C67
:1004D000A047184B011C301C9847B860064B009889
:1004E0002C2198474378572B04D18022BB681206F1
:1004F0009B18BB6009B0F0BD2544000039430000E3
:10050000953C000065140000102700005110000009
:100510005D110000FD4400004543000080969800F6
:1005200071110000A0860100092000009C53C9360B
:10053000691A0000011500000000C842F917000008
:10054000C91F0000CD1C00000000704273B50D1CD7
:10055000061C0C1CFF352378242B1AD1E27801AB42
:100560001A7022795A7062799A701A785978987844
:100570000B1C4D3B59425941131C523B5A425341AB
:10058000C0B20B4205D0432803D1301C211C034BC1
:1005900098470134AC42DED173BDC0460D03000064
:1005A000054B021C1968002901D10449196018681B
:1005B00082181A607047C046A408002020770020E7
:1005C000437800785AB2002A04DA054A13431B0222
:1005D000184301E01B02C01880B200B27047C04649
:1005E00000FFFFFFF8B580251F4C6D02071C1F4E52
:1005F00010200121B047A5610D200121B0470F2037
:100600000121B0470E200021B0470E237B70063B2E
:100610003B70174E65610F200D212D22B0470F2032
:100620000D210022B047A5610F2065610D212C220C
:10063000B0477A780F200D21B047A5610F20656182
:100640000D212C22B0473A780F200D21B047A5612B
:100650000F2065610D212D22B0470F200D210822AA
:10066000B047A561F8BDC04600440041290B000019
:10067000ED070000F0B585B0041C174B02A89847A1
:10068000164D02A8A84702AB071CA080981CA847DB
:100690006B4600901B8803A8E380A8476B46019037
:1006A0009B880F4E2381381CB0470E4F0E4A0F4BCC
:1006B000B8470F4DA847E0600098B0470A4A0B4B77
:1006C000B847A84720610198B047074A074BB84789
:1006D000A847606105B0F0BD15010000C10500002C
:1006E0001D3C0000F52F0000DE718A8EE4F26F3FA2
:1006F000953C000070B58026104C051C0121092096
:10070000A04709200121A0470D200121A0470F206B
:100710000121A0470E200021A047094CB6000D2161
:100720001E2266610F20074B98479620A661800025
:10073000054B9847281D054B984770BD290B0000B5
:1007400000440041ED070000AD0A0000A9010000CF
:1007500038B58025044CAD00021C65610F200D21C9
:10076000024B9847A56138BD00440041ED070000E9
:10077000F8B5041C0D4F4020B847AF200C4E800048
:10078000B0470C4DA84760615020B847AF208000AB
:10079000B047A847211C2061201C1031221D064BA8
:1007A00014309847054B9847A061F8BD51070000E9
:1007B000AD0A00005101000009020000C90200005A
:1007C000002210B54309C409944202D1DA01064B54
:1007D000D2181F2318401E3B8340002901D093618B
:1007E00000E0536110BDC04600440041F7B50F1C46
:1007F000151C0826019001980021094CA0476BB2F6
:10080000381C0121002B00DB0021A04701980121A9
:10081000A047731E6D00DEB2EDB2002EEBD1F7BD26
:10082000C1070000F0B5CB0985B001934B090393D4
:100830001F2319401E3B8B40071C082500240293F0
:10084000381C00210E4EB047019B6400E4B2002B1F
:1008500013D1039B0B4ADB019B181B68029A013DD5
:1008600013405A1E9341381C0121EDB21C43B0477E
:10087000002DE5D1201C05B0F0BD00231B6AFFDE72
:10088000C107000020440041F7B5051C0024C30F38
:100890001B185B1001938023074F5B01BB6101981C
:1008A000064EB04780235B017B610198B047044B43
:1008B0002C199C42EFDDF7BD00440041AD0A000059
:1008C0009F860100C2231E2010B51C4ADB001C4974
:1008D00093604B6883431C380343101C4B60194BD7
:1008E00093820221C368154A0B42FAD00224164BA8
:1008F000FF349C60154C5C608224E4015C808124A0
:1009000064009C60124C5C60124C5C80A02491845A
:100910001149E400D162D16A21430424D162918C4F
:1009200021439184C268D206FCD5802252009A608D
:100930000A4A5A608022D2015A8010BD0008004045
:10094000004000410E060000000C004001050100BF
:10095000020401001B42000000001E1C00070100F1
:1009600080210C4A0901136A0B4313620A4A0B499E
:1009700053880B435380B022094B12011A80012285
:1009800002215A731A880A431A808022054BD20228
:100990001A60704700040040000C00401B03000078
:1009A000002C004200E100E08122164B52009A60C8
:1009B000154A5A605A7852B2002AFBDB134A114B8F
:1009C0005A80134B134A1A809A7AD209FCD19A7A28
:1009D000D209FCD110490E4A9182997A0C4AC90970
:1009E000FBD151880D480143518080210220D171F3
:1009F0001188014311809A7AD209FCD1084B083240
:100A00001A607047000C00400200230004420000FE
:100A10000014004004050000E60300001040000040
:100A200000E100E0FA21044A890013685B181360B2
:100A3000FF22024B1A727047A808002000140040E1
:100A400030B5EFF3108172B6084A094D2B68108A51
:100A5000147A80B2E40904D02868138AFA2292003A
:100A60008018C01881F3108830BDC04600140040C3
:100A7000A8080020002806D00022034B58609A6086
:100A80001A68D203FCD5704710E000E0044B054A19
:100A90001A6029225A60044B243A1A607047C046F3
:100AA00000000020ACA3000010E000E010B5041C22
:100AB000002C05D0034B013C5868034B9847F7E7DF
:100AC00010BDC04600000020750A000008B543684C
:100AD000984708BDF8B506680F1C8C1B018924B225
:100AE000013189B2051C0181054B201C98478619EC
:100AF0002E60BE1B74436B681C196C60F8BDC04649
:100B00007111000038B5041C0D1C064B01894068AA
:100B10009847236880B22B600023238123606360A1
:100B200038BDC04671110000002310B54209C40948
:100B30009C4202D1D301104A9B181F22012402407B
:100B40009440012904D19C601B184033002210E01E
:100B5000002908D102225C601B1840331A701A78F1
:100B600004310A4305E0032904D140229C601B188C
:100B700040331A7010BDC0460044004184B0F0B547
:100B80000E1C1D1C041C85B00B910C920D939069DA
:100B9000164B171C98473369F16800937369AA686C
:100BA00001932B79844602936B790E980393AE7967
:100BB000EB682D7CE16000997F69216101992760D4
:100BC00061616946097AA060217669466746201C02
:100BD000097B2362631D67606176A676E261DD773B
:100BE00005B0F0BC08BC04B01847C046992000000E
:100BF000024BDB695B07FBD47047C046001C004218
:100C0000F8B50226204B21491A6A214C023A1A6291
:100C10001A6A204D52181A621A6A071C32431A6265
:100C20001D4B4122191CD6310A704A708021BB33FA
:100C30000F3A1A70194A3F01136A0B4313620422D8
:100C4000174BFF329A60174A5A60174A5A80174B5F
:100C50002360A847C0239B026360A847144B144A33
:100C6000D81B010C134F00230004B84780B2A081A9
:100C7000A84723681E432660A8470F4B0F4A9C6075
:100C80005A600F4A1A60F8BD0008004000FDFFFFDF
:100C9000001C0042F10B0000004400410004004031
:100CA000000C0040030623001943000004003140FB
:100CB00000127A00D1130000E4080020D50C0000D7
:100CC000110D0000086070470368187E4007C00FD0
:100CD00070470000F8B5071C0E1C141C0D1C381CB6
:100CE000074B083098470028F9D0BB681B8D2B7044
:100CF0000135AB1BA342F2DB201E00DC0120F8BD56
:100D0000C90C00000368187E0123184070470000DA
:100D1000F7B5071C0D1C00923E1C08360D4C301C0C
:100D2000A04701940028F7D02C1CEFF3108372B673
:100D300022783A8683F31088301C019B984700285C
:100D4000FAD0009A0134631B9342EEDB101E00DCE4
:100D50000120FEBD050D0000EFF30583FCE7000058
:100D60002148224970B50023884201D1204B07E079
:100D7000204CCA18A242F9D2C45804331460F7E7D1
:100D80001D4A934202D2002204C3F9E7FF21022444
:100D900003251A4B1A4A8B430C2693600822194BE1
:100DA00019495C62CB78AB432343CB70CB78B34318
:100DB0001343CB703021154B987B8843103908437F
:100DC0009873997BB1431143997380219A7BAA430D
:100DD00022439A730E4A53680B4353600D4B984756
:100DE0000D4B9847FEE7C046A479000000000020A4
:100DF00088080020880800201C5700200000000000
:100E000000ED00E0FC70004100500041004800414E
:100E10000040004151430000850E0000014A024B92
:100E20001A60704740420F000800002038B50720C4
:100E30000C4C0021A0470A200121A04708200121D5
:100E4000A0470C200321A0478023074DDB00AB61A6
:100E500080235B00AB6109200121A04780239B0018
:100E6000AB6138BD290B0000004400410122034B57
:100E70001A70034BFE329A737047C04694180020D4
:100E8000002C0042F0B5554BF1B09847544B9847B1
:100E9000544B9847544B9847544B98479620544B83
:100EA00080019847534B984719AC04A95248534BBB
:100EB00098471FAD201C524B9847281C514B984710
:100EC000201C514B98470FAA111C14ABC1CBC1C1B8
:100ED00041CB41C10D9208224C4B0C951A608022E7
:100EE000D2021A60002364260593281C484F013E55
:100EF000B847F6B208A82599464B9847002EF4D17A
:100F000008A8011C444B9847C8360690281C013E8F
:100F1000B847F6B208A825993E4B9847002EF5D160
:100F2000089B08A80793011C3B4B98473B4B069036
:100F30009847371C02903A4B394A1B6801331360BB
:100F4000364B98470590029A059B9B1A354A934267
:100F500019D9059BE122029330A9334B0498984795
:100F6000324B30A918700FA8314B98470E9B0C9A42
:100F700003930093211C0D9B0B9426A82D4EB04784
:100F80000023274A13602C4B1B78002B1CD0281CF5
:100F90001F4B9847259A079BBE009B1A274A201C87
:100FA000B350194B98471C9B01370393039A244B6A
:100FB000F2501D9B0393039A224BF2501E9A224B30
:100FC000F25000231C4A1370FA239B009F42B2D1B7
:100FD000C8201E4B400098470027ACE71D0E0000BC
:100FE0008D0A0000C5080000A90900002D0E0000B0
:100FF000010C000061090000E4080020C50C00009D
:10100000E5050000F50600007506000000E100E0BF
:1010100071070000D50A0000050B0000410A00001E
:10102000AC08002010270000CD0A0000F0080020C6
:101030004D0500007D0B000094180020784700202B
:10104000D8370020F40800209818002089080000F4
:10105000002243088B4274D303098B425FD3030AF7
:101060008B4244D3030B8B4228D3030C8B420DD30A
:10107000FF22090212BA030C8B4202D31212090298
:1010800065D0030B8B4219D300E0090AC30B8B42D6
:1010900001D3CB03C01A5241830B8B4201D38B0384
:1010A000C01A5241430B8B4201D34B03C01A524129
:1010B000030B8B4201D30B03C01A5241C30A8B426C
:1010C00001D3CB02C01A5241830A8B4201D38B0257
:1010D000C01A5241430A8B4201D34B02C01A5241FB
:1010E000030A8B4201D30B02C01A5241CDD2C3096D
:1010F0008B4201D3CB01C01A524183098B4201D3E9
:101100008B01C01A524143098B4201D34B01C01AD3
:10111000524103098B4201D30B01C01A5241C3084B
:101120008B4201D3CB00C01A524183088B4201D3BA
:101130008B00C01A524143088B4201D34B00C01AA6
:101140005241411A00D20146524110467047FFE712
:1011500001B5002000F0FCF802BDC0460029F7D020
:1011600003B5FFF775FF0EBC4243891A1847C04606
:1011700003460B437FD4002243088B4274D30309F8
:101180008B425FD3030A8B4244D3030B8B4228D399
:10119000030C8B420DD3FF22090212BA030C8B42BF
:1011A00002D31212090265D0030B8B4219D300E05F
:1011B000090AC30B8B4201D3CB03C01A5241830BE4
:1011C0008B4201D38B03C01A5241430B8B4201D394
:1011D0004B03C01A5241030B8B4201D30B03C01ABD
:1011E0005241C30A8B4201D3CB02C01A5241830A37
:1011F0008B4201D38B02C01A5241430A8B4201D366
:101200004B02C01A5241030A8B4201D30B02C01A8F
:101210005241CDD2C3098B4201D3CB01C01A5241F6
:1012200083098B4201D38B01C01A524143098B427F
:1012300001D34B01C01A524103098B4201D30B0168
:10124000C01A5241C3088B4201D3CB00C01A52418D
:1012500083088B4201D38B00C01A524143088B4252
:1012600001D34B00C01A5241411A00D201465241EB
:10127000104670475DE0CA0F00D04942031000D30A
:101280004042534000229C4603098B422DD3030A5F
:101290008B4212D3FC22890112BA030A8B420CD36F
:1012A000890192118B4208D3890192118B4204D398
:1012B00089013AD0921100E08909C3098B4201D318
:1012C000CB01C01A524183098B4201D38B01C01A52
:1012D000524143098B4201D34B01C01A52410309C9
:1012E0008B4201D30B01C01A5241C3088B4201D378
:1012F000CB00C01A524183088B4201D38B00C01A25
:101300005241D9D243088B4201D34B00C01A5241FB
:10131000411A00D20146634652415B10104601D388
:101320004042002B00D54942704763465B1000D312
:10133000404201B5002000F00BF802BD0029F8D0B2
:1013400003B5FFF715FF0EBC4243891A1847C04684
:101350007047C0468446101C62468C46191C634682
:1013600000E0C0461FB501F0DFFD002801D40021D8
:10137000C8421FBD10B501F023FD4042013010BD31
:1013800010B501F0D1FD002801DB002010BD0120C7
:1013900010BDC04610B501F0C7FD002801DD0020DA
:1013A00010BD012010BDC04610B501F04DFD002854
:1013B00001DC002010BD012010BDC04610B501F0B9
:1013C00043FD002801DA002010BD012010BDC046F9
:1013D000002B11D1002A0FD1002900D1002802D002
:1013E0000021C943081C07B4024802A1401802901A
:1013F00003BDC0465DFFFFFF03B4684601B5029818
:1014000000F064F8019B9E4602B00CBC7047C046D9
:10141000F0B54F46464605042D0C2C1CC0B41704ED
:10142000160C3F0C9946030C7C4375435F43734392
:101430007D19260CAD199C46AF4203D980235B026F
:101440009846C4444B465143434324042E0C240C79
:101450002D0466442C1959188919201C0CBC90467F
:101460009946F0BD9E2110B5C905041C02F0D2FCBE
:10147000002803D1201C00F0A7FD10BD9E21201CD8
:10148000C90500F023FC00F09FFD80231B069C464D
:101490006044F2E7F0B583B0161C1F1C0090019168
:1014A00002F0E0FC041C0D1C221C2B1C301C391CFF
:1014B000FFF7AEFF009A019B121A8B410899201C7E
:1014C0000A604B60291C03B0F0BDC046F0B5141C87
:1014D00083B01D1C0090019102F0BCFD221C2B1C4E
:1014E000061C0F1CFFF794FF009A019B121A8B41F8
:1014F0000899301C0A604B60391C03B0F0BDC0462F
:10150000F8B54A00430244004E02C50F240E281CC1
:101510009B09120EC90FB7098D4240D0A01A0028AE
:1015200000DC84E0002A1CD1002F5CD15A0704D0D3
:101530000F221A40042A00D004338022D2041A4019
:10154000281C002A24D00134FF2C00D17BE09B0111
:101550005B0AE4B25B02E4055B0A2343C00718435D
:10156000F8BDFF2CE2D08022D204174301261B28AD
:1015700008DC391C20223E1CC140101A8640771E10
:10158000BE410E439B1B5A0133D4281C5A07CFD1AE
:10159000DB08FF2C1ED05B025B0AE4B2DAE7A11A7B
:1015A000002957DD002A3AD0FF2CBFD08022D20478
:1015B000174301261B2972DD9B195A01E5D5013419
:1015C000FF2C00D187E001218A4A194013405B08B3
:1015D0000B43ABE7002B36D08022D20313435B02D0
:1015E0005B0AFF24B6E7013800283FD1DB1B5A0114
:1015F000CBD59B019E09301C02F016FC05388640B5
:10160000844223DC001B1F24321C431C201ADA40B6
:101610008640131C741EA6410024334386E7002F26
:1016200000D183E70139002950D1DB19C5E7002833
:1016300020D1621CD2B2012A5EDDDE1B720128D5E8
:10164000FE1A0D1CD7E7FF24002383E7694B241AF9
:1016500033406BE7002958D1621CD1B201293CDD2F
:10166000FF2A37D0FB185B08141C5FE7FF2C00D063
:101670007CE75BE7002C1ED0FF2A23D08024E40403
:10168000404223431B285BDD0123FB1A141C0D1C65
:10169000ADE7002EAFD100230020002478E73A1CEC
:1016A000CA40944620223E1C511A8E406246771E44
:1016B000BE41164380E7002B3ED0C0430028E4D053
:1016C000FF2ADFD13B1CFF240D1C2FE7FF2C00D08D
:1016D0006FE72BE7FF2400235AE7002C5AD1002B99
:1016E0007FD0002F00D121E7DB195A0100D44CE74D
:1016F000404A0134134019E7002C15D1002B2FD19B
:10170000002F5DD03B1C0D1C10E7002C21D1002BBD
:1017100053D0C943002904D0FF2A4BD01B2957DDE1
:101720000123DB19141C48E7002B22D1002F4AD0DB
:101730003B1C0D1CFF24F9E63B1C141C0D1CF5E69C
:101740001D1C2024C540201A8340581E83412B4372
:101750009BE7FF2A2ED08024E40449422343DDE79F
:10176000002F00D1E2E6DA1B50013CD5FB1A0D1C1C
:10177000DCE6FF24002F00D1D8E68022DB08D2036C
:10178000134204D0FE08164201D1331C0D1CDB00AD
:10179000FF24CBE6002B0DD0FF24002F00D1C5E69F
:1017A0008022DB08D2031342F1D0FE081642EED1AC
:1017B000331CECE73B1CFF24B8E63B1C141CB5E6CD
:1017C000231C0020E4E6802300209B04FF24DFE6A6
:1017D0001E1C2024CE40611A8B40591E8B4133437E
:1017E0009FE73B1CA2E6131E00D0CEE6002300209C
:1017F000CEE6C046FFFFFFFBF0B556464D465F46BE
:101800004446F0B443024500C70F83B08A465C0AE1
:101810002E0EB94641D0FF2E26D080231B04234331
:10182000DC00002398469B467F3E53465B025D0AE0
:1018300053465A00DB0F120E9A4639D0FF2A33D096
:1018400080231B042B43DD0000237F3A5146B21A4C
:1018500046467940081C01921E430F2E00D976E0BF
:101860007E4AB6009659B746002C30D108239846D8
:10187000063B9B46D9E780230021DB03FF245B0264
:10188000E4055B0AC90723430B43181C03B03CBCA7
:1018900090469946A246AB46F0BD002C28D10423C1
:1018A0009846033B9B46C0E7002D1FD1022302E070
:1018B000002D11D10123B21A5046464678400192BC
:1018C0001E430F2E27D86649B60089598F460C2330
:1018D0009846093B9B46A8E7281C02F0A5FA762209
:1018E000431F52429D40121A0023AFE70323ADE786
:1018F000201C02F099FA431F9C4076235B421E1A7B
:10190000002398469B4690E70025D1469B465B46C0
:101910004846022B6FD10121FF2401400023AEE78E
:101920007E23019A5B429B1A1B2B6DDD01214B46E6
:10193000194000240023A2E78023DB031C4249D185
:101940008023DB0323435B025B0A391C96E76301B8
:101950006D01AB4237D389461A2001215B1B01245C
:101960001E1C49005B00002E01DBAB4201D35B1B58
:10197000214301380028F3D1581E83410B431D1C1D
:10198000019C7F34002CCBDD6B0704D00F232B4050
:10199000042B00D004352B0104D5019A314B803241
:1019A000141C1D40FE2C07DD4B460121FF2419406D
:1019B000002364E7251CAAE701214A46AB015B0A24
:1019C000E4B211405BE7019A8946013A01921B207B
:1019D0000021C4E71D4207D023435B025B0A391C88
:1019E0004CE700256302ABD58023DB032B435B026E
:1019F0005B0A514642E7032B25D0012BC0D10121C0
:101A00000024014000233AE7291CD9402B1C019AED
:101A10009E3293405D1EAB410B435A0704D00F2208
:101A20001A40042A00D004335A0105D54B4601213F
:101A300001241940002322E701214A469B015B0A49
:101A4000114000241BE7802301214A46DB032B437E
:101A50005B020A405B0A111C10E7C046E0730000FD
:101A600020740000FFFFFFF7F0B55F4656464D4675
:101A70004446F0B445024600C40F83B00F1C6D0A03
:101A8000360EA34645D0FF2E25D080231B041D43D0
:101A900000239A46ED007F3E01937B025B0A984645
:101AA0007800FB0F000E994640D0FF2838D08023E5
:101AB00042461B041343DB00984600237F384A4606
:101AC000019F30186240411C1F430F2F69D87D4E83
:101AD000BF00F659B746002D45D108230193063BB8
:101AE0009A46DAE793465346022B2FD15B460124F0
:101AF00000251C40FF236D02DB056D0AE4071D4332
:101B00002543281C03B03CBC90469946A246AB46F0
:101B1000F0BD002D2CD104230193033B9A46BCE772
:101B200043465A4253410322D31AC8E7424601238F
:101B3000002AC4D0404602F077F94246431F9A403B
:101B400076235B42181A90460023B8E7032B00D196
:101B5000ADE0012B00D08CE05B4654461C40E4B263
:101B600000230025C7E70C230193093B9A4694E71D
:101B7000281C02F059F97626431F9D400023764227
:101B8000361A01939A4688E780250024ED03FF2347
:101B9000B1E74546CB469A46A5E7454693469A4661
:101BA000A1E743462C041B0C9C46230C4446260408
:101BB0001C1C360C2F0C7443351C66467D43734346
:101BC0007743EB18260C9E19B54203D980235B029C
:101BD0009C46674424043304240C1B199D016C1E8D
:101BE000A5419B0E360C2B43BD19AD011D432B01A6
:101BF00004D5012368081D400543081C031C7F33DE
:101C0000002B2CDD690704D00F212940042900D0C6
:101C10000435290103D52C4B1D40031C8033FE2BBA
:101C200017DD0124FF231440002564E78020C00352
:101C3000054209D04346034206D1454605436D029D
:101C40006D0A4C46FF2356E705436D026D0AFF23DC
:101C500051E70124AD016D0ADBB214404BE77E234E
:101C60005B421B1A1B2B07DD0124002314400025B7
:101C700041E7081C5A46C1E79E30291C8540D940DF
:101C8000681E85410D436B0704D00F232B40042BA6
:101C900000D004356B0104D5012401231440002534
:101CA00029E70124AD016D0A1440002323E78023B6
:101CB000DB031D4301245B466D0223401C1C6D0A9F
:101CC000FF2318E760740000FFFFFFF7F8B54A0034
:101CD000430244004D02C00F240E061C9B09120E45
:101CE000C90FAD09FF2A00D175E00127794088426C
:101CF00050D0A01A002800DC8FE0002A1ED1002D51
:101D000000D075E05A0704D00F221A40042A00D0F0
:101D1000043380220120D2041A403040002A32D0FD
:101D20000134FF2C00D184E09B015B0AE4B25B022A
:101D3000E4055B0A2343C0071843F8BDFF2CE1D03C
:101D40008022D20415431B287ADD01255B1B5A0132
:101D50005DD59B019F09381C02F066F80538874065
:101D6000844269DC001B1F243A1C431C201ADA4001
:101D70008740131C7C1EA74100243B43C2E7131E6F
:101D800045D100230020DB08FF2C28D05B025B0A32
:101D9000E4B2CCE7A11A00295BDD002A2ED0FF2C8B
:101DA000B0D08022D20415431B2974DC2F1C2022C2
:101DB000CF40511A8D40691E8D413D435B195A0138
:101DC00025D50134FF2C74D001217E4A19401340DF
:101DD0005B080B4396E7002D00D088E785E7002BD2
:101DE00027D08022D20313435B025B0AFF249EE7C5
:101DF00001380028AAD0FF2CA5D183E7002D00D1FF
:101E000080E701390029D9D0FF2CCDD17AE75A07D4
:101E100000D079E701203040B5E7002825D1621CC9
:101E2000D2B2012A55DD5F1B7A012DD5EF1A0E1CA7
:101E300091E7FF2400237AE7624B241A3B4061E7D5
:101E4000291C2022C140101A8540681E85410D437F
:101E50007CE7002946D1621CD1B201292BDDFF2A83
:101E600026D0EB185B08141C4CE7002C15D0FF2A79
:101E70001AD08024E404404223431B284DDD012373
:101E8000EB1A141C0E1C62E7002F00D063E700233E
:101E90000020002477E7012590E7002B39D0C043CC
:101EA0000028EDD0FF2AE8D12B1CFF240E1C29E7C7
:101EB000FF24002367E7002C5AD1002B7FD0002D90
:101EC00000D11FE75B195A01A1D53E4A01341340E6
:101ED00018E7002C15D1002B2FD1002D5ED02B1C24
:101EE0000E1C0FE7002C21D1002B54D0C943002930
:101EF00004D0FF2A4CD01B2958DD01235B19141C88
:101F00005DE7002B23D1002D4BD02B1C0E1CFF2492
:101F1000F8E62B1C141C0E1CF4E61E1C2024C640E4
:101F2000201A8340581E83413343A9E7FF2A2FD04C
:101F30008024E40449422343DDE7002D00D1E1E69B
:101F40005A1B500100D41AE7EB1A0E1CDAE6FF24E4
:101F5000002D00D1D6E68022DB08D203134204D044
:101F6000ED08154201D12B1C0E1CDB00FF24C9E635
:101F7000002B0DD0FF24002D00D1C3E68022DB080A
:101F8000D2031342F1D0ED081542EED12B1CECE741
:101F90002B1CFF24B6E62B1C141CB3E6231C0020CC
:101FA000F1E6802300209B04FF24ECE61F1C202484
:101FB000CF40611A8B40591E8B413B439EE72B1C3F
:101FC000A0E6C046FFFFFFFB4202510A4200C30FDA
:101FD000120E00207E2A0DDD9D2A0CDC80200004DC
:101FE0000143952A0ADC9620821AD1400A1C5842E5
:101FF0004240D0187047034A9818FBE7963A914040
:102000000A1CF4E7FFFFFF7F70B5041E39D0C50F2F
:1020100000D04442201C01F007FF9E23261C1B1AFF
:10202000962B07DC082801DD083884406402640A26
:10203000D8B21EE0992B0ADD0522211C121AD140CC
:102040000A1C011C1B318E40711E8E41164305284F
:1020500001DD421F96400F4C3440720704D00F221E
:102060001640042E00D0043462010ED4A401640A88
:10207000D8B26402C005640AED0704432C43201C57
:1020800070BD002500200024F3E7024B1C409F2375
:102090001B1AEBE7FFFFFFFB10B5041E35D001F064
:1020A000C3FE9E21091A962909DC082830DD021C8E
:1020B000231C083A93405B025B0AC8B220E09929CE
:1020C0000CDD0522231C121AD3401A1C031C1B33DF
:1020D0009C40231C5C1EA34113431C1C052801DDEE
:1020E000431F9C400F4B2340620704D00F22144033
:1020F000042C00D004335A010ED49B015B0AC8B2F1
:102100005B025B0AC005184310BD00200023F7E7FF
:1021100063025B0AC8B2F3E79F21024A091A13401F
:10212000EBE7C046FFFFFFFBF0B5454657464E467E
:1021300094464C000A03C90FE0B488460E1C1903EC
:10214000470FC500480A6146490F01436046520ADD
:102150001743C0005A00640D520DDB0F84469845AA
:1021600000D1A7E0A01A002800DC01E1002A3DD13F
:1021700063460B4300D0D4E06B0700D188E00F2307
:102180002B40042B00D183E02A1DAA42AD418023BD
:102190006D427F191B043B404646151C002B00D1A5
:1021A0007CE0CC4B01349C4200D1FDE03A1CCA4B90
:1021B000ED081A405007640552020543120B640DE6
:1021C000002112030B0D1B056405120B1A43630853
:1021D000C24CF60714401C43640064083443281CB6
:1021E000211C1CBC90469946A246F0BDB94B9C42AE
:1021F000C2D080231B041943382800DDECE01F28DF
:1022000000DD21E120220E1C6346121A9640C340D5
:10221000334366469640321C561EB24113430A1C95
:10222000C240EB1A9D42B6411D1CBA1A7642971B5A
:102230003B0200D497E07A02560A002E00D1B6E0A5
:10224000301C01F0F1FD031C083B1F2B00DDB7E043
:102250009E40371C28262A1C361AF240161C9D4028
:102260003E439C4200DDB2E01C1B621C1F2A00DDC5
:10227000D8E01F23291C1C1B331CA540A340D140C0
:102280006C1EA541D64019430D43371C002473E74B
:1022900080231B043B40464600D082E78D4BED086F
:1022A00078070543FA089C4232D012036405120BEA
:1022B000640D85E7A31A002B00DC94E0002A3CD0D3
:1022C000844A944200D157E7802212041143382BEC
:1022D00000DC05E163461943481E81410022C8B273
:1022E0004019A8429B41051CD2195B42D7183B02FA
:1022F00039D5784B01349C4200D14CE10120764A1B
:102300006B083A4028401843D5070543570833E780
:102310002B1C134348D080231B031A431203120BB8
:102320004EE70138002878D16346EE1AB5429B414A
:102330007A1A5B42D71A351C7AE7021C0A4300D18D
:102340001AE7013B002B00D0F2E04019A8429B4164
:10235000CA195B42D718051CC9E7131C334300D1C7
:1023600018E1171C351C46466B0700D007E795E7B8
:1023700000287AD1621C5205520D012A00DCFBE0D4
:102380006246AA1A9542B6419146781A7242861A56
:10239000320200D493E06246551BAC458041CF1B0E
:1023A00040423E1A984648E70022002508E7281CCC
:1023B00001F03AFD2030031C083B1F2B00DC47E7EF
:1023C000283885402E1C00259C4200DC4CE7424A00
:1023D000E41A1640371CCFE6634619434B1E994159
:1023E0000022CBB21DE7002B00D0F2E0601C4305B9
:1023F0005B0D012B00DCA4E0364B984200D121E1BB
:1024000063465C19AC429B41CF195B42FA186408E1
:10241000D50725435708041CAEE62E4B9C4200D03E
:10242000EAE6A9E6211C331C1F39CB40191C202ADF
:1024300000D182E03F231C1BA64035436E1EB541F0
:1024400000270D4300248EE7031C0E1C203BDE40BA
:10245000202874D040231B1A99400B1C624613435A
:10246000591E8B4100223343DBE6002C50D0194C1F
:10247000A24200D1A8E08024240440422743382807
:1024800000DDD9E01F2800DD39E120243E1C241A9C
:10249000A640B0462E1CA146C640444626434C46A4
:1024A000A5406C1EA541C74035436046451BCF1B68
:1024B000AC45894149427F1A141C9846B8E64B4600
:1024C0004D46334300D0B8E60026002700240025FF
:1024D000E4E6C046FF070000FFFF7FFFFFFF0F801D
:1024E0001F2B5BDC2022081CD21A904081466046DC
:1024F0009246D8404A461043814652466046904034
:10250000021C501E8241484610430A1CDA40E7E68E
:102510003C1C2C4358D0C043002851D16046451B79
:10252000AC458041CF1B40423F1A141C98467FE6C1
:102530008F4A944200D0CAE61EE600267DE70023BB
:102540008CE73B1C2B43002C00D0BDE0002B00D1BE
:10255000F5E063460B4300D10EE663465B19AB42E0
:102560008041CA19404217183A0200D4FCE0814A5F
:102570001D1C17400134FFE53A1C2A43002C51D1A1
:10258000002A00D085E062460A4303D00F1C65464E
:102590009846F1E50026002700257FE6181C0A1C56
:1025A0002038C240202B00D1A7E04020C01A814033
:1025B000081C63461843411E8841104300228FE6E1
:1025C0006B4CA24200D05AE70F1C6546141C98467B
:1025D000D2E5002C3AD1381C284371D0DB43002BC4
:1025E00018D0634882426BD0382B00DD9DE01F2B52
:1025F00000DDA7E020203C1CC01A8440A1462C1C12
:102600008246DC404846044350468540681E85416A
:10261000DF402543654465459B417F185B42FF18B9
:10262000141C64E6002A19D162460A4377D00F1CB5
:10263000654698464E4C9FE53D436F1EBD410027C1
:10264000EDB232E7041C0027002527E64848824205
:1026500036D0802000045B420743C5E762460A4348
:1026600049D08024ED087807FA0824032843224241
:1026700009D0CE08264206D162464F07381CD20840
:1026800010439846321CD200470F1743C500384C00
:1026900072E562460A4300D16EE56246AE1AB54263
:1026A0009241781A5242821A100200D455E66246CC
:1026B000551BAC458041CA1B4042171A98465BE542
:1026C0000F1C6546141C57E5002B34D063460B43A2
:1026D00011D08024ED087807FA0824032843224209
:1026E000D1D0CB082342CED162464F07381CD20846
:1026F00010431A1CC7E71E4C3EE5002059E7041C96
:102700003E1C203CE640341C20282BD04026301AAA
:1027100087403D436F1EBD4100272543C5E6802706
:102720000026FF03124C0025B8E53D436F1EBD4156
:102730000027EDB26EE70F1C65460D4C1CE50F1C23
:10274000654619E51C1C381C203CE040041C202B6D
:102750000CD04020C31A9F403D436F1EBD4100274F
:10276000254357E70027D4E71D1CFCE50027F3E7C6
:10277000FF070000FFFF7FFFF0B55F4656464D465E
:102780004446F0B40F0387B098464D003B0BCC0F86
:10279000061C924681469B466D0D01946BD0664B9C
:1027A0009D4235D080275B467F031F43F300994647
:1027B000624BFF00400F9C4607430023BB460026A8
:1027C00065440093424617035000D20F53463F0B17
:1027D000400D904600D172E0574A904267D0802366
:1027E0005B031F435346554A5B0FFF001F4394464C
:1027F00053460021DB0060444246624092462D1A57
:102800000E430F2E00D9A1E04D48B60080598746EF
:102810005B461E4300D076E000239B469946023378
:1028200008260093CEE799464346BB4601930091A4
:10283000009B022B6BD1019B9A460021534601223B
:10284000002789461A403C4B00213F030C0D24050C
:102850003F0B27433B4C1B0527401F437F00D207FC
:102860007F0817434846391C07B03CBC9046994640
:10287000A246AB46F0BD03433ED05B46002B00D1E1
:102880009CE1584601F0D0FA2823311C1B1A021C87
:102890005F46D940083A97400B1C96403B439B4605
:1028A000B1460023284D00262D1A00938AE7524690
:1028B00003213A43A0D10027002302219CE752467E
:1028C0003A4315D0002F00D185E1381C01F0ACFA55
:1028D000021C28215046891A131CC8405146083B47
:1028E00099409F400B1C074317480021801A83E73B
:1028F0000027002301217FE700239B4699460133EF
:10290000042600935EE703230C2600935AE7032B6B
:1029100000D13CE2012B00D0BFE11A1C019B1A4000
:1029200000210023002789468EE70023802799464F
:1029300000223F03004B87E7FF07000001FCFFFF79
:10294000A0740000FFFF0F800DFCFFFFBB4500D906
:1029500051E100D14CE14A46039200225C46904688
:10296000013D180E3F0238431B020193030C9946A8
:1029700003041B0C4946061C201C1F1C0093FEF779
:1029800067FB021C7A4302904946201C171CFEF785
:10299000E5FB039B09041B0C19438F420CD9029BD6
:1029A0008919013B8E4200D952E18F4200D84FE194
:1029B000029B8919023B0293CC1B201C4946FEF75F
:1029C00047FB009F834647434946201CFEF7C6FB52
:1029D000039A0B041404240C23439F420DD95A4636
:1029E0009B19013A9E4200D930E19F4200D82DE167
:1029F0000222524294469B19E344029ADB1B1704BD
:102A00005A463A439346019C170C220C101C049220
:102A10005A4611042204120C141C090C7C43059222
:102A20004A43414347436118100C09188C4203D9AB
:102A300080204002844667440C0C12040804120CE7
:102A40003C198118A34200D2E5E000D1DFE01F1B52
:102A500043465C1AA04592415242BF1AB74200D188
:102A60000EE1381C4946FEF7F3FA009B02904343FF
:102A70004946381C9846FEF771FB230C0F041F4390
:102A8000B8450CD9029BBF19013BBE4200D9FBE0FF
:102A9000B84500D8F8E0029BBF19023B02934346B9
:102AA000FF1A4946381CFEF7D3FA009B03904343B4
:102AB0004946381C9846FEF751FB24040904240CAF
:102AC000214388450CD9039B8919013B8E4200D9CB
:102AD000DCE0884500D8D9E0039B8919023B0393C9
:102AE0004346C91A029B039A1B04059C1A43100C07
:102AF00013049146221C049F1B0C5A4344437B43FE
:102B00007843E318170CDB199C4203D98024640234
:102B1000A44660441C0C12041B04120C00199B18E0
:102B2000814200D296E000D1FCE04A4601231A43DC
:102B300091469B4BEB18002B00DC99E04A4652076C
:102B40000AD00F2249460A40042A05D004314945DB
:102B500092418946524293445A46D20106D55A467A
:102B6000904B1A4080239346DB00EB188E4A934229
:102B700000DD62E64A465946D208490711435A46E3
:102B800089465702514601225B053F0B5B0D0A4007
:102B90005AE680205A460003024208D0074206D176
:102BA00007433F0399463F0B4246804B4CE65F4646
:102BB00007433F033F0B221C7C4B45E601F034F9F1
:102BC000031C2030272800DC5EE6083B9E400023E3
:102BD000B346994665E6504601F026F9021C2032BC
:102BE000272A00DC75E657460838874000237BE635
:102BF000994500D2AFE65A46594654084A46C80796
:102C00005208024303924A46D2079046A9E600279B
:102C1000884500D31CE7019F5A46BC46E044B845AE
:102C2000BF417F42BF19FF18013ABE4206D2BC42E3
:102C30005FD800D19FE03F1B934609E7B742FAD126
:102C4000019B4345F3D9371B934601E79346D4E6EE
:102C50000293B1E64A468919013A8E4218D9914643
:102C6000814200D061E7019A9A4200D05DE760E7B7
:102C70004F4F7F1B382F13DD012253461A404FE67A
:102C800001235B42994654E7029308E7039327E741
:102C900088423CD874D0914647E7019B9A4648E762
:102CA0001F2F44DC434B4A469C465B466544FA4032
:102CB000AB4013434A46AA40151C6A1E95415A462A
:102CC000FA402B43171C5A0709D00F221A40042A36
:102CD00005D01A1D9A429B415B42FF18131C3A0211
:102CE0003ED55346012200211A4000270123894680
:102CF000AAE502235B429C46019AE3449446E044E1
:102D000090459B415B429B19DF193F1BA0E6019F49
:102D10004A467C00BC42BF417F42BF19023AC919F2
:102D200001949CE7002B95D1002201929BE75A4623
:102D3000214B5B1BDA40202F27D0204B9C465B4663
:102D40006544AB4049460B43591E8B411343072250
:102D500000271A4007D00F2200271A40042AB8D1B2
:102D60007A077F023F0BDB08134399460122534643
:102D70001A40002368E54145BBD89346002767E623
:102D8000019C9C42C3D391466DE70023DAE780277C
:102D90005B463F031F433F033F0B019A034B53E541
:102DA000FF030000FFFFFFFEFE070000FF0700001B
:102DB00002FCFFFF1E040000E2FBFFFF3E040000D8
:102DC000F0B55F464D4644465646F0B41F035C00DE
:102DD000DB0F99461B4B0E034D00C90F8446360B83
:102DE0006D0D8B4690463F0B640D9D420CD0154BEC
:102DF0009C4210D00123A54214D0181C3CBC904624
:102E00009946A246AB46F0BD311C01230143F4D1E3
:102E10000C4B9C42EED13A430123002AEDD1012311
:102E2000A542EAD1BE42E8D1C445E6D1CB4506D0A1
:102E3000002DE2D13043031C581E8341DDE70023FF
:102E4000DBE7C046FF070000F0B5574645464E4653
:102E5000E0B40F034E00C90F8A4632491D035C00DF
:102E600084463F0B760D90462D0B640DDB0F8E4292
:102E70000FD08C4239D0002E10D13843414241410D
:102E80008946002C27D12A4325D1002000290ED1C4
:102E900008E0391C01432ED1B44226D0002C0BD0BF
:102EA0009A450DD05346594201231943081C1CBCB6
:102EB00090469946A246F0BD2A43F3D09A45F1D1F7
:102EC000A642EFDC1ADA5046414248410123414212
:102ED0001943081CEBE74A46002AE1D05842584102
:102EE000012241421143081CE1E7291C114302D190
:102EF000002EC2D0D4E702204042D8E7AF42D1D85A
:102F000009D00020AF42D2D250464142484101236D
:102F100040421843CBE7C445C4D80020C445F3D38E
:102F2000C5E7C046FF070000F0B55F464D46444682
:102F300056468046F0B4061C0803000B84462C4815
:102F40004C001F035D00C90F640D8B4691463F0B7B
:102F50006D0DDB0F844212D0854225D0002C14D198
:102F600061460E4370424641002D35D0002E21D0DF
:102F700058425841012143420B43181C0EE0614660
:102F8000022031430AD1A5420ED0002D12D13A437E
:102F900010D15B46594201231943081C3CBC9046A2
:102FA0009946A246AB46F0BD391C02201143F5D12B
:102FB000002CD5D09B45ECD1AC42EADC05DBBC450E
:102FC000E7D80FD00020BC45E8D2584641424841DE
:102FD000414201200843E1E73A43C7D10020002ED7
:102FE000DCD1D6E7C845D4D80020C845EDD3D5E715
:102FF000FF070000F0B55F4656464D464446F0B424
:10300000051C061C080387B099464F00030BCC0F24
:1030100092469B467F0D019467D06C4B9F4236D001
:1030200080205B4640031843C0006B0F1843684B79
:1030300083469C4600239846EE00674400934B4627
:1030400049461D03C90F5B0052462D0B5B0D894697
:1030500000D16EE05D498B4264D080205C49400322
:103060008C4600210543ED00500F0543D200634418
:103070004846FF187B1C9A46009B604002900B4319
:103080000F2B00D9ACE053489B00C3589F465B46CA
:103090001D4300D082E00823009300239B460233A7
:1030A00000269846CBE7029B01934346022B59D159
:1030B000012400250026019B1C40444B00212D03C8
:1030C0000A0D12052D0B1543434A1B0515401D43E0
:1030D0006D00E4076D082543301C291C07B03CBC7B
:1030E00090469946A246AB46F0BD2B434ED05B4678
:1030F000002B00D185E1584600F096FE021C2823E3
:10310000291C9B1A161C5846D940083EB0400B1C7F
:10311000B54003439B462E1C0023304F0093BF1A3B
:1031200098468CE7514629432ED1002500220221E2
:103130009EE75146294323D0002D00D154E1281C9D
:1031400000F072FE031C28215046C91A1A1CC84000
:103150005146083A914095400A1C05431F480021FA
:10316000C31A85E7032B00D1C2E1012B00D06DE12A
:103170004446019B00251C40E4B2002300269DE745
:1031800000250022012173E7032171E70423009346
:1031900000239B4601330026984650E70C230093FA
:1031A000093B98464BE7802500242D030026074B5A
:1031B00084E74B46AB46161C0193884675E7029B95
:1031C000AB46161C019388466FE7C046FF07000018
:1031D00001FCFFFFE0740000FFFF0F800DFCFFFF0C
:1031E000330C3604360C9C46331C140C1204120C9F
:1031F000534398466346534399466346634301935A
:10320000331C41466343090C4B445B18994505D96F
:10321000802040028146019949440191190C039193
:1032200041460904090C1B045B1804932B0C9846B7
:10323000331C2D04290C4B436046009343466546DE
:1032400058435E43009B4D431B0C9946AE194E44B8
:103250008446B54203D980235B029946CC44350CA1
:103260002B1C0398634484460593009B36041B047F
:103270001B0CF3189C446046039058460504060C4A
:10328000280C84465043351C8146604665434443C0
:103290004846000C8346724314195C44A24203D989
:1032A0008022520293465D44220CAD184A46120415
:1032B000120C24044046A41862464A437143464314
:1032C00060460096464670438046100C844688440B
:1032D000E044414505D9802149028C46009961446A
:1032E0000091019803998446614499429B415B4255
:1032F00099460598434684461204120C1B049B18F9
:1033000063449C46AB4683429B4140460A19CC44E9
:10331000A2428941E344CC45B6415C46000C80465C
:10332000494276425B426418334398448C42894157
:10333000AB459B4149425B4219430D1C009B4544F0
:10334000EE187602E50D2E43B346049B56021E434B
:10335000731E9E415B46D20D324366021643DB016B
:103360000AD50123334076081E435B46DB071E4324
:103370005B465B089B465746634BFB18002B5ADDA8
:10338000720709D00F223240042A05D0321DB24202
:10339000B6417642B344161C5A46D20106D55A4667
:1033A0005A4B1A4080239346DB00FB18584A93423D
:1033B00034DD0124029B00251C400026554B7DE690
:1033C00080205B460003034208D0054206D1054336
:1033D0002D032D0B4C46161C4E4B6FE65D460543E8
:1033E0002D032D0B4B4B69E6504600F01DFD031CD1
:1033F0002033272B00DCA6E65546083885400022FE
:10340000ACE6281C00F010FD021C2032272A00DC4C
:1034100075E6083885400026AB467DE65A46F60834
:10342000520716435A4601245502029A5B052D0B9A
:103430005B0D144042E6384DED1B382D0ADD0124AA
:10344000029B00251C400026002337E6019B5746BF
:10345000029391E71F2D25DC304B321C9C466744BC
:10346000BE405B46BB40371CEA407E1EB74113435B
:103470003B431E1C5B46EB401D1C730709D00F230A
:103480003340042B05D0331DB342B6417642AD190B
:103490001E1C2B0220D50124029B00251C40002667
:1034A00001230BE65A461E4BDB1BDA40131C202D72
:1034B0001CD01C4A94465A466744BA40171C3E43E7
:1034C000721E96411E4307230025334007D00F2369
:1034D00000253340042BD6D16B076D022D0B012440
:1034E000F6081E43029B1C400023E7E50027E6E7A1
:1034F00080255B4601242D031D43019B2D032340A2
:103500001C1C2D0B034BD9E5FF030000FFFFFFFE42
:10351000FE070000FF07000002FCFFFF1E04000082
:10352000E2FBFFFF3E040000F0B54D4644465F4617
:103530005646F0B40E1C111C3203520A470F1743B3
:10354000C5001A035800DB0F9946520A4B0F83B08F
:103550001A43CB000193CF4B7400F60F640DB046B5
:10356000400D984200D1E8E00123494659400B1C28
:103570009E4200D1B1E0261A002E00DC1CE100289A
:1035800042D1131C01990B4300D0E6E06B0700D138
:103590008EE00F232B40042B00D189E02A1DAA4284
:1035A000AD418023012641466D427F191B043B40FB
:1035B0000E40151C002B00D183E0B64B01349C4219
:1035C00000D116E13A1CB44BED081A4050076405CF
:1035D00052020543120B640D002112030B0D1B0553
:1035E0006405120B1A436308AC4CF60714401C43E5
:1035F000640064083443281C211C03B03CBC904682
:103600009946A246AB46F0BDA24B9C42BED0802359
:103610001B041A43382E00DD03E11F2E00DD3FE1BD
:103620002020831B9946131C49468B409C46019BD6
:103630006046F34003430198F2408840011C481E55
:1036400081410B43EB1A9D4280411D1CBA1A404236
:10365000171A3B0200D4A8E07A02560A002E00D1C5
:10366000CAE0301C00F0E0FB031C083B1F2B00DD10
:10367000CBE02822291C121AD1409E400A1C9D40F2
:1036800032439C4200DDC8E01C1B671C1F2F00DD7D
:10369000EDE01F23291C1C1B131CA540A340F9406F
:1036A0006C1EA541FA4019430D43171C00246DE719
:1036B0008023012642461B043B401640002B00D0CD
:1036C0007BE7744BED0878070543FA089C423BD032
:1036D00012036405120B640D7EE7231A9A46002B31
:1036E00000DCA5E0002844D06A48844200D14DE7C0
:1036F0008020000402435346382B00DC1CE1019B70
:103700001A43511E8A41D1B200224919A94280416F
:103710000D1CD219404217183B0246D55D4B0134AF
:103720009C4200D169E101205B4A6B083A40284085
:103730001843D5070543570828E7131C01990B4385
:1037400000D111E74B4613E72B1C134351D08023C4
:103750001B031A431203120B3EE7013E002E00D05A
:1037600080E0691A8D429B41BA1A5B42D71A0D1C40
:103770006FE7101C019B184300D107E701235B4250
:103780009C46E2445346002B00D002E1019BD21933
:103790005919A9429B415B42D7180D1CBCE76346EF
:1037A000034300D128E1071C65466B0700D0F0E613
:1037B000012643461E4084E7002E00D081E0601CB5
:1037C0004005400D012800DC07E10199681A844694
:1037D0006545B641B81A7642861B300200D4A1E096
:1037E0008C464D1BAC458941D21B4942561A98461E
:1037F00034E700220025EFE6281C00F015FB2030FE
:10380000031C083B1F2B00DC33E7021C283A9540C1
:103810002A1C00259C4200DC36E71F4FE41A1740A3
:10382000B4E6019B1A43511E8A41D3B2002209E734
:10383000002B00D001E1601C43055B0D012B00DC77
:10384000B0E0144B984200D11EE1019BD2195919E6
:10385000A9429B415B42D2184908D5070D4357083E
:10386000041C93E60B4B9C4200D0D3E68EE6211C51
:10387000131C1F39CB40191C202F00D18EE03F2391
:103880001C1BA24015436A1E954100270D430024CE
:103890008BE7C046FF070000FFFF7FFFFFFF0F80A1
:1038A000331C101C203BD840202E79D040239B1B7A
:1038B0009A40131C019A1343591E8B410022034363
:1038C000C0E6002C53D0C74CA04200D1B0E0802409
:1038D00071428946240427434946382900DDCDE05A
:1038E0001F2900DD59E120243E1C611A8E408A46C2
:1038F000B04649462E1CCE405146B4468D406446E3
:103900004646494626436C1EA541CF4035430199A2
:10391000D71B8C464D1BAC4592415242BF1A041C2A
:10392000984696E663466546334300D096E6002601
:10393000002700240025C4E61F2B61DC2020C31AC9
:103940009B46131C59468B4051469946019BCB40E0
:103950009C464B46604603439C465B460199994012
:103960006346481E814119435346DA40CDE63C1C6C
:103970002C435DD0F1438946002955D10199D21BD2
:103980008C464D1BAC4589414942571A041C984648
:103990005FE69448844200D0ADE6F7E5002271E787
:1039A000002387E73B1C2B43002C00D0DAE0002BE0
:1039B00000D113E1131C01990B4300D1E6E549192D
:1039C000A9429B41D2195B42D7183B0200D421E1A6
:1039D000854B0D1C1F40041CD8E5381C2843002CC7
:1039E00040D1002800D083E0101C0199084303D087
:1039F000171C0D1C9846C9E500260027002560E627
:103A00005046131C2038C340181C5346202B00D1AD
:103A1000C1E0402351465B1A9A40019911434A1E66
:103A200091410022014370E66E4CA04200D053E762
:103A3000171C019D041C9846A8E5002C28D13C1CAD
:103A40002C4300D18AE0DB439A46002B00D082E071
:103A5000019BD2199C4665449D42894149425718B1
:103A6000041C59E600285BD1101C0199084300D1C1
:103A7000A4E0171C0D1C98465A4C87E53D436F1E69
:103A8000BD410027EDB242E7041C0027002518E6DF
:103A9000544CA04262D0534680245B429A46240490
:103AA00027435346382B00DD8EE01F2B00DD9DE0C1
:103AB0002024E31A9B463B1C59468B4051469946AD
:103AC0002B1CCB409C464B46644623439C465B469E
:103AD0009D4063466C1EA541CF401D43019BBF180E
:103AE0009C4665449D4292415242BF18041C13E615
:103AF000101C0199084300D148E5681A84468542A4
:103B00008041BE1A4042301A060200D447E68C4675
:103B10004D1BAC458941D21B4942571A984635E5A1
:103B2000101C0199084334D080247807ED08FF0861
:103B300024032843274208D0D608264205D1C908C5
:103B400052070A43101C371C9846FF00420F1743C8
:103B5000C500244C1AE5234CA042A2D1171C019D9C
:103B6000041C13E5002B35D0131C01990B4310D016
:103B700080247807ED08FF08240328432742E4D077
:103B8000D3082342E1D1C90852070A43101C1F1C65
:103B9000DBE7144CFAE400223FE74C463E1C203C95
:103BA000E6404946341C202932D04026761AB740D8
:103BB0003D436F1EBD4100272543A8E68027002610
:103BC000FF03084C00257CE53D436F1EBD410027E7
:103BD000EDB283E7171C019D024CD7E4171C019D31
:103BE000D4E4C046FF070000FFFF7FFF54463B1CA4
:103BF000203CE3401C1C5346202B0DD04023514653
:103C00005B1A9F403D436F1EBD410027254365E77A
:103C10000027CDE70D1CC8E50027F3E738B5041EE3
:103C200016D0C50F00D04442201C00F0FDF8174B01
:103C30001B1A0A2821DC021C211C153291400A1C87
:103C40000B21081AC4405B052403240B5B0D03E021
:103C500000250023002400220021101C24030A0D4B
:103C60001205240B14430A4A1B0514401C4364002C
:103C7000ED0764082C43211C38BD0B3884405B05DC
:103C80002403240B5B0D0022E6E7C0461E0400005F
:103C9000FFFF0F8070B50B034D00440F6D0D5B0AE5
:103CA00023436C1C6405C90FC200640D012C2ADD7E
:103CB0003B4C2C19FE2C1ADC002C35DD8001451EF6
:103CC000A841DB000343520F13435A0704D00F22CD
:103CD0001A40042A00D004338022D2041A4027D08C
:103CE0000134FF2C03D09B015B0AE4B201E0FF2406
:103CF00000235B02E4055B0A23435B00C9075B0802
:103D00000B43181C70BD002D06D113430ED10024A7
:103D10005B025B0AE4B2ECE71A43E8D08020DB00E8
:103D200080040343FF24D0E717340CDA0523002472
:103D3000DB08FF2CECD1002B2DD08022D2031343C3
:103D40005B025B0AD5E78024164824042343401B0A
:103D50001F280DDC144CA4466544AB401C1C131CEE
:103D6000AB405D1EAB41C240234313430024ACE78C
:103D70001E1C0E4C641BE640341C20280DD00C4841
:103D800084466544AB401D1C2A43531E9A41131CB4
:103D90002343002499E70023ABE70025F4E7C0465E
:103DA00080FCFFFF9E03000082FCFFFF7E030000FB
:103DB000A2FCFFFF8446081C6146FFE71FB500F028
:103DC00069FA002801D40021C8421FBD10B500F0D7
:103DD000EDF94042013010BD10B500F05BFA00284B
:103DE00001DB002010BD012010BDC04610B500F061
:103DF00051FA002801DD002010BD012010BDC04691
:103E000010B500F0FDF9002801DC002010BD0120F4
:103E100010BDC04610B500F0F3F9002801DA00200B
:103E200010BD012010BDC0461C2101231B04984277
:103E300001D3000C10391B0A984201D3000A08393B
:103E40001B09984201D30009043902A2105C4018F2
:103E50007047C04604030202010101010000000096
:103E600000000000F0B544465F4656464D46F0B4AB
:103E70001C1C85B0002900DAA9E00F1C0021061CDB
:103E80008846101C191C002C00DA97E0341C3D1CDD
:103E900082468946B94273D870D04946504600F0F0
:103EA0003FFA8346391C301C00F03AFA5B46181A78
:103EB000031C8346203B9C4600D59CE00023002247
:103EC00051460092019363469940019151468140C9
:103ED000019B0091BB4200D983E000D17EE0009AB3
:103EE000019B341C3D1CA41A9D416346002B00DA43
:103EF0009AE0002600270296039701369E4003961B
:103F0000012686400296002800D171E00099019AAE
:103F1000D30799464B464E081E43570800230122FB
:103F20000CE0AF4201D1A6420AD8A41BBD4124191E
:103F30006D410138A4185D41002806D0AF42F0D988
:103F4000013824196D410028F8D12022029E039FD8
:103F50005B46524236196F4199185AD4281CC84002
:103F60002C1C5B46DC40002968DB041C8C40231CB5
:103F700059468840021CB61A9F4103E0B0428CD9D2
:103F80000026002741464B1E9941002300910193D2
:103F9000009A019B002554429D41331C6340181C2C
:103FA0003B1C6B40191C009B019CC018614105B073
:103FB0003CBC90469946A246AB46F0BD4346DB4327
:103FC0000C1C9846131C00215842A1415EE70027B3
:103FD00046428F4101214942884652E7B14200D80A
:103FE0007DE70026002702960397002800D08DE782
:103FF000029E039FC6E720215346091ACB400022A8
:10400000191C0023009201934B4683400B430193FC
:104010005CE75A4620239B1A2A1C9A40201C131C3A
:104020005A46D04018439BE720260027331A002623
:10403000029603970127DF40039761E75B46202143
:104040005D46C91A031CAC40CB40191C231C0B4312
:104050008EE7C046F0B545464E465746E0B4041CD0
:1040600082B00D1C914698468B4262D85FD0414683
:10407000484600F055F9291C061C201C00F050F998
:104080002023311A5B428A46C81865D44B468340C8
:104090001F1C4B468B401E1CAF4258D855D0A41B4A
:1040A000BD41002800DA77E000220023009201934E
:1040B00001328240019201238B40009300293CD0C1
:1040C000FB079846404672087B08024301260027FA
:1040D0000CE0AB4201D1A2420AD8A41A9D41241996
:1040E0006D410139A4197D41002906D0AB42F0D9B8
:1040F000013924196D410029F8D120220098019935
:1041000053465242001969419E183AD42F1CF74079
:104110005346DD40002E29DB3C1CB440231C544692
:10412000A7403A1C801A99410090019105E0824213
:104130009DD900230024009301940098019902B0B6
:104140001CBC90469946A246F0BDA342A7D90022C6
:10415000002300920193B1E720224B46521AD3402C
:104160001A1C43468B401F1C174392E753462024DA
:104170005646E41A3B1CB540E3401C1C2B1C234351
:10418000CDE7524620239B1A2A1C9A40271C131C59
:104190005246D7401F43BBE720230022581A002372
:1041A000009201930132C240019284E7430270B54C
:1041B00042004C005D0AC30F4802120E460A240E4C
:1041C000C90FFF2A05D0FF2C08D00120A2420BD036
:1041D00070BD0120002DFBD1FF2CF6D10120002E57
:1041E000F6D10120A242F3D1B542F1D18B4205D0E4
:1041F000002AEDD1281C431E9841E9E70020E7E79B
:10420000F0B543024D024A0044005E0A240EC30F7B
:104210006D0A120EC90FFF2C0DD0FF2A31D0002CD1
:104220000DD177427741002A23D1002D21D10020E2
:10423000002F0BD107E0002E28D1FF2A21D0002A21
:1042400005D08B4207D0584201231843F0BD002D02
:10425000F9D08B42F7D19442F5DC04DBAE42F2D8C0
:104260000020AE42F2D25842434101205B42184343
:10427000ECE7002FE5D04842414101204942084384
:10428000E4E7002D02D1002CCBD0DAE70220404237
:10429000DCE7C0464302F0B542004C005E0AC30FA3
:1042A0004802120E450A240EC90FFF2A0FD0FF2C18
:1042B0001AD0002A10D177427741002C29D0002F44
:1042C00017D0484241410120494208430BE00220F7
:1042D000002E08D1FF2C07D0002C0AD1002D08D1C8
:1042E000584201231843F0BD0220002DFBD1002AC3
:1042F000E1D08B42F4D1A242F2DC04DBAE42EFD833
:104300000020AE42EFD25842434101205B421843A5
:10431000E9E7002DD3D10020002FE4D1E0E7C0462B
:1043200010B5002903D1FFF77FFD203002E0081C03
:10433000FFF77AFD10BDC04608B5002101F0AEF8C8
:1043400008BDC04608B500210A2201F069F908BD80
:1043500070B50D4E0D4D0024AD1BAD1005D0A30062
:10436000F35801349847A542F9D103F005FB084EF4
:10437000084D0024AD1BAD1005D0A300F358013447
:104380009847A542F9D170BD847900008479000076
:10439000847900008C79000070B583073FD0541EEB
:1043A000002A3BD0CEB2031C032503E0621E002C82
:1043B00034D0141C01335A1E16702B42F6D1032C34
:1043C00024D9FF250D402A0215432A0415430F2C3A
:1043D00011D9261C103E3609013636011A1C9B19CC
:1043E000156055609560D56010329342F8D10F2268
:1043F0001440032C0AD9261FB6080136B6001A1C31
:104400009B1920C29342FCD103221440002C05D0FA
:10441000C9B21C1919700133A342FBD170BD141C21
:10442000031CCCE7CAB270B5002A3DD083070ED07A
:104430000378002B5BD003249A4205D133E0037844
:10444000002B54D09A422ED001302042F7D1FF23C6
:10445000056819402C1C0B0219430B041943254B0A
:104460004C40E318A3431C1C224B234EEB18AB43D8
:10447000234333420DD10C1C043005681D4B6C40A6
:10448000E318A3431C1C1B4BEB18AB4323433342E1
:10449000F1D00378002B04D129E001300378002B00
:1044A00025D09A42F9D170BD83070AD00378032240
:1044B000002B03D1F7E70378002BF4D00130104232
:1044C000F9D102680B4B0C49D31893430B4206D128
:1044D00004300268074BD31893430B42F8D003789B
:1044E000002BE0D001300378002BFBD1DBE700206C
:1044F000D9E7C046FFFEFEFE80808080031C0B4390
:1045000070B5051C9B0701D1032A15D8002A12D0CB
:104510004C1C0978013A6B1C297000291CD0211C05
:1045200007E00C7801335D1E013A2C700131002C3C
:1045300012D0002AF5D170BD051C0C4E0C680C4B36
:10454000E318A3433342E1D104352B1F043A04316D
:104550001C60032AF2D8D9E79C180021002AEAD06F
:1045600019700133A342FBD1E5E7C046808080800B
:10457000FFFEFEFE70B5161C0D1C02F06DFB002E3A
:104580000BD06B226B005B0DD31A002B05DD034DA6
:104590001C0500226319FEF72DFD70BD0000F03FE1
:1045A000F0B556465F464D4644460023F0B40E1C17
:1045B0009FB01A93002400231991357892468346C0
:1045C000069102930394AE4A2D2D00D982E0AB00F0
:1045D000D3589F468046584601F03EFD0368584632
:1045E000994601F039FD006802F0C0FC4946021C02
:1045F000201C02F0EFFC002800D115E10023B14699
:10460000002208930B932023291C9943002345295A
:1046100000D179E04946002900D0CCE00A9B1A433A
:1046200000D0FEE00B9B002B00D114E35346002684
:104630000027002B0BD00023069C059353461C60DB
:10464000059B002B03D0802109067B181F1C301C02
:10465000391C1FB03CBC90469946A246AB46F0BD03
:1046600000230593731C19937578002DDED01E1C52
:10467000302D33D0002307960A932B1C303B092B97
:1046800001D900F0BEFC079B00275A1C002300261E
:10469000181C0DE0B900CF197F007F19303F199227
:1046A0001578141C2B1C303B01360132092B91D894
:1046B000082EEFDD83001B185B005D19281C3038C5
:1046C000EDE701230593CDE70136199635782D2DB9
:1046D00000D87CE700230593302DCBD17378582B7D
:1046E00000D162E3782B00D15FE301361996321CCA
:1046F0000136731E1D78302DF8D0002D00D190E0CA
:10470000012307920A93B8E74B460A9913430B43D8
:1047100000D18BE7199B191C0693013319934D782F
:104720002B2D00D1B3E32D2D00D1D3E200230C9328
:10473000291C30392B1C092900D926E3302D07D13B
:10474000199B013319931D780133302DFAD02B1C9E
:10475000313B191C0023082900D95BE7199C2B1C4D
:10476000611C199165788C46291C3039303B092928
:1047700011D89446A11C9800C31819915B005B19CD
:104780000D780A1C281C3038303B01310928F2D939
:10479000111C62468C466146091B082901DD00F0A8
:1047A00004FD38498B4200DD0B1C0C9884464142C5
:1047B0004B4063442EE7089A9B1A0A93002E00D1BF
:1047C0004E464C46102C00DD1024381C02F03CFDF7
:1047D00002900391092C15DD231C2B4A093BDB00B9
:1047E000D3181A685B68FEF705FC029003914046F7
:1047F00002F02AFD021C0B1C02980399FDF794FCA1
:10480000029003914B460F2B40DC0A9B002B00D0FB
:1048100047E2029E039F5346002B00D110E7199CEC
:104820000CE700260027F6E7584601F015FC006863
:1048300002F09CFB199B181819900578002E00D0E7
:10484000F4E1302D01D000F0DBFC431C19931D78FE
:104850001A1A0133302DF9D02B1C313B082B00D90B
:1048600032E20132089201229146199B303D0793B2
:10487000BA00D7197F00EF19181C0022E4E1C046E6
:10488000287500001F4E0000787800004B461D1B65
:104890000A9B9C466544002D00DC5BE30F232B4004
:1048A0000AD0D64ADB00D31818685968029A039BCD
:1048B000FEF7A0FB029003910F239D4345D09A235E
:1048C0005B009D4200DD0DE22D11012D01DC00F0A9
:1048D0005EFD029803990024C94BB046261C1C1C9F
:1048E000069301232B4203D022686368FEF782FB04
:1048F00001366D100834012DF3D1341C4646029068
:104900000391C04A039B944663440393069BE400CF
:104910009C46029A039B644420686168FEF76AFB28
:104920000A1C031C141C02930394B74B1340B74A90
:10493000934200D9D6E1B64A934201D800F002FD75
:10494000B44B039301235B42029300230693009729
:1049500058460799321C4B4601F0DAFE002800D178
:10496000C0E10A9A5E465342D21713400B930023CC
:1049700098461F1C534683461193F6E0891A5B1A2A
:104980001F2900DDD1E101228A40109200220C9201
:10499000EA18E418069B91469C46131C6444AA42FC
:1049A00000DD2B1CA34200DD231C002B04DD4A4646
:1049B000D21A9146E41AED1A0B9B002B16D0391C23
:1049C000301C1A1C01F0F2FF071E00D139E2301C26
:1049D000391C1A9A01F03CFF0D90002800D130E2FA
:1049E000301C1A9901F044FE0D9B1A934B46002B84
:1049F00009DD301C1A994A4602F036F81A90002850
:104A000001D100F0E8FB079B002B08D05146301C79
:104A1000079A01F0CBFF8246031E00D112E2002C60
:104A200008DD5146301C221C02F01EF88246031E8F
:104A300000D107E2002D07DD391C301C2A1C02F0D2
:104A400013F8071E00D1FCE1301C1A99524602F0FF
:104A50008DF88046002800D1F3E1C368391C079324
:104A60000023C36002F066F8002801DA00F030FC91
:104A700000D1C8E34046391C02F0DEF98023002251
:104A8000DB05041C0D1CFCF785FC002800D131E17E
:104A9000079B002B00D155E1039B00240C930023BE
:104AA0000D935D4B5C4D10930C9B574A13409946F8
:104AB0005A4B994500D192E1069B002B29D0D42373
:104AC000DB04994525D80D981099554A554BFCF7AC
:104AD00061FC002818D00D98109902F061FB0028A5
:104AE00000D11FE302F0B0FB0D901091079B002B4B
:104AF00000D012E38022120694460D9B1493109B63
:104B000063441593149C159DD6234A46DB04EB1889
:104B10009D1A0898099902F09FF8021C0B1C201C92
:104B2000291CFEF767FA0B1C021C08980999FDF76F
:104B3000FBFA031C0C1C02930394069B002B04D16C
:104B4000314B2340994500D1A4E1301C1A9901F062
:104B50008FFD301C514601F08BFD301C391C01F0DB
:104B600087FD301C414601F083FD5B46301C5968CF
:104B700001F056FD8246002800D162E15B465946AD
:104B80001B690C319A1C92000C3001F007FD029B4E
:104B9000039C191C221C1BAB00931CAB08910992AF
:104BA0000193301C231C0A1C02F0E8F81A9000281C
:104BB00000D110E3301C012101F040FE071E00D19E
:104BC0003FE100230A9A0793934200DA07921B9A67
:104BD000002A00DAA5E00B9B079C9D18069B1C99F8
:104BE000D21A362352185B1A0F498A4200DAC5E6F8
:104BF00000220C9201321092CAE6C046787800007A
:104C0000507900000000B0FC0000F07F0000A07CA4
:104C10000000907CFFFFEF7F0000F03F0000E07F8E
:104C20000000C0FFFFFFDF4103FCFFFF0023B14690
:104C3000002208932B1C303B092B09D8511C1D1E48
:104C400000D0EAE10A1C1998431C19934578F1E752
:104C500001230B93D7E44E2D07D000DC67E2692DCA
:104C600000D168E26E2D00D0E0E4199AA9490AE06B
:104C7000013213781C1C413C192C00D8203301311F
:104C8000834200D0D2E408780028F1D1531C199354
:104C90005378282B00D193E39F4B03930023029377
:104CA000B7E50A9B002B00DC82E2162B00DD14E244
:104CB0009A4ADB00D31818685968029A039BFEF7DA
:104CC00099F9061C0F1CA6E50023994608930133A9
:104CD0000B9398E401230C9306990B1C0233199350
:104CE0008D7825E522235A4613608D4B03930023CC
:104CF00002938EE58B4B201C291C0022FEF77AF9CB
:104D0000079B0D901091002B17D1802212060B1CCF
:104D1000944663440E900F93039B0E9C0F9D0C933F
:104D2000C2E6079B0B9D9C1A58E77F498A1A01210E
:104D3000914001220C9110922AE60D9A109B0E923E
:104D40000F93E9E7029B002B23D1029A039B0C935C
:104D50001B0323D1201C291C0022744BFCF710FBE1
:104D6000002800D0F8E200226E4B201C291CFEF720
:104D700041F9802212060B1C944663440D90109159
:104D800016901793169C179D8EE6069B1993002389
:104D900040E4012B00D1F4E1039B0C9300230D931D
:104DA000624B0024624D10937EE61AAB0093059B84
:104DB0005846019319A91BAB5E4A00F0E7FD072393
:104DC0000340041C1D1E00D12BE5062B00D048E13A
:104DD0000023013619960027002605931BE5089A43
:104DE000099B12921393544A0C9B94466344039379
:104DF00008940995029C039D201C291C01F02CFF9E
:104E0000021C0B1C08980999FEF7F4F8021C0B1CF5
:104E1000201C291CFDF788F9414B484A0290039158
:104E20000B40934200D8F3E0454B139A9A4205D0C9
:104E3000434B039301235B42029386E6129B0133AB
:104E4000F6D153460A93119B4546D946B846B34618
:104E50009A461A9922235A461360314B0393002332
:104E60000293029E039F584601F002FC58460A999D
:104E700001F0FEFB5846414601F0FAFB5846494610
:104E800001F0F6FB5846291C01F0F2FBC3E40023B5
:104E90000C9321E70D9B109D181C291C994602F0CC
:104EA0009DF9FEF7BBFE0B1C021C291C4846FEF7B1
:104EB0003BFB079B08900991002B19D1029B002B0B
:104EC00016D1240314D1089809991E4A1E4BFCF7E9
:104ED00057FA002800D138E653460A93119B4546FD
:104EE000D946B846B346029E039F9A461A99BAE736
:104EF00008980999134A154BFCF742FA0028EBD1A0
:104F000008980999124A074BFCF74EFA002800D17D
:104F10001BE6E1E7487600000000F8FF7878000023
:104F20000000F07F0000E03FE3FBFFFF0000F03FE8
:104F30000000F0BF4C7600000000B0FCFFFF9F7C3B
:104F4000FFFFEF7F9535A094FFFFCF3FFFFFDF3FCF
:104F500035E5AF35002D00D1F7E40F236D422B402E
:104F60000AD002980399CD4ADB00D3181A685B680F
:104F7000FDF702FC029003912D1100D1E5E41F2DF5
:104F800038DCEB0600D42BE26A230693002D14DDF7
:104F90000298039901239846C14C43462B4203D003
:104FA00022686368FEF726F86D100834002DF4DCE3
:104FB000069B02900391002B13D0029B039C63007D
:104FC000590D6B23221C5B1A002B0ADD1F2B00DC02
:104FD00041E200210291342B00DC47E2DC239B04F8
:104FE00003930298039900220023FCF7C3F90028D9
:104FF00000D1ACE422235A46002613600027FFF7B5
:105000000AFC0023079C984600270026FFF7E3FAD6
:10501000D4239B04CC1803948FE5089884468C44D1
:1050200060460890012900D1B6E14A444946444609
:1050300004E0B800C7197F00914209D00131481E31
:105040000828F6DD1029F7DCA00004196400F3E756
:10505000A046511C8946082A00DDC6E0199BFFF7CF
:1050600007FC1A9A002A07D01CA8352101F01CFF62
:1050700058461A9901F0FCFA1B9A062D07D889495F
:10508000AB00CB589F46884B039300230293230722
:1050900001D4FFF7BEFB8023039A1B061A43039239
:1050A000FFF7B7FB1C9B02931D9B0393EFE71C9B31
:1050B0001D9902937D4B9C467D4B624412050B402B
:1050C0001A430392E3E7002303930293DFE7794B4C
:1050D000039301235B420293D9E74A4625239B1A97
:1050E0000A9A9A4201DDFFF7D1FB4B460F246B4D24
:1050F000E41AE300EB1818685968029A039BFDF75D
:1051000079FF0A9B1B1BDB00EB181A685B68FDF735
:1051100071FF061C0F1CFFF77EFB0D9A109B14926B
:105120001593EFE400230D93634B1093DEE4492DB8
:1051300001D0FFF77BFA199A60490BE0013213782E
:105140001C1C413C192C00D820330131834201D072
:10515000FFF76CFA08780028F0D1111C1992584812
:1051600009E00B781D1C413D192D00D8203301307A
:10517000A34200D0F9E004780131002CF1D119915B
:10518000B3E5039B0C93002B00D007E653460A932C
:10519000119B4546D946B846B3469A4622235A46FD
:1051A0001A991360002600275DE6464BFFF7FDFACB
:1051B0000A9B163301DAFFF769FB029803990A9BF1
:1051C000DA00364B9B1A1A685B68FDF7D5FA061CA5
:1051D0000F1CFFF720FB53460A93119B4546D94607
:1051E000B846011CB3469A4634E6102905DC42460F
:1051F000920042449846520090441998002223E5B8
:105200000022FFF729FB53460A93119B45469A4615
:10521000079BB846D946B346089E099F002B00D18C
:10522000A6E0029B039C28492303221C1B0B8B42F4
:1052300000D1EAE00C9B002B00D1A2E0039A1342BC
:105240000ED002980399079B069A002B00D1A5E087
:10525000FFF790F9321C3B1CFCF766FF061C0F1C85
:10526000069B002B17D0194B301C1393002312936D
:10527000391C129A139BFDF7BDFE031C0C1C061C67
:105280000F1C02930394002905D1029B002B02D12D
:1052900022235A4613601A99E5E5C0467878000043
:1052A00000760000E07500000000F07F330400008D
:1052B000FFFFEFFFFFFFFF7F0000F03F3C760000A5
:1052C000407600001F4E0000FFFF0F000000503925
:1052D00053460A93119B45469A46079BB846D946C2
:1052E000B346089E099F002BBAD1029B002BB7D171
:1052F000039B1B03B4D1039A604B1340D622D20404
:105300009342ADD96B69002B02D12B69012BA7DD2C
:10531000291C5846012201F0A7FB4146051C01F05B
:1053200009FC00289CDD069B002B5FD0039A534BA1
:105330001340D622D204934258DCDC2292049342DA
:1053400091DC2BE7D4229204231C944663440393FC
:1053500000230693FFF7FBFA0023494C169317949A
:1053600000230D93474B10930CE501321992BCE4D6
:10537000039B1B0300D05DE7029B002B00D059E785
:10538000D1E7109B029A134200D169E759E73E4BDF
:1053900000240693FFF7B5FA4A465AE6FFF7EAF803
:1053A000021C0B1C301C391CFEF7BEF80022002327
:1053B000061C0F1CFBF7DEFF002800D0EEE64FE7CF
:1053C00019A832491CAA00F073FD052800D063E437
:1053D0001D9B2A4A1A431C9B03920293FFF719FA5A
:1053E00000230693002D00DDD2E5FAE5039A234B56
:1053F0001340274A9446274A63441A4301235B42D9
:1054000003920293029E039F2AE7069B0299002BB8
:105410001ED0D420194BC0042340834218D86B20DF
:105420001B0DC31A6C389840031C994200D001E749
:10543000194B9A4217D08021104B49031A40131C74
:105440008C466344039300230293029E039F07E765
:1054500001235B42E9E7012252429A40131C029A5F
:105460001A400292BDE54B1CE5D1F2E40121203B3C
:10547000494299400A400392B3E5C0460000F07FDC
:105480000000E0BF0000E03F5079000028760000F7
:105490000000F0FFFFFF0F00FFFFEF7F08B5031CC8
:1054A0000A1C03490868191CFFF77AF808BDC046B2
:1054B00038040020F0B54D4656465F464446F0B4E9
:1054C0001E1C554B85B002911D6803900B1C914624
:1054D000082100E03B1C1C785F1C2A1952781142FD
:1054E000F8D12D2C69D0002290462B2C00D173E0EE
:1054F000002E04D0102E00D171E0321C05E0302CBB
:1055000000D17DE00A230A261A1C444B111C434497
:10551000181C92469B46FBF721FE584601915146C6
:10552000FBF796FD04228446D3469246321C3B1C70
:105530002E1C00206546002194460DE0303CA44519
:1055400018DD421C06D0A9422ED82AD05A46012086
:10555000514361181C78013357463219527817426B
:10556000ECD103273A4005D0012A20D05722A41AB3
:10557000A445E6DC421C25D04246524251400A1C5A
:1055800049464244002944D0002813D1101C029BF4
:105590004A46136005B03CBC90469946A246AB46CD
:1055A000F0BD019A9442D1DD01204042D2E737227A
:1055B000A41ADDE7101C013BEAE79F1C5C7801237D
:1055C000984695E72222039914480A604A464044C7
:1055D000002ADFD0013BDBE79F1C5C7888E71023C3
:1055E0001A1C302C00D090E73B7810329343582B94
:1055F00000D082E710237C781A1C0237102684E73B
:1056000020223B789343582BF4D0082308261A1CF9
:105610007BE7101CBEE7C0463C040020FFFFFF7F75
:1056200038B5051C0C1C131C034A291C1068221CCD
:10563000FFF740FF38BDC0463804002008B5034BD3
:10564000002B02D0024800F005F808BD0000000061
:105650006556000008B5011C00220020002301F05F
:1056600005FD08BD38B5094B094CE41AA41009D052
:10567000084AA518AD00ED182B68013C9847043D79
:10568000002CF9D102F082F938BDC04698790000AB
:105690009C790000FFFFFF3FF8B50C1C061C00F0D2
:1056A000BBFF204FBB685D6803239D431E4B2C1B33
:1056B0009C466444240B1D4B013C24039C4207DDA3
:1056C000301C002101F040FCBB685B19984204D0FB
:1056D000301C00F0A3FF0020F8BD6142301C01F037
:1056E00033FC431C0DD001232D1BBA681D43104B06
:1056F00055601A68301C141B1C6000F08FFF0120DD
:10570000EAE7301C002101F01FFCBB68C21A0F2A17
:10571000DEDD08490968401A0549086001210A438D
:105720005A60D5E778040020EF0F0000FF0F00005B
:10573000BC08002084080020F0B5474680B400294A
:1057400049D00C1C051C00F067FF211C08394F686C
:1057500001233C1C9C430A19506898460233984325
:10576000031C5B488668964252D0464653603E42D0
:105770000BD10826B4460F688444C91BE4198F680E
:1057800067455ED0CE68FE60B7600127D6187668A0
:105790003E4208D1E4184F4E9368B34200D173E003
:1057A000D268DA6093604C4B27434F600C519C42A7
:1057B00014D8E408FF3BA210FF3B93404268E4008A
:1057C0001343436000198368C8608B608160D960AF
:1057D000281C00F023FF04BC9046F0BD630A042B94
:1057E00043D8A30938331A1C5E00B6008619B36883
:1057F0000327B3423FD05A68BA43A24202D99B68FA
:105800009E42F8D1DA68CA608B609160D960DFE7A8
:105810001C1943463B4206D10B68C91A8A68E41832
:10582000CB68D3609A6001222C4B22431B684A60EC
:1058300081609C42CCD32A4B281C1968FFF72CFFAF
:10584000C6E74646D0184068304209D14646E418BB
:10585000D36892682643D3609A604E600C51B7E7D4
:10586000464626434E600C51B2E7142B14D85B33E6
:105870001A1C5E00B9E7012492109440221C44686F
:10588000224342601A1CBEE72743D9609960CB606F
:105890008B604F600C519BE7542B04D8230B6E3365
:1058A0001A1C5E00A1E7AA225200934204D8E30B1F
:1058B00077331A1C5E0098E70A4A934204D8A30C77
:1058C0007C331A1C5E0090E7FC267E228DE7C046E2
:1058D0007804002080040020FF01000080080020E0
:1058E000B808002054050000F0B54F464646051C98
:1058F0000369C0B414354F119F422ADABF00B9467C
:105900001F229B00EB18A94411402AD02022521AD2
:1059100090464A46161D1268CA40B34233D9AC4677
:1059200047463468BC402243644604C404CEA446BF
:10593000CA40B342F4D849465B1A053B9B08013381
:105940009B00EB181A60002A00D004335B1B9B10ED
:1059500015E000230361002343610CBC9046994687
:10596000F0BD4A464B45F4D902CA02C59342FBD862
:105970004A46D743FB189B0801339B009B100361E9
:10598000002BEAD1E7E72B1CDCE7C046F0B55F4609
:105990004D4644465646F0B48BB08946934609932B
:1059A000069000F059FB0368181C1C1C049301F0BE
:1059B000DDFAA446021C6244131C013B1B780290D2
:1059C00001934B461C68A278E31C302A00D0C0E14A
:1059D00002225242111BC8181C1C01335A1E127895
:1059E000302AF8D08046BD4FBB5C002B00D1E8E0E8
:1059F0000022002692462378FB5C251C002B04D055
:105A000001352B78FB5C002BFAD1281C0499029AF3
:105A100001F0E0FA00281ED02B78002E00D187E19B
:105A2000761BB2000392502B00D19FE02E1C702BEE
:105A300000D19BE04B461D605346002B10D04346DF
:105A40000020002B00D106300BB03CBC904699469C
:105A5000A246AB46F0BD002E00D1A1E12B78DFE7D6
:105A6000331B013B0021072B03DD01315B10072BAA
:105A7000FBDC069800F0D4FD031C1433059008935A
:105A8000A64200D8B4E19A4600239946029A01330F
:105A90009B1AA04607934C460EE0202C57D0221CA0
:105AA00004340F212B782E1CFB5C0B4093404A469C
:105AB0001A439146464511D9751E2B78019A934297
:105AC000EBD1079BEE184645E7D3301C0499029AA8
:105AD00001F080FA0028E0D14645EDD853464A4609
