:1000000060250020FD0B0000F50B0000F50B000043
:1000100000000000000000000000000000000000E0
:10002000000000000000000000000000F50B0000D0
:100030000000000000000000F50B0000F50B0000C0
:10004000F50B0000F50B0000F50B0000490800005F
:10005000F50B0000F50B0000F50B0000F50B0000A0
:10006000F50B0000F50B0000F50B0000F50B000090
:10007000F50B0000F50B0000F50B0000F50B000080
:10008000F50B0000F50B0000F50B0000090D00005A
:10009000F50B00000000000000000000F50B000060
:1000A000F50B0000F50B0000F50B0000F50B000050
:1000B0000000000010B5064C2378002B07D1054B3B
:1000C000002B02D0044800E000BF0123237010BDC4
:1000D0003804002000000000E01C000008B5084BB8
:1000E000002B03D00748084900E000BF0748036819
:1000F000002B00D108BD064B002BFBD09847F9E739
:1001000000000000E01C00003C040020E01C000097
:1001100000000000802370B50A4D5B02041C6B6177
:100120000F200D21F222084B9847A61D0F200E210B
:10013000064B984720700134B442F7D180235B020C
:10014000AB6170BD004400411D0600005506000073
:10015000F7B580270D4EBF0000220D4B77610F20B1
:100160000D2198470B4D0E210F20A8470E21041C8E
:100170000F20A8470E2101900F20A847B761019BCF
:1001800024041B021C432043FEBDC0460044004122
:100190001D06000055060000F7B5002400909620CB
:1001A000114D8000A84796208000A8478026221C79
:1001B0000E4DB6005E3A0E4BD2B20F200D216E618D
:1001C00098470E210B4F0F20B8470E2101900F20AA
:1001D000B847AE61019B1B021843009B18530234C1
:1001E0000C2CDCD1F7BDC046CD0800000044004116
:1001F0001D06000055060000F0B50027161C1389E7
:100200000A681B0285B0D31A0293DB170468B28810
:1002100003931B4D0298191C3B1CA8473B1C4D0621
:10022000C00928433588C9092A0412184B41201CEB
:10023000391C134CA047CB02420D1A434B150092B8
:100240000193F2883B1C0E4C02980399A047009C36
:10025000019D76888B0682091A4370048B09F10B85
:1002600012184B41A41A9D41391CEB175B04580C22
:10027000001969414B04C00B184305B0F0BDC046DE
:100280001D0E00000C4A30B5904211DC131A9B126F
:100290004B2B0FDC094C99009D0201339B0009593F
:1002A0001B59521B101A5B1A58438012081802E09F
:1002B000034800E0034830BDCC990100381B000022
:1002C000208DFFFF8E040F00437800785AB2002A79
:1002D00004DA054A13431B02184301E01B02C0184D
:1002E00080B200B27047C04600FFFFFF38B52C4C0B
:1002F00000232078072850D800F064FD040A111864
:100300001F2E3D4E274B284898472378013340E065
:10031000264B25489847264B1880022339E0234B6B
:1003200024489847244B1880032332E01F4B23486E
:100330009847234B188004232BE01D4B0020185EA8
:10034000204B9847204A214B214DA847214B9847E5
:10035000214B186005231CE0174B0020185E194B39
:100360009847194A194B1A4DA8471A4B98471B4BE7
:10037000186006230DE0124B0020185E114B9847C1
:10038000114A124B124DA847124B9847144B186054
:1003900007232370002300E00123181C38BDC0464A
:1003A0008C0400201501000086040020C902000012
:1003B0008E04002088040020740400208A04002099
:1003C0008404002011140000DE718A8EE4F26F3F75
:1003D000DD0E0000891400007C0400208004002051
:1003E00078040020F8B580250022204C204B6D02B7
:1003F000071C204E102001211A70B047A5610D2066
:100400000121B0470F200121B0470E200021B04745
:100410000E237B70063B3B70174E65610F200D214C
:100420002D22B0470F200D210022B047A5610F20DB
:1004300065610D212C22B0477A780F200D21B0473D
:10044000A5610F2065610D212C22B0473A780F205D
:100450000D21B047A5610F2065610D212D22B04708
:100460000F200D210822B047A561F8BD00440041CE
:100470008C040020ED0800001D060000014B1868E8
:100480007047C0467C040020014B18687047C04686
:1004900080040020014B18687047C0467804002093
:1004A00038B50025114B124C092001211D70A047C1
:1004B00009200121A0470D200121A0470F20012183
:1004C000A047291C80250E20A0470A4CAD000D2115
:1004D0001E2265610F20084B98479620A561800079
:1004E000064B98470648074B984738BDA0040020A4
:1004F000ED080000004400411D060000CD0800008A
:10050000660400209901000038B58025044CAD0038
:10051000021C65610F200D21024B9847A56138BD73
:10052000004400411D06000010B5214C0023207836
:1005300008283AD800F046FC0516070B1622262D8F
:100540003800402004E01B4B98471B4B26E050200E
:100550001A4B9847237801332370194B9847194B4E
:1005600018601FE0164B9847164B1B68C01A1628D8
:1005700015D8154A13880133138013E00D4B9847A3
:10058000124B0BE0124B0C481049124A9847124B81
:1005900004E0114B1868114B9847114B18602378F1
:1005A00001332370002300E00123181C10BDC04656
:1005B000A00400205101000094040020090500005F
:1005C000650800009C04002098040020900400208E
:1005D000F901000066040020A80400208502000044
:1005E000A4040020014B18687047C046A4040020F2
:1005F000002210B54309C409944202D1DA01064B26
:10060000D2181F2318401E3B8340002901D093615C
:1006100000E0536110BDC04600440041F7B50F1C17
:10062000151C0826019001980021094CA0476BB2C7
:10063000381C0121002B00DB0021A047019801217B
:10064000A047731E6D00DEB2EDB2002EEBD1F7BDF8
:10065000F1050000F0B5CB0985B001934B09039378
:100660001F2319401E3B8B40071C082500240293C2
:10067000381C00210E4EB047019B6400E4B2002BF1
:1006800013D1039B0B4ADB019B181B68029A013DA7
:1006900013405A1E9341381C0121EDB21C43B04750
:1006A000002DE5D1201C05B0F0BD00231B6AFFDE44
:1006B000F105000020440041F7B5051C0024C30FDC
:1006C0001B185B1001938023074F5B01BB610198EE
:1006D000064EB04780235B017B610198B047044B15
:1006E0002C199C42EFDDF7BD00440041CD0800000D
:1006F0009F860100C222022010B51C4BD2001C496B
:100700009A604A680243181C4A601A4A9A82C3686F
:10071000164A9B07FBD50221174B184CFF319960F5
:100720005C608224E4015C80812464009C60144C41
:100730005C60144C5C8099601349B7245960802137
:10074000C9015980262191841049E400D162D16AFF
:100750002143D162C268D206FCD5822252009A603F
:100760000B4A5A600B4A5A8010BDC0460008004030
:10077000004000410E060000000C00400105010091
:10078000020401001B4200000007010000000104F8
:10079000040623001C44000080210A4A4901136A10
:1007A0000B431362B022084B12011A80012202216E
:1007B0005A731A880A431A808022044B12031A6063
:1007C0007047C046000400400030004200E100E0F5
:1007D0008122164B52009A60154A5A605A7852B2DA
:1007E000002AFBDB134A114B5A800422124B1A8059
:1007F0009A7AD209FCD19A7AD209FCD10F490E4AD1
:100800009182997A0C4AC909FBD151880C4801435D
:10081000518080210220D1711188014311809A7A80
:10082000D209FCD1074B08321A607047000C004017
:10083000020023000442000000140040E603000010
:100840001040000000E100E0FA21044A890013682A
:100850005B181360FF22024B1A7270475404002089
:100860000014004030B5EFF3108172B6084A094D0C
:100870002B68108A147A80B2E40904D02868138A9D
:10088000FA2292008018C01881F3108830BDC0464B
:100890000014004054040020002806D00022034B1E
:1008A00058609A601A68D203FCD5704710E000E0E7
:1008B000FA22044BD2011A6020225A60024B1B3AE2
:1008C0001A6070470000002010E000E010B5041C22
:1008D000002C05D0034B013C5868034B9847F7E7C1
:1008E00010BDC0460000002099080000002310B58C
:1008F0004209C4099C4202D1D301104A9B181F220D
:10090000012402409440012904D19C601B1840330B
:10091000002210E0002908D102225C601B1840333D
:100920001A701A7804310A4305E0032904D14022E1
:100930009C601B1840331A7010BDC0460044004133
:10094000F7B52E4D2B78002B02D12D4B98472870F0
:100950002C4B1A780093002A03D12B4B9847009B0D
:1009600018702B78002B48D0009B1B78002B44D0AC
:10097000264B9847264F274CBB6A274EA062C01AC9
:10098000E062B047254B60609847254BE060984790
:10099000244B206198476061B0476A460026224B8D
:1009A000A0631B88381C01339BB2019392881E4BB5
:1009B000211C1A801D4B40221E701D4B2E701E7074
:1009C000009B1E701B4B98476B4604229B5E1A4A85
:1009D000934212DD144B1E800C4B9847174B184C5A
:1009E00080B218802388C01A164B1880074B98478E
:1009F0002080C820144B40009847F7BDF204002027
:100A000029050000F1040020ED0200006508000047
:100A1000FC040020B0040020E50500007D04000077
:100A2000890400009504000058040020A004002060
:100A30008C0400208D19000088130000FA040020A7
:100A4000F8040020AC040020B906000008B500231B
:100A5000054A1370054A1370054A1370054B9847F1
:100A6000054B986208BDC046F2040020F104002046
:100A7000F004002065080000FC040020274B000162
:100A8000181A10B5010C254A00230004244CA04775
:100A9000244B25491A6A023A1A621A6A521802212C
:100AA0001A621A6A0A431A624123204A7E3113707D
:100AB0001F4A137032221F4B1A701F4A136A0B43CE
:100AC000136204221D4BFF329A601D4A5A601D4A70
:100AD0005A801D4A5A801D4B1D4A1A60DA69520716
:100AE000FCD4C021194A89025160DA695207FCD44A
:100AF000164A80B29081DA6914495207FBD4022069
:100B00000A6802430A60DA695207FCD4114B0F4AA3
:100B10009A60114A5A60114A1A6010BD00127A0098
:100B2000DD0D00000008004000FDFFFFD64400413D
:100B3000D7440041BB44004100040040000C004089
:100B4000030623001943000017430000001C004265
:100B5000040031403C050020710B0000AD0B00008B
:100B6000086070470368187E4007C00F7047000098
:100B7000F8B5071C0E1C141C0D1C381C074B083044
:100B800098470028F9D0BB681B8D2B700135AB1B33
:100B9000A342F2DB201E00DC0120F8BD650B000043
:100BA0000368187E0123184070470000F7B5071C42
:100BB0000D1C00923E1C08360D4C301CA0470194C1
:100BC0000028F7D02C1CEFF3108372B622783A86F7
:100BD00083F31088301C019B98470028FAD0009AB4
:100BE0000134631B9342EEDB101E00DC0120FEBDCE
:100BF000A10B0000EFF30583FCE700002148224928
:100C000070B50023884201D1204B07E0204CCA1860
:100C1000A242F9D2C45804331460F7E71D4A934244
:100C200002D2002204C3F9E7FF21022403251A4B54
:100C30001A4A8B430C2693600822194B19495C62AF
:100C4000CB78AB432343CB70CB78B3431343CB7008
:100C50003021154B987B8843103908439873997B52
:100C6000B1431143997380219A7BAA4322439A731B
:100C70000E4A53680B4353600D4B98470D4B9847F2
:100C8000FEE7C046E01C0000000000203804002001
:100C900038040020600500200000000000ED00E0A6
:100CA000FC700041005000410048004100400041FC
:100CB00045190000210D0000014A024B1A607047DF
:100CC00040420F000800002038B507200C4C0021DE
:100CD000A0470A200121A04708200121A0470C209D
:100CE0000321A0478023074DDB00AB6180235B001D
:100CF000AB6109200121A04780239B00AB6138BD77
:100D0000ED080000004400410122034B1A70034B20
:100D1000FE329A737047C0465805002000300042EA
:100D200010B5184B8AB09847174B9847174B984700
:100D3000174B9847174B98479620174B80019847B9
:100D4000164B9847164B9847164C174802A9A047D0
:100D500003A91648A04704A8154B9847154B984778
:100D60006B469C1D002323802388134A01339BB2CA
:100D70002380136801331360104B9847104B98473A
:100D8000F2E7C046B90C0000B1080000F50600000B
:100D9000D1070000C90C00007D0A0000990700007F
:100DA0004D0A0000610B00003C05002048050020B2
:100DB000E5030000A10400005C04002065080000B9
:100DC0004109000002B4714649084900095C490024
:100DD0008E4402BC7047C0467047C046002B11D1FC
:100DE000002A0FD1002900D1002802D00021C943D8
:100DF000081C07B4024802A14018029003BDC04677
:100E0000D9FFFFFF03B4684601B5029800F04CF823
:100E1000019B9E4602B00CBC7047C046F0B54F46E1
:100E2000464605042D0C2C1CC0B41704160C3F0CB0
:100E30009946030C7C4375435F4373437D19260C2D
:100E4000AD199C46AF4203D980235B029846C44447
:100E50004B465143434324042E0C240C2D0466447A
:100E60002C1959188919201C0CBC90469946F0BDC4
:100E7000F0B583B0161C1F1C0090019100F0B2FB6E
:100E8000041C0D1C221C2B1C301C391CFFF7C6FF38
:100E9000009A019B121A8B410899201C0A604B6032
:100EA000291C03B0F0BDC046F0B5141C83B01D1C56
:100EB0000090019100F08EFC221C2B1C061C0F1CC4
:100EC000FFF7ACFF009A019B121A8B410899301C66
:100ED0000A604B60391C03B0F0BDC046F0B55F46F8
:100EE00056464D464446F0B4051C061C080387B020
:100EF00099464F00030BCC0F92469B467F0D019401
:100F000067D06C4B9F4236D080205B46400318432D
:100F1000C0006B0F1843684B83469C4600239846DD
:100F2000EE00674400934B4649461D03C90F5B0022
:100F300052462D0B5B0D894600D16EE05D498B4218
:100F400064D080205C4940038C4600210543ED00BD
:100F5000500F0543D20063444846FF187B1C9A4655
:100F6000009B604002900B430F2B00D9ACE053482C
:100F70009B00C3589F465B461D4300D082E0082378
:100F8000009300239B46023300269846CBE7029B42
:100F900001934346022B59D1012400250026019BD1
:100FA0001C40444B00212D030A0D12052D0B154347
:100FB000434A1B0515401D436D00E4076D0825439A
:100FC000301C291C07B03CBC90469946A246AB4653
:100FD000F0BD2B434ED05B46002B00D185E1584637
:100FE00000F0E2FA021C2823291C9B1A161C584602
:100FF000D940083EB0400B1CB54003439B462E1C15
:101000000023304F0093BF1A98468CE7514629437E
:101010002ED10025002202219EE75146294323D0EC
:10102000002D00D154E1281C00F0BEFA031C282139
:101030005046C91A1A1CC8405146083A914095407A
:101040000A1C05431F480021C31A85E7032B00D162
:10105000C2E1012B00D06DE14446019B00251C40FC
:10106000E4B2002300269DE700250022012173E75A
:10107000032171E70423009300239B4601330026DC
:10108000984650E70C230093093B98464BE7802590
:1010900000242D030026074B84E74B46AB46161C65
:1010A0000193884675E7029BAB46161C0193884660
:1010B0006FE7C046FF07000001FCFFFF6C1C00004B
:1010C000FFFF0F800DFCFFFF330C3604360C9C46EF
:1010D000331C140C1204120C5343984663465343BA
:1010E0009946634663430193331C41466343090CAD
:1010F0004B445B18994505D98020400281460199EF
:1011000049440191190C039141460904090C1B043F
:101110005B1804932B0C9846331C2D04290C4B436D
:10112000604600934346654658435E43009B4D43EB
:101130001B0C9946AE194E448446B54203D9802310
:101140005B029946CC44350C2B1C039863448446BF
:101150000593009B36041B041B0CF3189C4460464B
:10116000039058460504060C280C84465043351C51
:1011700081466046654344434846000C83467243BB
:1011800014195C44A24203D98022520293465D4462
:10119000220CAD184A461204120C24044046A4182E
:1011A00062464A4371434643604600964646704352
:1011B0008046100C84468844E044414505D980218E
:1011C00049028C4600996144009101980399844634
:1011D000614499429B415B42994605984346844647
:1011E0001204120C1B049B1863449C46AB468342BA
:1011F0009B4140460A19CC44A2428941E344CC4574
:10120000B6415C46000C8046494276425B42641817
:10121000334398448C428941AB459B4149425B42F0
:1012200019430D1C009B4544EE187602E50D2E4334
:10123000B346049B56021E43731E9E415B46D20D6D
:10124000324366021643DB010AD501233340760898
:101250001E435B46DB071E435B465B089B465746C7
:10126000634BFB18002B5ADD720709D00F22324066
:10127000042A05D0321DB242B6417642B344161C50
:101280005A46D20106D55A465A4B1A4080239346F5
:10129000DB00FB18584A934234DD0124029B0025F1
:1012A0001C400026554B7DE680205B460003034230
:1012B00008D0054206D105432D032D0B4C46161CC4
:1012C0004E4B6FE65D4605432D032D0B4B4B69E6F8
:1012D000504600F069F9031C2033272B00DCA6E6FA
:1012E0005546083885400022ACE6281C00F05CF921
:1012F000021C2032272A00DC75E6083885400026CB
:10130000AB467DE65A46F608520716435A46012474
:101310005502029A5B052D0B5B0D144042E6384DD9
:10132000ED1B382D0ADD0124029B00251C40002600
:10133000002337E6019B5746029391E71F2D25DCDA
:10134000304B321C9C466744BE405B46BB40371C5A
:10135000EA407E1EB74113433B431E1C5B46EB40F5
:101360001D1C730709D00F233340042B05D0331DF8
:10137000B342B6417642AD191E1C2B0220D5012482
:10138000029B00251C40002601230BE65A461E4BFB
:10139000DB1BDA40131C202D1CD01C4A94465A46F5
:1013A0006744BA40171C3E43721E96411E430723F2
:1013B0000025334007D00F2300253340042BD6D11E
:1013C0006B076D022D0B0124F6081E43029B1C4087
:1013D0000023E7E50027E6E780255B4601242D038F
:1013E0001D43019B2D0323401C1C2D0B034BD9E5F2
:1013F000FF030000FFFFFFFEFE070000FF070000E5
:1014000002FCFFFF1E040000E2FBFFFF3E040000A1
:1014100038B5041E16D0C50F00D04442201C00F081
:10142000C3F8174B1B1A0A2821DC021C211C153299
:1014300091400A1C0B21081AC4405B052403240BAD
:101440005B0D03E000250023002400220021101C76
:1014500024030A0D1205240B14430A4A1B051440E9
:101460001C436400ED0764082C43211C38BD0B3875
:1014700084405B052403240B5B0D0022E6E7C04695
:101480001E040000FFFF0F8070B50B034D00440FDA
:101490006D0D5B0A23436C1C6405C90FC200640D0B
:1014A000012C2ADD3B4C2C19FE2C1ADC002C35DDDE
:1014B0008001451EA841DB000343520F13435A0726
:1014C00004D00F221A40042A00D004338022D20410
:1014D0001A4027D00134FF2C03D09B015B0AE4B2F1
:1014E00001E0FF2400235B02E4055B0A23435B0069
:1014F000C9075B080B43181C70BD002D06D11343B0
:101500000ED100245B025B0AE4B2ECE71A43E8D098
:101510008020DB0080040343FF24D0E717340CDA7B
:1015200005230024DB08FF2CECD1002B2DD08022DA
:10153000D20313435B025B0AD5E7802416482404D8
:101540002343401B1F280DDC144CA4466544AB40CC
:101550001C1C131CAB405D1EAB41C2402343134314
:101560000024ACE71E1C0E4C641BE640341C2028F3
:101570000DD00C4884466544AB401D1C2A43531EC5
:101580009A41131C2343002499E70023ABE700256D
:10159000F4E7C04680FCFFFF9E03000082FCFFFFD3
:1015A0007E030000A2FCFFFF1C2101231B049842C4
:1015B00001D3000C10391B0A984201D3000A0839E4
:1015C0001B09984201D30009043902A2105C40189B
:1015D0007047C0460403020201010101000000003F
:1015E00000000000F0B544465F4656464D46F0B454
:1015F0001C1C85B0002900DAA9E00F1C0021061C84
:101600008846101C191C002C00DA97E0341C3D1C85
:1016100082468946B94273D870D04946504600F098
:1016200085F98346391C301C00F080F95B46181A96
:10163000031C8346203B9C4600D59CE000230022EF
:101640005146009201936346994001915146814071
:10165000019B0091BB4200D983E000D17EE0009A5B
:10166000019B341C3D1CA41A9D416346002B00DAEB
:101670009AE0002600270296039701369E400396C3
:10168000012686400296002800D171E00099019A57
:10169000D30799464B464E081E43570800230122A4
:1016A0000CE0AF4201D1A6420AD8A41BBD412419C7
:1016B0006D410138A4185D41002806D0AF42F0D931
:1016C000013824196D410028F8D12022029E039F81
:1016D0005B46524236196F4199185AD4281CC840AB
:1016E0002C1C5B46DC40002968DB041C8C40231C5E
:1016F00059468840021CB61A9F4103E0B0428CD97B
:101700000026002741464B1E99410023009101937A
:10171000009A019B002554429D41331C6340181CD4
:101720003B1C6B40191C009B019CC018614105B01B
:101730003CBC90469946A246AB46F0BD4346DB43CF
:101740000C1C9846131C00215842A1415EE700275B
:1017500046428F4101214942884652E7B14200D8B2
:101760007DE70026002702960397002800D08DE72A
:10177000029E039FC6E720215346091ACB40002250
:10178000191C0023009201934B4683400B430193A5
:101790005CE75A4620239B1A2A1C9A40201C131CE3
:1017A0005A46D04018439BE720260027331A0026CC
:1017B000029603970127DF40039761E75B462021EC
:1017C0005D46C91A031CAC40CB40191C231C0B43BB
:1017D0008EE7C046F0B545464E465746E0B4041C79
:1017E00082B00D1C914698468B4262D85FD041462C
:1017F000484600F09BF8291C061C201C00F096F8B7
:101800002023311A5B428A46C81865D44B46834070
:101810001F1C4B468B401E1CAF4258D855D0A41BF2
:10182000BD41002800DA77E00022002300920193F6
:1018300001328240019201238B40009300293CD069
:10184000FB079846404672087B08024301260027A2
:101850000CE0AB4201D1A2420AD8A41A9D4124193E
:101860006D410139A4197D41002906D0AB42F0D960
:10187000013924196D410029F8D1202200980199DD
:1018800053465242001969419E183AD42F1CF74022
:101890005346DD40002E29DB3C1CB440231C54463B
:1018A000A7403A1C801A99410090019105E08242BC
:1018B0009DD900230024009301940098019902B05F
:1018C0001CBC90469946A246F0BDA342A7D900226F
:1018D000002300920193B1E720224B46521AD340D5
:1018E0001A1C43468B401F1C174392E75346202483
:1018F0005646E41A3B1CB540E3401C1C2B1C2343FA
:10190000CDE7524620239B1A2A1C9A40271C131C01
:101910005246D7401F43BBE720230022581A00231A
:10192000009201930132C240019284E710B5002970
:1019300003D1FFF739FE203002E0081CFFF734FE28
:1019400010BDC04670B50D4E0D4D0024AD1BAD1041
:1019500005D0A300F35801349847A542F9D100F00F
:10196000A9F9084E084D0024AD1BAD1005D0A30009
:10197000F35801349847A542F9D170BDC01C00004E
:10198000C01C0000C01C0000C81C000070B50F2A5D
:1019900032D9041C0C430B1CA40731D1151C041CA8
:1019A000103D2D0901352D0149191E6826605E681C
:1019B00066609E68A660DE681033E6601034994267
:1019C000F3D10F2345191340032B1BD91C1F0023F0
:1019D000A4080134A400CE58EE500433A342FAD137
:1019E000ED18C91803231A4005D00023CC5CEC5431
:1019F00001339342FAD170BD051C002AF5D1FAE7F4
:101A0000051CF2E71A1CF8E708B5034B002B02D0BF
:101A1000024800F005F808BD00000000311A00007F
:101A200008B5011C00220020002300F01BF808BDAF
:101A300038B5094B094CE41AA41009D0084AA51876
:101A4000AD00ED182B68013C9847043D002CF9D1FE
:101A500000F03AF938BDC046D41C0000D81C000084
:101A6000FFFFFF3FF8B544465F4656464D469B464E
:101A70002F4BF0B41C68A4235B00051CE0580E1C1F
:101A8000904600284BD043681F2B0DDC5C1C002DBA
:101A900021D102339B0044601E5000203CBC904684
:101AA0009946A246AB46F8BD224B002B3CD0C8203D
:101AB000400000E000BF002836D0A42200235200DE
:101AC000A15843600160A0504032835004328350DB
:101AD0000124002DDDD09A009146814442468821A0
:101AE0004F467A50C422520090468044424687397D
:101AF000994012688A460A439446424661461160FC
:101B0000842249465F4652008F50022DC1D1021CEB
:101B100055468D32FF3211680D431560B9E7201C20
:101B20004D30FF30E050AEE701204042B6E7C046FE
:101B3000B01C000000000000208DFFFFA1ADFFFFE2
:101B400064CEFFFF6CEFFFFFB71000004A320000C9
:101B50002554000049760000B798000072BB0000D1
:101B600079DE0000D0010100762501006F490100F7
:101B7000BC6D01005E92010058B70100AADC0100B3
:101B80005802020062280200CC4E02009675020044
:101B9000C49C020057C4020052EC0200B7140300B8
:101BA000893D0300CA6603007D900300A4BA0300C8
:101BB00044E503005E100400F63B04000E680400D8
:101BC000AC940400D1C1040081EF0400C11D0500E4
:101BD000954C0500007C050007AC0500AEDC050057
:101BE000FB0D0600F23F060098720600F4A5060001
:101BF00009DA0600E00E07007D440700E87A0700D6
:101C000028B2070044EA070044230800305D0800BA
:101C100010980800EFD30800D6100900CF4E090035
:101C2000E58D090023CE0900980F0A004F520A00E3
:101C300057960A00BFDB0A0098220B00F36A0B00DC
:101C4000E2B40B007B000C00D44D0C00039D0C0093
:101C500023EE0C0050410D00A9960D004EEE0D0034
:101C600065480E0016A50E008E040F00C810000077
:101C7000A6100000A61000009A1000008E0F0000B1
:101C80008E0F00008E1000009A1000008E0F0000D2
:101C90008E1000008E0F00009A100000920F0000BE
:101CA000920F0000920F0000A812000043000000F5
:101CB00010000020F8B5C046F8BC08BC9E4670472E
:101CC000091A0000DD000000F8B5C046F8BC08BCE9
:081CD0009E467047B5000000BC
:081CD8000CF9FF7F0100000080
:101CE00080BB00003000000040420F0000000000F8
:101CF00000000000FC02002064030020CC03002050
:101D000000000000000000000000000000000000D3
:101D100000000000000000000000000000000000C3
:101D200000000000AC1C00000000000000000000EB
:101D300000000000000000000000000000000000A3
:101D40000000000000000000000000000000000093
:101D50000000000000000000000000000000000083
:101D60000000000000000000000000000000000073
:101D70000000000000000000000000000000000063
:101D80000000000000000000000000000000000053
:101D90000000000000000000010000000000000042
:101DA0000E33CDAB34126DE6ECDE05000B00000007
:101DB0000000000000000000000000000000000023
:101DC0000000000000000000000000000000000013
:101DD0000000000000000000000000000000000003
:101DE00000000000000000000000000000000000F3
:00000001FF
