:1000000080720020F1060000E9060000E906000009
:1000100000000000000000000000000000000000E0
:10002000000000000000000000000000E9060000E1
:100030000000000000000000E9060000E9060000E2
:10004000E9060000E9060000E906000015090000C5
:10005000E9060000E9060000E9060000E9060000E4
:10006000E9060000E9060000E9060000E9060000D4
:10007000E9060000E9060000E9060000E9060000C4
:10008000E9060000E9060000E9060000E9060000B4
:10009000E90600000000000000000000E906000082
:1000A000E9060000E9060000E9060000E906000094
:1000B0000000000010B5064C2378002B07D1054B3B
:1000C000002B02D0044800E000BF0123237010BDC4
:1000D0003C040020000000004C3F000008B5084B25
:1000E000002B03D00748084900E000BF0748036819
:1000F000002B00D108BD064B002BFBD09847F9E739
:10010000000000004C3F0000400400204C3F000075
:1001100000000000802370B50A4D5B02041C6B6177
:100120000F200D21F222084B9847A61D0F200E210B
:10013000064B984720700134B442F7D180235B020C
:10014000AB6170BD00440041650500009D050000E5
:10015000F7B58027114EBF0000227761104B0F20AA
:100160000D2198470F4C0E210F20A0476B460E2102
:1001700058710F205D1DA0476B460E2198710F200E
:10018000A0476B46D871B7612878DA1D9B790004C7
:1001900012781B0218431043FEBDC04600440041C4
:1001A000650500009D050000F7B50024009096202D
:1001B000114D8000A84796208000A8478026221C69
:1001C0000E4DB6005E3A0E4BD2B20F200D216E617D
:1001D00098470E210B4F0F20B8470E2101900F209A
:1001E000B847AE61019B1B021843009B18530234B1
:1001F0000C2CDCD1F7BDC046750600000044004160
:10020000650500009D050000F0B5002613888DB03F
:1002100002935388D48800939388019003931389A1
:1002200050890A681B02D31A0593059A254FD317E4
:10023000311CB847FA234902C00D0843DB00C0183F
:100240000690059A201CD317311CB8478B068D09E0
:10025000009984091C434A04CB0B12196B41089284
:100260000993059A0398D317311CB8474B06C40964
:100270001C43331CCD0902990A0412196B410199E0
:100280000A920B930A9A0B9B089C099D0868311CE3
:10029000B847331CCF17FF02FA0A80185941CF0222
:1002A000420D3A434B15121BAB41311CDC17640461
:1002B000600C12184B415B04D20B1A43079207984B
:1002C0000DB0F0BD591D000038B50D4B98470D4CD1
:1002D0000D4A0E4BA0470E4D00220E4BA8470E4A6A
:1002E0000E4B0F4DA8470F4D021C0B1C00200E4952
:1002F000A8470E4A0E4BA0470E4B984738BDC04644
:10030000D9390000452D00007B14AE47E17A843FC7
:10031000C924000000AA8F403CDD79E2395BC83F68
:10032000350A0000793200000000F03F9A9999994F
:10033000B3BE0141AD1D0000437800785AB2002AD7
:1003400004DA054A13431B02184301E01B02C018DC
:1003500080B200B27047C04600FFFFFFF8B58025AD
:100360001F4C6D02071C1F4E10200121B047A561D4
:100370000D200121B0470F200121B0470E200021A0
:10038000B0470E237B70063B3B70174E65610F2014
:100390000D212D22B0470F200D210022B047A5616D
:1003A0000F2065610D212C22B0477A780F200D2196
:1003B000B047A5610F2065610D212C22B0473A7826
:1003C0000F200D21B047A5610F2065610D212D2261
:1003D000B0470F200D210822B047A561F8BDC046E7
:1003E000004400419506000065050000F0B585B0A9
:1003F000041C174B02A89847164D02A8A84702AB49
:10040000071CA080981CA8476B4600901B8803A877
:10041000E380A8476B4601909B880F4E2381381CD0
:10042000B0470E4F0E4A0F4BB8470F4DA847E0603C
:100430000098B0470A4A0B4BB847A847206101987B
:10044000B047074A074BB847A847606105B0F0BD01
:100450001501000039030000D9390000452D0000C6
:10046000DE718A8EE4F26F3F513A000070B580264B
:10047000104C051C01210920A04709200121A0479B
:100480000D200121A0470F200121A0470E200021AF
:10049000A047094CB6000D211E2266610F20074BB4
:1004A00098479620A6618000054B9847281D054B6C
:1004B000984770BD950600000044004165050000A6
:1004C00075060000A901000038B58025044CAD0078
:1004D000021C65610F200D21024B9847A56138BDB4
:1004E0000044004165050000F8B5041C0D4F402094
:1004F000B847E1200C4E8000B0470C4DA847606122
:100500005020B847E1208000B047A847211C206157
:10051000201C1031221D064B14309847054B98477C
:10052000A061F8BDC904000075060000510100007B
:1005300009020000C9020000002210B54309C409E5
:10054000944202D1DA01064BD2181F2318401E3BF9
:100550008340002901D0936100E0536110BDC04683
:1005600000440041F7B50F1C151C082601900198A6
:100570000021094CA0476BB2381C0121002B00DB85
:100580000021A04701980121A047731E6D00DEB233
:10059000EDB2002EEBD1F7BD39050000F0B5CB0967
:1005A00085B001934B0903931F2319401E3B8B40D9
:1005B000071C082500240293381C00210E4EB0476A
:1005C000019B6400E4B2002B13D1039B0B4ADB01B7
:1005D0009B181B68029A013D13405A1E9341381C18
:1005E0000121EDB21C43B047002DE5D1201C05B020
:1005F000F0BD00231B6AFFDE3905000020440041E6
:10060000F7B5051C0024C30F1B185B100193802352
:10061000074F5B01BB610198064EB04780235B0129
:100620007B610198B047044B2C199C42EFDDF7BD6C
:1006300000440041750600009F860100002806D096
:100640000022034B58609A601A68D203FCD57047A9
:1006500010E000E0044B054A1A6029225A60044B5E
:10066000243A1A607047C04600000020ACA3000086
:1006700010E000E010B5041C002C05D0034B013C39
:100680005868034B9847F7E710BDC04600000020AC
:100690003D060000002310B54209C4099C4202D166
:1006A000D301104A9B181F220124024094400129C3
:1006B00004D19C601B184033002210E0002908D1AF
:1006C00002225C601B1840331A701A7804310A4306
:1006D00005E0032904D140229C601B1840331A70A6
:1006E00010BDC04600440041EFF30583FCE7000065
:1006F0002148224970B50023884201D1204B07E0F0
:10070000204CCA18A242F9D2C45804331460F7E747
:100710001D4A934202D2002204C3F9E7FF210224BA
:1007200003251A4B1A4A8B430C2693600822194B57
:1007300019495C62CB78AB432343CB70CB78B3438E
:100740001343CB703021154B987B884310390843F5
:100750009873997BB1431143997380219A7BAA4383
:1007600022439A730E4A53680B4353600D4B9847CC
:100770000D4B9847FEE7C0464C3F000000000020AC
:100780003C0400203C0400208052002000000000B7
:1007900000ED00E0FC7000410050004100480041C5
:1007A00000400041DD3C000031090000014A024BDD
:1007B0001A60704740420F0008000020C2231E202C
:1007C00010B51C4ADB001C4993604B6883431C38FE
:1007D0000343101C4B60194B93820221C368154AD6
:1007E0000B42FAD00224164BFF349C60154C5C601F
:1007F0008224E4015C80812464009C60124C5C6073
:10080000124C5C80A02491841149E400D162D16A29
:1008100021430424D162918C21439184C268D20681
:10082000FCD5802252009A600A4A5A608022D20186
:100830005A8010BD00080040004000410E06000034
:10084000000C004001050100020401001B420000F1
:1008500000001E1C0007010038B507200C4C0021C9
:10086000A0470A200121A04708200121A0470C2011
:100870000321A0478023074DDB00AB6180235B0091
:10088000AB6109200121A04780239B00AB6138BDEB
:1008900095060000004400418122164B52009A60E8
:1008A000154A5A605A7852B2002AFBDB134A114BA0
:1008B0005A80134B134A1A809A7AD209FCD19A7A39
:1008C000D209FCD110490E4A9182997A0C4AC90981
:1008D000FBD151880D480143518080210220D17104
:1008E0001188014311809A7AD209FCD1084B083251
:1008F0001A607047000C0040020023000442000010
:100900000014004004050000E60300001040000051
:1009100000E100E0FA21044A890013685B181360C3
:10092000FF22024B1A727047580400200014004046
:10093000F0B52D4B95B098472C4B98472C4B9847CA
:100940002C4B98472C4B984707A82C4B98472C4B7F
:100950000DA8984707A82B4DA8470023002408227C
:10096000029303930493284B1A6005940694274935
:100970004B6801334B60EFF3108072B6244E0A6867
:10098000338A377A9BB2FF0904D00B68FA21328A86
:1009900089005B189B1880F310880693069B1D4AFC
:1009A0001B1B934204D9C8201B4B4000069C984750
:1009B0000DA81A4B98471A4B13989847194B186073
:1009C00007A8A8470A9B02930B9B03930C9B0493D5
:1009D000029A0193144B1A60039A144B1A60049AFA
:1009E000134B1A60C3E7C046AD0700005506000070
:1009F000BD07000099080000590800005D030000D1
:100A00006D040000ED03000000E100E05804002048
:100A100000140040983A000001060000E9040000BC
:100A2000E91D0000E0420020403300206004002067
:100A300000140020F0B546465746C0B48FB01F1CC6
:100A400002900391161C00F0A3F9041C0D1CC84B66
:100A50000094019598461B785BB2013305D0301C99
:100A6000391C00F0DFFF002806D1009801990FB073
:100A70000CBC90469A46F0BD0298039900F0D2FF54
:100A80008246002831D1301C391C0022002301F09D
:100A900035F90028E9D001230493B64B04AD6B600F
:100AA000534600222B62029B039CAB60EC60B24B6E
:100AB0002E616F61AA61EB6143461B785BB25A1CE1
:100AC0000ED0022B0CD0281C00F0DAFF002800D139
:100AD00080E02B6A002B03D003F0FAF82B6A036046
:100AE000AB69EC6900930194BFE702980399002277
:100AF000002301F003F9002822D0301C391C002209
:100B0000002301F0FBF8041E2CD001230493994B21
:100B100004AD6B6000232B62029B039CAB60EC6016
:100B200000230024AB61EC6143461B782E616F61AA
:100B30005BB2002BC7D000228F4BAA61EB61CFE7DD
:100B4000201C291C00F064FF8246002847D0201C8E
:100B5000291C0022002301F0D1F8002866D100945E
:100B6000019582E7301C391C00F052FF002800D1AB
:100B70007BE7301C391C0022002301F0C5F8002857
:100B800000D172E7012304937A4B04AD6B602C62B1
:100B9000029B039CAB60EC6043461B782E616F6147
:100BA000002B75D100230024AB61EC61281C00F000
:100BB00067FF002872D02B6A002B91D08CE70020B1
:100BC0000021021C0B1C01F07FFCA861E961022CD2
:100BD00000D078E703F07CF82123036079E70298DE
:100BE000039900F015FF0028B1D0301C391C00F02B
:100BF0000FFF0028ABD0291C201C00F013FF04AD10
:100C0000002850D1012304935A4B28626B60029B49
:100C1000039CAB60EC6043461C782E616F61002C36
:100C2000CDD100230024AB61EC614CE7029803991D
:100C300000F0EEFE00940195002800D115E7301C6D
:100C4000391C00F0E5FE00940195002800D10CE766
:100C500004230493474B04AD6B6000232B62029B7B
:100C6000039CAB60EC6000230024AB61EC61434665
:100C70001B782E616F615BB2022B04D0281C00F040
:100C8000FFFE002897D103F023F82223036092E7A8
:100C900000203A49A861E961022B87D103F018F8D6
:100CA0002123036087E703230493324B2E616F6196
:100CB0006B6053462B62029B039CAB60EC60434627
:100CC0001B785BB2002B1CD102980399E0222C4BBD
:100CD0001206AA61EB610022002301F015F800283A
:100CE00030D143461B785BB2022B05D0281C00F0A4
:100CF000C7FE002800D0ECE602F0EAFF22230360E2
:100D0000E7E60022029803991E4BAA61EB610022DC
:100D1000002300F0F9FF0028E3D000221A4B301C1A
:100D2000391C02F00FF8061C0F1C00F0B1FE321C3B
:100D30003B1C00F0E3FF0028D3D100220F4BAA6137
:100D4000EB61CEE70022104B301C391C01F0FAFF9A
:100D5000061C0F1C00F09CFE321C3B1C00F0CEFF5A
:100D60000028BED1E022094B1206AA61EB61B8E768
:100D70000C000020543E00000000F03F0000F0FF97
:100D8000FFFFEF470000F07F0000E03FFFFFEFC7ED
:100D9000F0B556464D4644465F46F0B41C1C131C45
:100DA00067008DB07F0800930194061C0D1C8046DF
:100DB0008946A2463B4331D0614B6C0064089C429B
:100DC00028DC25D09F4225DC5D4B9F4200D176E098
:100DD00000239B464B46002B00DA74E0002A2CD1FE
:100DE000574B9F4200D18AE0564B9F425FD08023F1
:100DF000DB059A4501D100F0D1FB534B9A451CD13C
:100E00004B46002B19DB301C291C00F007FD07E0C6
:100E100000280CD04D4BE01830430AD1002049493E
:100E20000DB03CBC90469946A246AB46F0BDA742E9
:100E3000CADD474800F026FEF2E7301C291C00F00E
:100E4000E3FD0B1C4146021C00291ED0E90F0139AD
:100E5000884659464046014366D03E498F4200DCF1
:100E600088E03D498F4201DC00F0E0FB3B4B9C42B7
:100E700000DC82E35346002B00DC82E3384839492A
:100E8000021C0B1C01F05EFFCAE7002C04D02D48A9
:100E9000A90089088142D9D15146002900DABBE373
:100EA0004946002900DA6FE3101C191CB8E75346C5
:100EB000002B01DA00F020FC301C291CB0E7002ACE
:100EC00000D185E7A6E7284B9F422ADC234B9F42AF
:100ED00000DC83E725493815884201DC00F027FC57
:100EE000234B00991B1AD940081C9840904200D00F
:100EF00074E70123194001335B1A9B466EE7134BDD
:100F0000E018064300D189E7144B9C4200DC75E3EE
:100F10005346002B00DA34E3009B019C181C211C73
:100F20007EE702239B4659E7301C291C321C2B1CF0
:100F300002F0A2F9021C0B1C01F0C6FA70E7C046D1
:100F40000000F07F0000F03F0000E03F000010C014
:100F5000883E00000000E0410000F043FFFFEF3F4B
:100F60009C7500883CE4377EFFFF3F43130400007C
:100F700033040000E94900208C4209DC101C191CD4
:100F80000022E74B01F0DEFE021C35200C1C404223
:100F9000E44D2115AC4661448A462403E24DE34901
:100FA000240B824425438C4200DC3CE3E0498C4224
:100FB00001DC00F021FC01218C46DE49E2448C4634
:100FC000002400216544CB009946161C2F1CDA4BE7
:100FD000301C4B441A685B68291C069607970892D8
:100FE000099302F049F9089A099B061C0F1C069800
:100FF000079900F041FF021C0B1C0020CA4901F0B8
:1010000063FA021C0B1C301C391C0A920B9301F072
:1010100099FE0A1C011C131C0491059200220292E5
:10102000039380236D109B051D43802300201B0329
:10103000EB1819190D1C041C02980399221C2B1C77
:1010400001F080FE021C0B1C301C391C02F014F94C
:10105000089A099B061C0F1C201C291C02F00CF985
:10106000021C0B1C0698079902F006F9021C0B1CC7
:101070000298039901F066FE021C0B1C301C391CFF
:1010800002F0FAF80A9A0B9B01F05CFE049A059BA9
:1010900006900791101C191C01F054FE041C0D1C35
:1010A000221C2B1C01F04EFEA44A061C0F1C201C07
:1010B000291CA34B01F046FEA24AA34B00F0DCFE24
:1010C000221C2B1C01F03EFEA04AA14B00F0D4FED6
:1010D000221C2B1C01F036FE9E4A9F4B00F0CCFEDA
:1010E000221C2B1C01F02EFE9C4A9D4B00F0C4FEDE
:1010F000221C2B1C01F026FE9A4A9B4B00F0BCFEE2
:10110000021C0B1C301C391C01F01CFE049A059BB0
:10111000041C0D1C0298039900F0AEFE069A079B72
:1011200001F010FE221C2B1C00F0A6FE029B039C6B
:10113000061C0F1C1A1C181C211C231C01F002FE8B
:101140000A1C011C894B08910992111C002200F015
:1011500093FE321C3B1C00F08FFE00240D1C0298F5
:101160000399221C2B1C01F0EDFD221C2B1C02906C
:1011700003910698079901F0E5FD0022069007917A
:101180007A4B201C291C02F077F8089A099B02F080
:1011900073F8021C0B1C301C391C02F06DF8049A09
:1011A000059B01F0CFFD021C0B1C0698079900F06F
:1011B00063FE061C0F1C02980399321C3B1C00F0B6
:1011C0005BFE0024E022201C1206694B0D1C01F07E
:1011D000B9FD684A06900791674B201C291C01F055
:1011E000B1FD029A039B04900591201C291C02F07A
:1011F00043F8021C0B1C301C391C02F03DF85F4AFE
:101200005B4B01F09FFD021C0B1C0498059900F03C
:1012100033FE5B4B4B441A685B6800F02DFE061CE6
:1012200050460F1C02F0D8FB041C0D1C06980799B1
:10123000544B4B441A685B6804920593321C3B1C68
:1012400000F01AFE049A059B00F016FE221C2B1CCF
:1012500000F012FE0020221C2B1C0290039102F0D1
:101260000BF8049A059B02F007F8069A079B02F018
:1012700003F8021C0B1C301C391C01F0FDFF04900C
:1012800005915B464246013B134300D0B1E1002388
:101290003D4C06930794009B019C0026181C211CC2
:1012A000231C321C01F0E8FF029A039B01F04AFD67
:1012B000049A059B0D1C271C041C0098019901F041
:1012C00041FD021C0B1C201C291C00F0D5FD029ABC
:1012D000039B00900191301C391C01F033FD041C6C
:1012E0000D1C009801992B1C221C00F0C5FD274BFA
:1012F00082468946994200DC58E1254B4B44034322
:1013000000D001E200980199224A234B00F0B4FD7D
:10131000221C061C0F1C2B1C40E0C046FFFF0F00C8
:101320000000404301FCFFFF0000F03F8E980300E7
:1013300079B60B000000F0FF783E0000EF4E454A02
:10134000287ECA3F65DBC9934A86CD3F01411DA96E
:101350006074D13F4D268F515555D53FFFAB6FDBA4
:10136000B66DDB3F033333333333E33F00000840D4
:1013700009C7EE3FF5015B14E02F3EBEFD033ADCEA
:10138000683E0000583E00000000F0BFFFFF8F40A5
:10139000000070BFFE822B654715973C50464946BA
:1013A00001F06AFF021C0B1C301C391C00F0C0FC51
:1013B0004E46002800D0A7E1E74B3615F1188023F0
:1013C0005B0398460B41191CE448494484464F008E
:1013D0007F0DBC446646E248002230410E1C864325
:1013E00040460903090B08434946331CCE0FDD492B
:1013F000C91B0841011C704241408946201C291C20
:1014000001F03AFF041C0D1C009801992B1CB144FB
:10141000221C00F031FD4B461B059846002000229F
:10142000D14B061C0F1C01F08DFC221C0290039175
:101430002B1C301C391C01F01FFF021C0B1C0098D8
:10144000019901F019FFC94AC94B01F07BFCC94A57
:10145000041C0D1C301C391CC74B01F073FC021C12
:101460000B1C201C291C00F007FD041C0D1C0298FD
:101470000399221C2B1C00F0FFFC029A039B061C04
:101480000F1C01F0F9FE021C0B1C201C291C01F092
:10149000F3FE321C009001913B1C301C391C01F002
:1014A00051FC041C0D1CB54AB54B01F04BFCB54A70
:1014B000B54B01F0E1FE221C2B1C01F043FCB34AAA
:1014C000B34B00F0D9FC221C2B1C01F03BFCB14AB1
:1014D000B14B01F0D1FE221C2B1C01F033FCAF4AB2
:1014E000AF4B00F0C9FC221C2B1C01F02BFC021C92
:1014F0000B1C301C391C01F0BFFE041C0D1C221CEF
:101500002B1C301C391C01F01DFC80230290039120
:101510000022201C291CDB0501F0AEFE021C0B1C66
:101520000298039900F0D0FF009A019B041C0D1C47
:10153000301C391C01F006FC009A019B00F09CFC59
:10154000021C0B1C201C291C01F096FE321C3B1CAB
:1015500001F092FE0B1C021C9249002001F08CFE4F
:1015600043465C182315002B00DC4FE1021C231CB2
:101570000698079901F0E6FB52E45346002B00DA87
:101580007CE4002000214BE487498C4659466444A2
:101590000C4300D0C4E0101C191CC9E4301C291CE9
:1015A000321C2B1C01F0CEFBFFF73AFC7F4B4E00A8
:1015B00076089E4200DC17E17D4B4B4403430CD17F
:1015C000221C2B1C01F058FE021C0B1C00980199D8
:1015D00000F0A4FB002800D1EEE606980799754AB2
:1015E000754B01F0AFFB734A734B01F0ABFBFFF798
:1015F00017FC00236B4C069307944CE65346002BD4
:10160000BFDA009B019C80221206181C9446231C02
:101610006344191CFFF704FC0020624900F054FFEA
:10162000021C0B1C3CE400240021CCE463498C42E6
:10163000A3DD5C498C4201DDFFF71CFC101C191C6A
:101640000022584B01F018FEC0225D4BD205041C4D
:101650000D1C01F077FB5B4A061C0F1C201C291C8B
:10166000594B01F06FFB221C029003912B1C201C94
:10167000291C01F067FB002204900591534B201CAC
:10168000291C01F05FFB021C0B1C5148514901F061
:10169000F3FD221C2B1C01F055FB021C0B1C00202F
:1016A0004D4901F0E9FD021C0B1C0498059901F05D
:1016B00049FB4A4A424B01F045FB021C0B1C0298B5
:1016C000039901F0D9FD041C0D1C221C2B1C301C9D
:1016D000391C00F0D1FB0022101C3B1C321C029074
:1016E000039101F0C9FD021C0B1C201C291C01F0F8
:1016F000C3FD04900591C4E5321C2B1C0020294930
:1017000000F0E2FEFFF78CFB06980799344A354B50
:1017100001F018FB324A334B01F014FBFFF780FB5A
:101720005946101C01296CD0191CFFF779FB002ABF
:1017300001D0FFF782FB3A1C091A0A41131C8B40A7
:10174000BB4201D0FFF750FB012313400222D31A02
:101750009B46FFF749FBC04602FCFFFF01FCFFFF71
:10176000FFFF0F0013040000432EE63FEF39FAFE9F
:10177000422EE63F396CA80C615C20BED0A4BE723C
:101780006937663EF16BD2C541BDBB3E2CDE25AF4D
:101790006A56113F93BDBE166CC1663F3E55555506
:1017A0005555C53F0000F03F000010C0FFCB9040F2
:1017B00000346F3F59F3F8C21F6EA501FEFFEF3FE3
:1017C0004715F73F44DF5DF80BAE543E0000D03FB5
:1017D000555555555555D53F0000E03FFE822B65C8
:1017E0009C7500883CE4377E0B4B9E4200DDE3E5B0
:1017F00000239846994611E680240121E402FFF770
:10180000E2FB802109065918FFF70AFB4A4600F05F
:10181000E1F9021C0B1CABE60000E03FF0B55646B8
:101820004D4644465F46754BF0B40A1C0E1C191C0D
:1018300083B0051C041C3140994200D1B7E0002E52
:1018400000DC93E0311500D1A0E06D4B1203CE18FF
:101850008023120B5B031A43F30700D577E0731064
:1018600052009846E30FD318802216210027002546
:1018700064009203A818984202DC85181B1ABF184E
:10188000E00F5B0001391B18640052080029F1D1F8
:10189000002201929446802212062020924609E0FE
:1018A000AB4247D0E10F5B0001385B18640052087F
:1018B00000281ED0614689189D42F1DA8E18B44680
:1018C000CE0FF607A94656452ED05B1B8C42AD4184
:1018D0006D425B1B641A01995B008B469344594629
:1018E00001380191E10F4D465B1864005208002851
:1018F000E0D1234330D1019B5B0842497A108C46EA
:101900006244F90702D5802109060B4341460E05C2
:10191000B1181D1C0E1C281C311C03B03CBC904689
:101920009946A246AB46F0BD6646002ECDDB6E1C46
:10193000B146CAE7A14208D88E18B446CE0FF607C2
:10194000564541D099460023C4E71D1CAAE7E30F82
:101950005200D218640082E7019B01333AD0019A09
:1019600001239446134063445B08C6E773005B0899
:101970000343D0D00021002E33D1E20A153964058B
:10198000002AFAD080235B031A4226D1802000234C
:101990004003520001330242FBD001252020ED1A02
:1019A000C01A4919251CC5409C402A434DE72A1CF2
:1019B000331C281C311C01F0C5F92A1C331C00F013
:1019C0005BFA051C0E1CA6E76646002EAFDA002364
:1019D000A9467FE7013700238FE720200125002358
:1019E000DFE72A1C331C281C311C01F045FC021CBB
:1019F0000B1C00F069FD051C0E1C8CE70000F07F3D
:101A000001FCFFFF0000E03F49004B08191C704734
:101A1000034B48009C4640086044C00F7047C046D6
:101A2000000010800A1C031C024330B50220002A6B
:101A300000D130BD80221206914216D00C4A0420FB
:101A40008C180C4A9442F4D90B4C0C199442F0D9DE
:101A50000A4A4900490803209142EAD9064A00206F
:101A60009142E6D158425841E3E7002BE1D0EFE73D
:101A70000000F0FFFFFFDF7F0000F07FFFFF0F009F
:101A800000207047002001497047C0460000F87FE1
:101A9000F0B5474680B44B004A4A5B0D9D1882B0B2
:101AA000071C0C1CCE0F132D39DC002D59DB464FC3
:101AB000021C2F413B1C0B4003439C46B846674623
:101AC0000B1C002F25D043465B081A1C0A4010430C
:101AD0000027002808D0132D00D16FE09943802300
:101AE000DB022B4119430C1C3849F6008E19231CCC
:101AF000346875683A1C201C291C00F0BDF9009060
:101B0000019100980199221C2B1C01F0B5FB021CCD
:101B10000B1C101C191C02B004BC9046F0BD332DE8
:101B20000BDD0B1C8021021CC9008D42F1D1211C50
:101B300000F0A2F9021C0B1CEBE7254A9D180123BB
:101B40005B42EB409C460B1C6146021C0142E0D00C
:101B50004B080342C8D08027FF052F419843074315
:101B6000C2E74C0064080443021C0B1C002CD0D0BC
:101B70000903090B01434A4211438022090B120356
:101B80005B0C11405B04021C194310480B1CF10054
:101B900041180C684D68201C291C00F06DF900905C
:101BA000019100980199221C2B1C01F065FB4B0050
:101BB0005B08F6071E43021C331CAAE780273F067A
:101BC0008CE7C04601FCFFFFFFFF0F00903E0000C6
:101BD000EDFBFFFFF8B5314F161C3B1C0B40041CFE
:101BE0000D1C0A1C1B1520D14B005B0803431BD0A6
:101BF00000222B4B01F0A6F82A4B041C0D1C0A1CDA
:101C00009E4222DB0F403F153B1C2749363B9B1968
:101C10008B4211DD221C2B1C2448254900F056F86C
:101C2000224A234B01F08EF8F8BD22498B4222D084
:101C30001D499B198B42EDDC002B0BDD1E491B055A
:101C40000A401343201C191CEEE71C4A1C4B01F0F0
:101C500079F8E9E7191C353113DA1A4B9E42D9DCC1
:101C6000221C2B1C1548164900F030F8134A144B5F
:101C700001F068F8D8E7291C221C2B1C00F0FCF8A6
:101C8000D2E70D4936330A401B051343201C191CAB
:101C900000220D4B01F056F8C6E7C0460000F07F69
:101CA00000005043B03CFFFFFE0700009C75008819
:101CB0003CE4377EFF070000FFFF0F8059F3F8C2B6
:101CC0001F6EA50150C300000000903C30B54A00D3
:101CD000DB0F5208DB071343191C30BD8446101C70
:101CE00062468C46191C634600E0C0461FB500F0F2
:101CF000C3FF002801D40021C8421FBD10B500F069
:101D000007FF4042013010BD10B500F0B5FF0028BC
:101D100001DB002010BD012010BDC04610B500F051
:101D2000ABFF002801DD002010BD012010BDC04622
:101D300010B500F031FF002801DC002010BD0120AB
:101D400010BDC04610B500F027FF002801DA0020C2
:101D500010BD012010BDC046F0B54F4646460504F3
:101D60002D0C2C1CC0B41704160C3F0C9946030C08
:101D70007C4375435F4373437D19260CAD199C4624
:101D8000AF4203D980235B029846C4444B4651437B
:101D9000434324042E0C240C2D0466442C1959189A
:101DA0008919201C0CBC90469946F0BD38B500221C
:101DB0000C4B041C0D1CFFF7C5FF002804D1201C90
:101DC000291C01F0D3FD38BD064B0022201C291C24
:101DD00001F052FA01F0CAFD80231B069C466044C4
:101DE000F1E7C0460000E04110B5041E35D001F017
:101DF00051FF9E21091A962909DC082830DD021CB2
:101E0000231C083A93405B025B0AC8B220E0992980
:101E10000CDD0522231C121AD3401A1C031C1B3391
:101E20009C40231C5C1EA34113431C1C052801DDA0
:101E3000431F9C400F4B2340620704D00F221440E5
:101E4000042C00D004335A010ED49B015B0AC8B2A3
:101E50005B025B0AC005184310BD00200023F7E7B2
:101E600063025B0AC8B2F3E79F21024A091A1340D2
:101E7000EBE7C046FFFFFFFBF0B5454657464E4631
:101E800094464C000A03C90FE0B488460E1C19039F
:101E9000470FC500480A6146490F01436046520A90
:101EA0001743C0005A00640D520DDB0F844698455D
:101EB00000D1A7E0A01A002800DC01E1002A3DD1F2
:101EC00063460B4300D0D4E06B0700D188E00F23BA
:101ED0002B40042B00D183E02A1DAA42AD41802370
:101EE0006D427F191B043B404646151C002B00D158
:101EF0007CE0CC4B01349C4200D1FDE03A1CCA4B43
:101F0000ED081A405007640552020543120B640D98
:101F1000002112030B0D1B056405120B1A43630805
:101F2000C24CF60714401C43640064083443281C68
:101F3000211C1CBC90469946A246F0BDB94B9C4260
:101F4000C2D080231B041943382800DDECE01F2891
:101F500000DD21E120220E1C6346121A9640C34088
:101F6000334366469640321C561EB24113430A1C48
:101F7000C240EB1A9D42B6411D1CBA1A7642971B0D
:101F80003B0200D497E07A02560A002E00D1B6E058
:101F9000301C01F07FFE031C083B1F2B00DDB7E067
:101FA0009E40371C28262A1C361AF240161C9D40DB
:101FB0003E439C4200DDB2E01C1B621C1F2A00DD78
:101FC000D8E01F23291C1C1B331CA540A340D14073
:101FD0006C1EA541D64019430D43371C002473E7FE
:101FE00080231B043B40464600D082E78D4BED0822
:101FF00078070543FA089C4232D012036405120B9D
:10200000640D85E7A31A002B00DC94E0002A3CD085
:10201000844A944200D157E7802212041143382B9E
:1020200000DC05E163461943481E81410022C8B225
:102030004019A8429B41051CD2195B42D7183B02AC
:1020400039D5784B01349C4200D14CE10120764ACD
:102050006B083A4028401843D5070543570833E733
:102060002B1C134348D080231B031A431203120B6B
:102070004EE70138002878D16346EE1AB5429B41FD
:102080007A1A5B42D71A351C7AE7021C0A4300D140
:102090001AE7013B002B00D0F2E04019A8429B4117
:1020A000CA195B42D718051CC9E7131C334300D17A
:1020B00018E1171C351C46466B0700D007E795E76B
:1020C00000287AD1621C5205520D012A00DCFBE087
:1020D0006246AA1A9542B6419146781A7242861A09
:1020E000320200D493E06246551BAC458041CF1BC1
:1020F00040423E1A984648E70022002508E7281C7F
:1021000001F0C8FD2030031C083B1F2B00DC47E713
:10211000283885402E1C00259C4200DC4CE7424AB2
:10212000E41A1640371CCFE6634619434B1E99410B
:102130000022CBB21DE7002B00D0F2E0601C43056B
:102140005B0D012B00DCA4E0364B984200D121E16D
:1021500063465C19AC429B41CF195B42FA18640894
:10216000D50725435708041CAEE62E4B9C4200D0F1
:10217000EAE6A9E6211C331C1F39CB40191C202A92
:1021800000D182E03F231C1BA64035436E1EB541A3
:1021900000270D4300248EE7031C0E1C203BDE406D
:1021A000202874D040231B1A99400B1C624613430D
:1021B000591E8B4100223343DBE6002C50D0194CD2
:1021C000A24200D1A8E080242404404227433828BA
:1021D00000DDD9E01F2800DD39E120243E1C241A4F
:1021E000A640B0462E1CA146C640444626434C4657
:1021F000A5406C1EA541C74035436046451BCF1B1B
:10220000AC45894149427F1A141C9846B8E64B46B2
:102210004D46334300D0B8E60026002700240025B1
:10222000E4E6C046FF070000FFFF7FFFFFFF0F80CF
:102230001F2B5BDC2022081CD21A9040814660468E
:102240009246D8404A4610438146524660469040E6
:10225000021C501E8241484610430A1CDA40E7E641
:102260003C1C2C4358D0C043002851D16046451B2C
:10227000AC458041CF1B40423F1A141C98467FE674
:102280008F4A944200D0CAE61EE600267DE700236E
:102290008CE73B1C2B43002C00D0BDE0002B00D171
:1022A000F5E063460B4300D10EE663465B19AB4293
:1022B0008041CA19404217183A0200D4FCE0814A12
:1022C0001D1C17400134FFE53A1C2A43002C51D154
:1022D000002A00D085E062460A4303D00F1C654601
:1022E0009846F1E50026002700257FE6181C0A1C09
:1022F0002038C240202B00D1A7E04020C01A8140E6
:10230000081C63461843411E8841104300228FE693
:102310006B4CA24200D05AE70F1C6546141C98462D
:10232000D2E5002C3AD1381C284371D0DB43002B76
:1023300018D0634882426BD0382B00DD9DE01F2B04
:1023400000DDA7E020203C1CC01A8440A1462C1CC4
:102350008246DC404846044350468540681E85411D
:10236000DF402543654465459B417F185B42FF186C
:10237000141C64E6002A19D162460A4377D00F1C68
:10238000654698464E4C9FE53D436F1EBD41002774
:10239000EDB232E7041C0027002527E648488242B8
:1023A00036D0802000045B420743C5E762460A43FB
:1023B00049D08024ED087807FA08240328432242F4
:1023C00009D0CE08264206D162464F07381CD208F3
:1023D00010439846321CD200470F1743C500384CB3
:1023E00072E562460A4300D16EE56246AE1AB54216
:1023F0009241781A5242821A100200D455E662467F
:10240000551BAC458041CA1B4042171A98465BE5F4
:102410000F1C6546141C57E5002B34D063460B4354
:1024200011D08024ED087807FA08240328432242BB
:10243000D1D0CB082342CED162464F07381CD208F8
:1024400010431A1CC7E71E4C3EE5002059E7041C48
:102450003E1C203CE640341C20282BD04026301A5D
:1024600087403D436F1EBD4100272543C5E68027B9
:102470000026FF03124C0025B8E53D436F1EBD4109
:102480000027EDB26EE70F1C65460D4C1CE50F1CD6
:10249000654619E51C1C381C203CE040041C202B20
:1024A0000CD04020C31A9F403D436F1EBD41002702
:1024B000254357E70027D4E71D1CFCE50027F3E779
:1024C000FF070000FFFF7FFFF0B55F4656464D4611
:1024D0004446F0B40F0387B098464D003B0BCC0F39
:1024E000061C924681469B466D0D01946BD0664B4F
:1024F0009D4235D080275B467F031F43F3009946FA
:10250000624BFF00400F9C4607430023BB4600265A
:1025100065440093424617035000D20F53463F0BC9
:10252000400D904600D172E0574A904267D0802318
:102530005B031F435346554A5B0FFF001F439446FE
:1025400053460021DB0060444246624092462D1A09
:102550000E430F2E00D9A1E04D48B60080598746A2
:102560005B461E4300D076E000239B46994602332B
:1025700008260093CEE799464346BB460193009157
:10258000009B022B6BD1019B9A46002153460122EE
:10259000002789461A403C4B00213F030C0D2405BF
:1025A0003F0B27433B4C1B0527401F437F00D207AF
:1025B0007F0817434846391C07B03CBC90469946F3
:1025C000A246AB46F0BD03433ED05B46002B00D194
:1025D0009CE1584601F05EFB2823311C1B1A021CAB
:1025E0005F46D940083A97400B1C96403B439B46B8
:1025F000B1460023284D00262D1A00938AE7524643
:1026000003213A43A0D10027002302219CE7524630
:102610003A4315D0002F00D185E1381C01F03AFB78
:10262000021C28215046891A131CC8405146083BF9
:1026300099409F400B1C074317480021801A83E7ED
:102640000027002301217FE700239B4699460133A1
:10265000042600935EE703230C2600935AE7032B1E
:1026600000D13CE2012B00D0BFE11A1C019B1A40B3
:1026700000210023002789468EE700238027994602
:1026800000223F03004B87E7FF07000001FCFFFF2C
:10269000A03E0000FFFF0F800DFCFFFFBB4500D9EF
:1026A00051E100D14CE14A46039200225C4690463B
:1026B000013D180E3F0238431B020193030C99465B
:1026C00003041B0C4946061C201C1F1C009301F030
:1026D0004FFA021C7A4302904946201C171C01F055
:1026E000CDFA039B09041B0C19438F420CD9029BA2
:1026F0008919013B8E4200D952E18F4200D84FE147
:10270000029B8919023B0293CC1B201C494601F015
:102710002FFA009F834647434946201C01F0AEFA3A
:10272000039A0B041404240C23439F420DD95A46E8
:102730009B19013A9E4200D930E19F4200D82DE119
:102740000222524294469B19E344029ADB1B17046F
:102750005A463A439346019C170C220C101C0492D3
:102760005A4611042204120C141C090C7C430592D5
:102770004A43414347436118100C09188C4203D95E
:1027800080204002844667440C0C12040804120C9A
:102790003C198118A34200D2E5E000D1DFE01F1B05
:1027A00043465C1AA04592415242BF1AB74200D13B
:1027B0000EE1381C494601F0DBF9009B02904343CF
:1027C0004946381C984601F059FA230C0F041F4360
:1027D000B8450CD9029BBF19013BBE4200D9FBE0B2
:1027E000B84500D8F8E0029BBF19023B029343466C
:1027F000FF1A4946381C01F0BBF9009B0390434384
:102800004946381C984601F039FA24040904240C7E
:10281000214388450CD9039B8919013B8E4200D97D
:10282000DCE0884500D8D9E0039B8919023B03937B
:102830004346C91A029B039A1B04059C1A43100CB9
:1028400013049146221C049F1B0C5A4344437B43B0
:102850007843E318170CDB199C4203D980246402E7
:10286000A44660441C0C12041B04120C00199B1893
:10287000814200D296E000D1FCE04A4601231A438F
:1028800091469B4BEB18002B00DC99E04A4652071F
:102890000AD00F2249460A40042A05D0043149458E
:1028A00092418946524293445A46D20106D55A462D
:1028B000904B1A4080239346DB00EB188E4A9342DC
:1028C00000DD62E64A465946D208490711435A4696
:1028D00089465702514601225B053F0B5B0D0A40BA
:1028E0005AE680205A460003024208D0074206D129
:1028F00007433F0399463F0B4246804B4CE65F46F9
:1029000007433F033F0B221C7C4B45E601F0C2F915
:10291000031C2030272800DC5EE6083B9E40002395
:10292000B346994665E6504601F0B4F9021C2032E0
:10293000272A00DC75E657460838874000237BE6E7
:10294000994500D2AFE65A46594654084A46C80748
:102950005208024303924A46D2079046A9E600274E
:10296000884500D31CE7019F5A46BC46E044B84561
:10297000BF417F42BF19FF18013ABE4206D2BC4296
:102980005FD800D19FE03F1B934609E7B742FAD1D9
:10299000019B4345F3D9371B934601E79346D4E6A1
:1029A0000293B1E64A468919013A8E4218D99146F6
:1029B000814200D061E7019A9A4200D05DE760E76A
:1029C0004F4F7F1B382F13DD012253461A404FE62D
:1029D00001235B42994654E7029308E7039327E7F4
:1029E00088423CD874D0914647E7019B9A4648E715
:1029F0001F2F44DC434B4A469C465B466544FA40E5
:102A0000AB4013434A46AA40151C6A1E95415A46DC
:102A1000FA402B43171C5A0709D00F221A40042AE8
:102A200005D01A1D9A429B415B42FF18131C3A02C3
:102A30003ED55346012200211A4000270123894632
:102A4000AAE502235B429C46019AE3449446E04493
:102A500090459B415B429B19DF193F1BA0E6019FFC
:102A60004A467C00BC42BF417F42BF19023AC919A5
:102A700001949CE7002B95D1002201929BE75A46D6
:102A8000214B5B1BDA40202F27D0204B9C465B4616
:102A90006544AB4049460B43591E8B411343072203
:102AA00000271A4007D00F2200271A40042AB8D165
:102AB0007A077F023F0BDB081343994601225346F6
:102AC0001A40002368E54145BBD89346002767E6D6
:102AD000019C9C42C3D391466DE70023DAE780272F
:102AE0005B463F031F433F033F0B019A034B53E5F4
:102AF000FF030000FFFFFFFEFE070000FF070000CE
:102B000002FCFFFF1E040000E2FBFFFF3E0400008A
:102B1000F0B55F464D4644465646F0B41F035C0090
:102B2000DB0F99461B4B0E034D00C90F8446360B35
:102B30006D0D8B4690463F0B640D9D420CD0154B9E
:102B40009C4210D00123A54214D0181C3CBC9046D6
:102B50009946A246AB46F0BD311C01230143F4D196
:102B60000C4B9C42EED13A430123002AEDD10123C4
:102B7000A542EAD1BE42E8D1C445E6D1CB4506D054
:102B8000002DE2D13043031C581E8341DDE70023B2
:102B9000DBE7C046FF070000F0B5574645464E4606
:102BA000E0B40F034E00C90F8A4632491D035C0092
:102BB00084463F0B760D90462D0B640DDB0F8E4245
:102BC0000FD08C4239D0002E10D1384341424141C0
:102BD0008946002C27D12A4325D1002000290ED177
:102BE00008E0391C01432ED1B44226D0002C0BD072
:102BF0009A450DD05346594201231943081C1CBC69
:102C000090469946A246F0BD2A43F3D09A45F1D1A9
:102C1000A642EFDC1ADA50464142484101234142C4
:102C20001943081CEBE74A46002AE1D058425841B4
:102C3000012241421143081CE1E7291C114302D142
:102C4000002EC2D0D4E702204042D8E7AF42D1D80C
:102C500009D00020AF42D2D2504641424841012320
:102C600040421843CBE7C445C4D80020C445F3D341
:102C7000C5E7C046FF070000F0B55F464D46444635
:102C800056468046F0B4061C0803000B84462C48C8
:102C90004C001F035D00C90F640D8B4691463F0B2E
:102CA0006D0DDB0F844212D0854225D0002C14D14B
:102CB00061460E4370424641002D35D0002E21D092
:102CC00058425841012143420B43181C0EE0614613
:102CD000022031430AD1A5420ED0002D12D13A4331
:102CE00010D15B46594201231943081C3CBC904655
:102CF0009946A246AB46F0BD391C02201143F5D1DE
:102D0000002CD5D09B45ECD1AC42EADC05DBBC45C0
:102D1000E7D80FD00020BC45E8D258464142484190
:102D2000414201200843E1E73A43C7D10020002E89
:102D3000DCD1D6E7C845D4D80020C845EDD3D5E7C7
:102D4000FF070000F0B55F4656464D464446F0B4D6
:102D5000051C061C080387B099464F00030BCC0FD7
:102D600092469B467F0D019467D06C4B9F4236D0B4
:102D700080205B4640031843C0006B0F1843684B2C
:102D800083469C4600239846EE00674400934B46DA
:102D900049461D03C90F5B0052462D0B5B0D89464A
:102DA00000D16EE05D498B4264D080205C494003D5
:102DB0008C4600210543ED00500F0543D2006344CB
:102DC0004846FF187B1C9A46009B604002900B43CC
:102DD0000F2B00D9ACE053489B00C3589F465B467D
:102DE0001D4300D082E00823009300239B4602335A
:102DF00000269846CBE7029B01934346022B59D10C
:102E0000012400250026019B1C40444B00212D037A
:102E10000A0D12052D0B1543434A1B0515401D4392
:102E20006D00E4076D082543301C291C07B03CBC2D
:102E300090469946A246AB46F0BD2B434ED05B462A
:102E4000002B00D185E1584600F024FF021C282306
:102E5000291C9B1A161C5846D940083EB0400B1C32
:102E6000B54003439B462E1C0023304F0093BF1AEE
:102E700098468CE7514629432ED100250022022195
:102E80009EE75146294323D0002D00D154E1281C50
:102E900000F000FF031C28215046C91A1A1CC84024
:102EA0005146083A914095400A1C05431F480021AD
:102EB000C31A85E7032B00D1C2E1012B00D06DE1DD
:102EC0004446019B00251C40E4B2002300269DE7F8
:102ED00000250022012173E7032171E704230093F9
:102EE00000239B4601330026984650E70C230093AD
:102EF000093B98464BE7802500242D030026074B0D
:102F000084E74B46AB46161C0193884675E7029B47
:102F1000AB46161C019388466FE7C046FF070000CA
:102F200001FCFFFFE03E0000FFFF0F800DFCFFFFF4
:102F3000330C3604360C9C46331C140C1204120C51
:102F4000534398466346534399466346634301930C
:102F5000331C41466343090C4B445B18994505D922
:102F6000802040028146019949440191190C039146
:102F700041460904090C1B045B1804932B0C98466A
:102F8000331C2D04290C4B43604600934346654691
:102F900058435E43009B4D431B0C9946AE194E446B
:102FA0008446B54203D980235B029946CC44350C54
:102FB0002B1C0398634484460593009B36041B0432
:102FC0001B0CF3189C446046039058460504060CFD
:102FD000280C84465043351C814660466543444373
:102FE0004846000C8346724314195C44A24203D93C
:102FF0008022520293465D44220CAD184A461204C8
:10300000120C24044046A41862464A4371434643C6
:1030100060460096464670438046100C84468844BD
:10302000E044414505D9802149028C46009961441C
:103030000091019803998446614499429B415B4207
:1030400099460598434684461204120C1B049B18AB
:1030500063449C46AB4683429B4140460A19CC449C
:10306000A2428941E344CC45B6415C46000C80460F
:10307000494276425B426418334398448C4289410A
:10308000AB459B4149425B4219430D1C009B4544A3
:10309000EE187602E50D2E43B346049B56021E43FE
:1030A000731E9E415B46D20D324366021643DB011E
:1030B0000AD50123334076081E435B46DB071E43D7
:1030C0005B465B089B465746634BFB18002B5ADD5B
:1030D000720709D00F223240042A05D0321DB242B5
:1030E000B6417642B344161C5A46D20106D55A461A
:1030F0005A4B1A4080239346DB00FB18584A9342F0
:1031000034DD0124029B00251C400026554B7DE642
:1031100080205B460003034208D0054206D10543E8
:103120002D032D0B4C46161C4E4B6FE65D4605439A
:103130002D032D0B4B4B69E6504600F0ABFD031CF5
:103140002033272B00DCA6E65546083885400022B0
:10315000ACE6281C00F09EFD021C2032272A00DC71
:1031600075E6083885400026AB467DE65A46F608E7
:10317000520716435A4601245502029A5B052D0B4D
:103180005B0D144042E6384DED1B382D0ADD01245D
:10319000029B00251C400026002337E6019B574672
:1031A000029391E71F2D25DC304B321C9C4667446F
:1031B000BE405B46BB40371CEA407E1EB74113430E
:1031C0003B431E1C5B46EB401D1C730709D00F23BD
:1031D0003340042B05D0331DB342B6417642AD19BE
:1031E0001E1C2B0220D50124029B00251C4000261A
:1031F00001230BE65A461E4BDB1BDA40131C202D25
:103200001CD01C4A94465A466744BA40171C3E4399
:10321000721E96411E4307230025334007D00F231B
:1032200000253340042BD6D16B076D022D0B0124F2
:10323000F6081E43029B1C400023E7E50027E6E753
:1032400080255B4601242D031D43019B2D03234054
:103250001C1C2D0B034BD9E5FF030000FFFFFFFEF5
:10326000FE070000FF07000002FCFFFF1E04000035
:10327000E2FBFFFF3E040000F0B54D4644465F46CA
:103280005646F0B40E1C111C3203520A470F174366
:10329000C5001A035800DB0F9946520A4B0F83B042
:1032A0001A43CB000193CF4B7400F60F640DB04668
:1032B000400D984200D1E8E00123494659400B1CDB
:1032C0009E4200D1B1E0261A002E00DC1CE100284D
:1032D00042D1131C01990B4300D0E6E06B0700D1EB
:1032E0008EE00F232B40042B00D189E02A1DAA4237
:1032F000AD418023012641466D427F191B043B40AE
:103300000E40151C002B00D183E0B64B01349C42CB
:1033100000D116E13A1CB44BED081A405007640581
:1033200052020543120B640D002112030B0D1B0505
:103330006405120B1A436308AC4CF60714401C4397
:10334000640064083443281C211C03B03CBC904634
:103350009946A246AB46F0BDA24B9C42BED080230C
:103360001B041A43382E00DD03E11F2E00DD3FE170
:103370002020831B9946131C49468B409C46019B89
:103380006046F34003430198F2408840011C481E08
:1033900081410B43EB1A9D4280411D1CBA1A4042E9
:1033A000171A3B0200D4A8E07A02560A002E00D178
:1033B000CAE0301C00F06EFC031C083B1F2B00DD34
:1033C000CBE02822291C121AD1409E400A1C9D40A5
:1033D00032439C4200DDC8E01C1B671C1F2F00DD30
:1033E000EDE01F23291C1C1B131CA540A340F94022
:1033F0006C1EA541FA4019430D43171C00246DE7CC
:103400008023012642461B043B401640002B00D07F
:103410007BE7744BED0878070543FA089C423BD0E4
:1034200012036405120B640D7EE7231A9A46002BE3
:1034300000DCA5E0002844D06A48844200D14DE772
:103440008020000402435346382B00DC1CE1019B22
:103450001A43511E8A41D1B200224919A942804122
:103460000D1CD219404217183B0246D55D4B013462
:103470009C4200D169E101205B4A6B083A40284038
:103480001843D5070543570828E7131C01990B4338
:1034900000D111E74B4613E72B1C134351D0802377
:1034A0001B031A431203120B3EE7013E002E00D00D
:1034B00080E0691A8D429B41BA1A5B42D71A0D1CF3
:1034C0006FE7101C019B184300D107E701235B4203
:1034D0009C46E2445346002B00D002E1019BD219E6
:1034E0005919A9429B415B42D7180D1CBCE76346A2
:1034F000034300D128E1071C65466B0700D0F0E6C6
:10350000012643461E4084E7002E00D081E0601C67
:103510004005400D012800DC07E10199681A844646
:103520006545B641B81A7642861B300200D4A1E048
:103530008C464D1BAC458941D21B4942561A9846D0
:1035400034E700220025EFE6281C00F0A3FB203022
:10355000031C083B1F2B00DC33E7021C283A954074
:103560002A1C00259C4200DC36E71F4FE41A174056
:10357000B4E6019B1A43511E8A41D3B2002209E7E7
:10358000002B00D001E1601C43055B0D012B00DC2A
:10359000B0E0144B984200D11EE1019BD219591999
:1035A000A9429B415B42D2184908D5070D435708F1
:1035B000041C93E60B4B9C4200D0D3E68EE6211C04
:1035C000131C1F39CB40191C202F00D18EE03F2344
:1035D0001C1BA24015436A1E954100270D43002481
:1035E0008BE7C046FF070000FFFF7FFFFFFF0F8054
:1035F000331C101C203BD840202E79D040239B1B2D
:103600009A40131C019A1343591E8B410022034315
:10361000C0E6002C53D0C74CA04200D1B0E08024BB
:1036200071428946240427434946382900DDCDE00C
:103630001F2900DD59E120243E1C611A8E408A4674
:10364000B04649462E1CCE405146B4468D40644695
:103650004646494626436C1EA541CF403543019955
:10366000D71B8C464D1BAC4592415242BF1A041CDD
:10367000984696E663466546334300D096E60026B4
:10368000002700240025C4E61F2B61DC2020C31A7C
:103690009B46131C59468B4051469946019BCB4093
:1036A0009C464B46604603439C465B4601999940C5
:1036B0006346481E814119435346DA40CDE63C1C1F
:1036C0002C435DD0F1438946002955D10199D21B85
:1036D0008C464D1BAC4589414942571A041C9846FB
:1036E0005FE69448844200D0ADE6F7E5002271E73A
:1036F000002387E73B1C2B43002C00D0DAE0002B93
:1037000000D113E1131C01990B4300D1E6E54919DF
:10371000A9429B41D2195B42D7183B0200D421E158
:10372000854B0D1C1F40041CD8E5381C2843002C79
:1037300040D1002800D083E0101C0199084303D039
:10374000171C0D1C9846C9E500260027002560E6D9
:103750005046131C2038C340181C5346202B00D160
:10376000C1E0402351465B1A9A40019911434A1E19
:1037700091410022014370E66E4CA04200D053E715
:10378000171C019D041C9846A8E5002C28D13C1C60
:103790002C4300D18AE0DB439A46002B00D082E024
:1037A000019BD2199C4665449D4289414942571864
:1037B000041C59E600285BD1101C0199084300D174
:1037C000A4E0171C0D1C98465A4C87E53D436F1E1C
:1037D000BD410027EDB242E7041C0027002518E692
:1037E000544CA04262D0534680245B429A46240443
:1037F00027435346382B00DD8EE01F2B00DD9DE074
:103800002024E31A9B463B1C59468B40514699465F
:103810002B1CCB409C464B46644623439C465B4650
:103820009D4063466C1EA541CF401D43019BBF18C0
:103830009C4665449D4292415242BF18041C13E6C7
:10384000101C0199084300D148E5681A8446854256
:103850008041BE1A4042301A060200D447E68C4628
:103860004D1BAC458941D21B4942571A984635E554
:10387000101C0199084334D080247807ED08FF0814
:1038800024032843274208D0D608264205D1C90878
:1038900052070A43101C371C9846FF00420F17437B
:1038A000C500244C1AE5234CA042A2D1171C019D4F
:1038B000041C13E5002B35D0131C01990B4310D0C9
:1038C00080247807ED08FF08240328432742E4D02A
:1038D000D3082342E1D1C90852070A43101C1F1C18
:1038E000DBE7144CFAE400223FE74C463E1C203C48
:1038F000E6404946341C202932D04026761AB7408B
:103900003D436F1EBD4100272543A8E680270026C2
:10391000FF03084C00257CE53D436F1EBD41002799
:10392000EDB283E7171C019D024CD7E4171C019DE3
:10393000D4E4C046FF070000FFFF7FFF54463B1C56
:10394000203CE3401C1C5346202B0DD04023514605
:103950005B1A9F403D436F1EBD410027254365E72D
:103960000027CDE70D1CC8E50027F3E70B0330B5B2
:10397000134C1A0B4B00051C5B0DC90F0020A34212
:1039800010DD104883420EDC80200F4C40030243C0
:10399000E41A1F2C0ADD0D48C31ADA40131C4842F2
:1039A0004340581830BD0A4BC818FBE7281CE040BC
:1039B000084CA44663449A40131C0343EFE7C046F7
:1039C000FE0300001D040000330400001304000087
:1039D000FFFFFF7FEDFBFFFF38B5041E16D0C50FBC
:1039E00000D04442201C00F055F9174B1B1A0A283E
:1039F00021DC021C211C153291400A1C0B21081AE3
:103A0000C4405B052403240B5B0D03E00025002369
:103A1000002400220021101C24030A0D1205240B8F
:103A200014430A4A1B0514401C436400ED07640854
:103A30002C43211C38BD0B3884405B052403240B28
:103A40005B0D0022E6E7C0461E040000FFFF0F806A
:103A500070B50B034D00440F6D0D5B0A23436C1CC6
:103A60006405C90FC200640D012C2ADD3B4C2C19E2
:103A7000FE2C1ADC002C35DD8001451EA841DB0040
:103A80000343520F13435A0704D00F221A40042A4B
:103A900000D004338022D2041A4027D00134FF2CF6
:103AA00003D09B015B0AE4B201E0FF2400235B0228
:103AB000E4055B0A23435B00C9075B080B43181C42
:103AC00070BD002D06D113430ED100245B025B0AAA
:103AD000E4B2ECE71A43E8D08020DB008004034323
:103AE000FF24D0E717340CDA05230024DB08FF2C71
:103AF000ECD1002B2DD08022D20313435B025B0A52
:103B0000D5E78024164824042343401B1F280DDCDE
:103B1000144CA4466544AB401C1C131CAB405D1EFA
:103B2000AB41C240234313430024ACE71E1C0E4CA0
:103B3000641BE640341C20280DD00C4884466544A4
:103B4000AB401D1C2A43531E9A41131C23430024DF
:103B500099E70023ABE70025F4E7C04680FCFFFFB0
:103B60009E03000082FCFFFF7E030000A2FCFFFF1B
:103B7000002243088B4274D303098B425FD3030AAC
:103B80008B4244D3030B8B4228D3030C8B420DD3BF
:103B9000FF22090212BA030C8B4202D3121209024D
:103BA00065D0030B8B4219D300E0090AC30B8B428B
:103BB00001D3CB03C01A5241830B8B4201D38B0339
:103BC000C01A5241430B8B4201D34B03C01A5241DE
:103BD000030B8B4201D30B03C01A5241C30A8B4221
:103BE00001D3CB02C01A5241830A8B4201D38B020C
:103BF000C01A5241430A8B4201D34B02C01A5241B0
:103C0000030A8B4201D30B02C01A5241CDD2C30921
:103C10008B4201D3CB01C01A524183098B4201D39D
:103C20008B01C01A524143098B4201D34B01C01A88
:103C3000524103098B4201D30B01C01A5241C30800
:103C40008B4201D3CB00C01A524183088B4201D36F
:103C50008B00C01A524143088B4201D34B00C01A5B
:103C60005241411A00D20146524110467047FFE7C7
:103C700001B5002000F00CF802BDC0460029F7D0C5
:103C800003B5FFF775FF0EBC4243891A1847C046BB
:103C90007047C0461C2101231B04984201D3000C2D
:103CA00010391B0A984201D3000A08391B099842AF
:103CB00001D30009043902A2105C40187047C046C5
:103CC00004030202010101010000000000000000E5
:103CD000014B18687047C0463804002070B50D4E7F
:103CE0000D4D0024AD1BAD1005D0A300F3580134D9
:103CF0009847A542F9D100F017F9084E084D002465
:103D0000AD1BAD1005D0A300F35801349847A54270
:103D1000F9D170BD343F0000343F0000343F000053
:103D20003C3F000008B5034B002B02D0024800F0D6
:103D300005F808BD000000004D3D000008B5011C5D
:103D400000220020002300F01BF808BD38B5094B05
:103D5000094CE41AA41009D0084AA518AD00ED18C2
:103D60002B68013C9847043D002CF9D100F0E6F89F
:103D700038BDC046483F00004C3F0000FFFFFF3FFA
:103D8000F8B544465F4656464D469B462F4BF0B429
:103D90001C68A4235B00051CE0580E1C90460028FC
:103DA0004BD043681F2B0DDC5C1C002D21D102334E
:103DB0009B0044601E5000203CBC90469946A246A1
:103DC000AB46F8BD224B002B3CD0C820400000E0A1
:103DD00000BF002836D0A42200235200A15843601F
:103DE0000160A05040328350043283500124002DE2
:103DF000DDD09A0091468144424688214F467A5050
:103E0000C422520090468044424687399940126845
:103E10008A460A43944642466146116084224946D6
:103E20005F4652008F50022DC1D1021C55468D3283
:103E3000FF3211680D431560B9E7201C4D30FF308B
:103E4000E050AEE701204042B6E7C046243F000004
:103E500000000000706F770000000000000000000C
:103E60000000004003B8E23F000000000000000036
:103E700006D0CF43EBFD4C3E000000000000F03FB9
:103E8000000000000000F83F0000000000000000FB
:103E9000000000000000304300000000000030C3BC
:103EA0009C2600008A250000702600007625000070
:103EB000702600007A26000070260000762500009B
:103EC0008A2500008A2500007A2600007625000059
:103ED000802500008025000080250000E2280000E9
:103EE000302F00000E2F00000E2F0000022F0000C8
:103EF000F62D0000F62D0000F62E0000022F000027
:103F0000F62D0000F62E0000F62D0000022F000016
:103F1000FA2D0000FA2D0000FA2D000010310000EB
:103F20004300000010000020F8B5C046F8BC08BCF3
:103F30009E467047253D0000DD000000F8B5C046F4
:0C3F4000F8BC08BC9E467047B5000000AD
:103F4C0080BB00003000000040420F000100000068
:103F5C0000000000FC02002064030020CC030020C1
:103F6C000000000000000000000000000000000045
:103F7C000000000000000000000000000000000035
:103F8C0000000000203F00000000000000000000C6
:103F9C000000000000000000000000000000000015
:103FAC000000000000000000000000000000000005
:103FBC0000000000000000000000000000000000F5
:103FCC0000000000000000000000000000000000E5
:103FDC0000000000000000000000000000000000D5
:103FEC0000000000000000000000000000000000C5
:103FFC0000000000000000000100000000000000B4
:10400C000E33CDAB34126DE6ECDE05000B00000078
:10401C000000000000000000000000000000000094
:10402C000000000000000000000000000000000084
:10403C000000000000000000000000000000000074
:10404C000000000000000000000000000000000064
:0C437C0000000000000000001000002005
:00000001FF
